
ROBOT_LOCALIZATION.elf:     file format elf32-littlearm

Sections:
Idx Name          Size      VMA       LMA       File off  Algn
  0 .text         00004794  00400000  00400000  00008000  2**3
                  CONTENTS, ALLOC, LOAD, READONLY, CODE
  1 .relocate     00000440  20000000  00404794  00010000  2**3
                  CONTENTS, ALLOC, LOAD, DATA
  2 .bss          0000a208  20000440  00404bd8  00010440  2**3
                  ALLOC
  3 .stack        00003000  2000a648  0040ede0  00010440  2**0
                  ALLOC
  4 .ARM.attributes 0000002a  00000000  00000000  00010440  2**0
                  CONTENTS, READONLY
  5 .comment      00000071  00000000  00000000  0001046a  2**0
                  CONTENTS, READONLY
  6 .debug_info   00010b2b  00000000  00000000  000104db  2**0
                  CONTENTS, READONLY, DEBUGGING
  7 .debug_abbrev 00003566  00000000  00000000  00021006  2**0
                  CONTENTS, READONLY, DEBUGGING
  8 .debug_loc    0000703c  00000000  00000000  0002456c  2**0
                  CONTENTS, READONLY, DEBUGGING
  9 .debug_aranges 00000d28  00000000  00000000  0002b5a8  2**0
                  CONTENTS, READONLY, DEBUGGING
 10 .debug_ranges 00000c78  00000000  00000000  0002c2d0  2**0
                  CONTENTS, READONLY, DEBUGGING
 11 .debug_macro  0001525c  00000000  00000000  0002cf48  2**0
                  CONTENTS, READONLY, DEBUGGING
 12 .debug_line   0001173b  00000000  00000000  000421a4  2**0
                  CONTENTS, READONLY, DEBUGGING
 13 .debug_str    00054369  00000000  00000000  000538df  2**0
                  CONTENTS, READONLY, DEBUGGING
 14 .debug_frame  00001c60  00000000  00000000  000a7c48  2**2
                  CONTENTS, READONLY, DEBUGGING

Disassembly of section .text:

00400000 <_sfixed>:
  400000:	2000d648 	.word	0x2000d648
  400004:	004038c9 	.word	0x004038c9
  400008:	004038c5 	.word	0x004038c5
  40000c:	004038c5 	.word	0x004038c5
  400010:	004038c5 	.word	0x004038c5
  400014:	004038c5 	.word	0x004038c5
  400018:	004038c5 	.word	0x004038c5
	...
  40002c:	0040129d 	.word	0x0040129d
  400030:	004038c5 	.word	0x004038c5
  400034:	00000000 	.word	0x00000000
  400038:	0040132d 	.word	0x0040132d
  40003c:	00401369 	.word	0x00401369
  400040:	004038c5 	.word	0x004038c5
  400044:	004038c5 	.word	0x004038c5
  400048:	004038c5 	.word	0x004038c5
  40004c:	004038c5 	.word	0x004038c5
  400050:	004038c5 	.word	0x004038c5
  400054:	004038c5 	.word	0x004038c5
  400058:	004038c5 	.word	0x004038c5
  40005c:	004038c5 	.word	0x004038c5
  400060:	004038c5 	.word	0x004038c5
  400064:	004010d9 	.word	0x004010d9
  400068:	00000000 	.word	0x00000000
  40006c:	004036a5 	.word	0x004036a5
  400070:	004036c1 	.word	0x004036c1
  400074:	004036dd 	.word	0x004036dd
  400078:	004038c5 	.word	0x004038c5
  40007c:	004038c5 	.word	0x004038c5
	...
  400088:	004038c5 	.word	0x004038c5
  40008c:	004038c5 	.word	0x004038c5
  400090:	004038c5 	.word	0x004038c5
  400094:	004038c5 	.word	0x004038c5
  400098:	004038c5 	.word	0x004038c5
  40009c:	00400fdd 	.word	0x00400fdd
  4000a0:	004038c5 	.word	0x004038c5
  4000a4:	004038c5 	.word	0x004038c5
  4000a8:	004038c5 	.word	0x004038c5
  4000ac:	004038c5 	.word	0x004038c5
  4000b0:	004038c5 	.word	0x004038c5
  4000b4:	004038c5 	.word	0x004038c5
  4000b8:	004038c5 	.word	0x004038c5
  4000bc:	004038c5 	.word	0x004038c5
  4000c0:	004038c5 	.word	0x004038c5
  4000c4:	004038c5 	.word	0x004038c5
  4000c8:	004038c5 	.word	0x004038c5

004000cc <deregister_tm_clones>:
  4000cc:	b508      	push	{r3, lr}
  4000ce:	4805      	ldr	r0, [pc, #20]	; (4000e4 <deregister_tm_clones+0x18>)
  4000d0:	4b05      	ldr	r3, [pc, #20]	; (4000e8 <deregister_tm_clones+0x1c>)
  4000d2:	1a19      	subs	r1, r3, r0
  4000d4:	2906      	cmp	r1, #6
  4000d6:	d800      	bhi.n	4000da <deregister_tm_clones+0xe>
  4000d8:	bd08      	pop	{r3, pc}
  4000da:	4a04      	ldr	r2, [pc, #16]	; (4000ec <deregister_tm_clones+0x20>)
  4000dc:	2a00      	cmp	r2, #0
  4000de:	d0fb      	beq.n	4000d8 <deregister_tm_clones+0xc>
  4000e0:	4790      	blx	r2
  4000e2:	e7f9      	b.n	4000d8 <deregister_tm_clones+0xc>
  4000e4:	00404794 	.word	0x00404794
  4000e8:	00404797 	.word	0x00404797
  4000ec:	00000000 	.word	0x00000000

004000f0 <register_tm_clones>:
  4000f0:	b508      	push	{r3, lr}
  4000f2:	4807      	ldr	r0, [pc, #28]	; (400110 <register_tm_clones+0x20>)
  4000f4:	4b07      	ldr	r3, [pc, #28]	; (400114 <register_tm_clones+0x24>)
  4000f6:	1a19      	subs	r1, r3, r0
  4000f8:	108a      	asrs	r2, r1, #2
  4000fa:	eb02 73d2 	add.w	r3, r2, r2, lsr #31
  4000fe:	1059      	asrs	r1, r3, #1
  400100:	d100      	bne.n	400104 <register_tm_clones+0x14>
  400102:	bd08      	pop	{r3, pc}
  400104:	4a04      	ldr	r2, [pc, #16]	; (400118 <register_tm_clones+0x28>)
  400106:	2a00      	cmp	r2, #0
  400108:	d0fb      	beq.n	400102 <register_tm_clones+0x12>
  40010a:	4790      	blx	r2
  40010c:	e7f9      	b.n	400102 <register_tm_clones+0x12>
  40010e:	bf00      	nop
  400110:	00404794 	.word	0x00404794
  400114:	00404794 	.word	0x00404794
  400118:	00000000 	.word	0x00000000

0040011c <__do_global_dtors_aux>:
  40011c:	b510      	push	{r4, lr}
  40011e:	4c06      	ldr	r4, [pc, #24]	; (400138 <__do_global_dtors_aux+0x1c>)
  400120:	7823      	ldrb	r3, [r4, #0]
  400122:	b943      	cbnz	r3, 400136 <__do_global_dtors_aux+0x1a>
  400124:	f7ff ffd2 	bl	4000cc <deregister_tm_clones>
  400128:	4804      	ldr	r0, [pc, #16]	; (40013c <__do_global_dtors_aux+0x20>)
  40012a:	b110      	cbz	r0, 400132 <__do_global_dtors_aux+0x16>
  40012c:	4804      	ldr	r0, [pc, #16]	; (400140 <__do_global_dtors_aux+0x24>)
  40012e:	f3af 8000 	nop.w
  400132:	2101      	movs	r1, #1
  400134:	7021      	strb	r1, [r4, #0]
  400136:	bd10      	pop	{r4, pc}
  400138:	20000440 	.word	0x20000440
  40013c:	00000000 	.word	0x00000000
  400140:	00404794 	.word	0x00404794

00400144 <frame_dummy>:
  400144:	b508      	push	{r3, lr}
  400146:	4b08      	ldr	r3, [pc, #32]	; (400168 <frame_dummy+0x24>)
  400148:	b11b      	cbz	r3, 400152 <frame_dummy+0xe>
  40014a:	4808      	ldr	r0, [pc, #32]	; (40016c <frame_dummy+0x28>)
  40014c:	4908      	ldr	r1, [pc, #32]	; (400170 <frame_dummy+0x2c>)
  40014e:	f3af 8000 	nop.w
  400152:	4808      	ldr	r0, [pc, #32]	; (400174 <frame_dummy+0x30>)
  400154:	6801      	ldr	r1, [r0, #0]
  400156:	b111      	cbz	r1, 40015e <frame_dummy+0x1a>
  400158:	4a07      	ldr	r2, [pc, #28]	; (400178 <frame_dummy+0x34>)
  40015a:	b102      	cbz	r2, 40015e <frame_dummy+0x1a>
  40015c:	4790      	blx	r2
  40015e:	e8bd 4008 	ldmia.w	sp!, {r3, lr}
  400162:	f7ff bfc5 	b.w	4000f0 <register_tm_clones>
  400166:	bf00      	nop
  400168:	00000000 	.word	0x00000000
  40016c:	00404794 	.word	0x00404794
  400170:	20000444 	.word	0x20000444
  400174:	00404794 	.word	0x00404794
  400178:	00000000 	.word	0x00000000

0040017c <read_ak8975>:
#include "ak8975.h"

/** Delay loop count during self-test */
#define SELF_TEST_DELAY     (0x80000)

void read_ak8975(xQueueHandle sensorData, uint8_t magDir){
  40017c:	b5f0      	push	{r4, r5, r6, r7, lr}
  40017e:	b089      	sub	sp, #36	; 0x24
  400180:	4604      	mov	r4, r0
  400182:	460f      	mov	r7, r1
	
	uint8_t			data[6];
	twi_packet_t	packet =	{
  400184:	f04f 0300 	mov.w	r3, #0
  400188:	9301      	str	r3, [sp, #4]
  40018a:	9305      	str	r3, [sp, #20]
  40018c:	f04f 0001 	mov.w	r0, #1
  400190:	9002      	str	r0, [sp, #8]
  400192:	aa06      	add	r2, sp, #24
  400194:	9203      	str	r2, [sp, #12]
  400196:	f04f 010c 	mov.w	r1, #12
  40019a:	f88d 1014 	strb.w	r1, [sp, #20]
		.buffer      = &data,
		.chip		 = TWI0_MAG_ADDR,
	};
	
	/* Set single measurement mode*/
	packet.addr[0] = AK8975_REG_CNTL1;
  40019e:	f04f 050a 	mov.w	r5, #10
  4001a2:	f88d 5004 	strb.w	r5, [sp, #4]
	packet.length = 1;
  4001a6:	9004      	str	r0, [sp, #16]
	data[0] = 0x01;
  4001a8:	f88d 0018 	strb.w	r0, [sp, #24]
	while(twi_master_write(TWI0, &packet));
  4001ac:	f44f 4500 	mov.w	r5, #32768	; 0x8000
  4001b0:	f2c4 0501 	movt	r5, #16385	; 0x4001
  4001b4:	f240 76fd 	movw	r6, #2045	; 0x7fd
  4001b8:	f2c0 0640 	movt	r6, #64	; 0x40
  4001bc:	4628      	mov	r0, r5
  4001be:	a901      	add	r1, sp, #4
  4001c0:	47b0      	blx	r6
  4001c2:	2800      	cmp	r0, #0
  4001c4:	d1fa      	bne.n	4001bc <read_ak8975+0x40>
	base->PIO_CODR = mask & ~level;
}

__always_inline static bool arch_ioport_get_pin_level(ioport_pin_t pin)
{
	return arch_ioport_pin_to_base(pin)->PIO_PDSR & arch_ioport_pin_to_mask(pin);
  4001c6:	f44f 6060 	mov.w	r0, #3584	; 0xe00
  4001ca:	f2c4 000e 	movt	r0, #16398	; 0x400e
  4001ce:	6bc3      	ldr	r3, [r0, #60]	; 0x3c
		
	/* Check if the data is ready */
	while(!ioport_get_pin_level(MAG_DRDY));
  4001d0:	f413 1f00 	tst.w	r3, #2097152	; 0x200000
  4001d4:	d0fb      	beq.n	4001ce <read_ak8975+0x52>
		
	/* Read sensor data */
	packet.addr[0] = AK8975_REG_HXL;
  4001d6:	f04f 0203 	mov.w	r2, #3
  4001da:	f88d 2004 	strb.w	r2, [sp, #4]
	packet.length = 6;
  4001de:	f04f 0106 	mov.w	r1, #6
  4001e2:	9104      	str	r1, [sp, #16]
	
	while(twi_master_read(TWI0, &packet));
  4001e4:	f44f 4500 	mov.w	r5, #32768	; 0x8000
  4001e8:	f2c4 0501 	movt	r5, #16385	; 0x4001
  4001ec:	f240 7645 	movw	r6, #1861	; 0x745
  4001f0:	f2c0 0640 	movt	r6, #64	; 0x40
  4001f4:	4628      	mov	r0, r5
  4001f6:	a901      	add	r1, sp, #4
  4001f8:	47b0      	blx	r6
  4001fa:	2800      	cmp	r0, #0
  4001fc:	d1fa      	bne.n	4001f4 <read_ak8975+0x78>

	if(magDir & magX_BM){
  4001fe:	f007 0040 	and.w	r0, r7, #64	; 0x40
  400202:	b2c3      	uxtb	r3, r0
  400204:	b343      	cbz	r3, 400258 <read_ak8975+0xdc>
		// change lsb from 1:0 to 7:0 and msb from 9:2 to 9:8
		data[0] = (data[1] << 2) | (data[0] >> 6);
  400206:	f89d 5019 	ldrb.w	r5, [sp, #25]
  40020a:	f89d 6018 	ldrb.w	r6, [sp, #24]
  40020e:	ea4f 1296 	mov.w	r2, r6, lsr #6
  400212:	ea42 0185 	orr.w	r1, r2, r5, lsl #2
  400216:	f88d 1018 	strb.w	r1, [sp, #24]
		data[1] = data[1] >> 6;
  40021a:	ea4f 1095 	mov.w	r0, r5, lsr #6
  40021e:	f88d 0019 	strb.w	r0, [sp, #25]

		while(xQueueSend(sensorData, &data[0], comNO_BLOCK) == pdFAIL);
  400222:	f04f 0600 	mov.w	r6, #0
  400226:	f241 75f5 	movw	r5, #6133	; 0x17f5
  40022a:	f2c0 0540 	movt	r5, #64	; 0x40
  40022e:	4620      	mov	r0, r4
  400230:	a906      	add	r1, sp, #24
  400232:	4632      	mov	r2, r6
  400234:	4633      	mov	r3, r6
  400236:	47a8      	blx	r5
  400238:	2800      	cmp	r0, #0
  40023a:	d0f8      	beq.n	40022e <read_ak8975+0xb2>
		while(xQueueSend(sensorData, &data[1], comNO_BLOCK) == pdFAIL);
  40023c:	f04f 0600 	mov.w	r6, #0
  400240:	f241 75f5 	movw	r5, #6133	; 0x17f5
  400244:	f2c0 0540 	movt	r5, #64	; 0x40
  400248:	4620      	mov	r0, r4
  40024a:	f10d 0119 	add.w	r1, sp, #25
  40024e:	4632      	mov	r2, r6
  400250:	4633      	mov	r3, r6
  400252:	47a8      	blx	r5
  400254:	2800      	cmp	r0, #0
  400256:	d0f7      	beq.n	400248 <read_ak8975+0xcc>
	}

	if(magDir & magY_BM){
  400258:	f017 0f80 	tst.w	r7, #128	; 0x80
  40025c:	d029      	beq.n	4002b2 <read_ak8975+0x136>
		// change lsb from 1:0 to 7:0 and msb from 9:2 to 9:8
		data[2] = (data[3] << 2) | (data[2] >> 6);
  40025e:	f89d 301b 	ldrb.w	r3, [sp, #27]
  400262:	f89d 201a 	ldrb.w	r2, [sp, #26]
  400266:	ea4f 1192 	mov.w	r1, r2, lsr #6
  40026a:	ea41 0083 	orr.w	r0, r1, r3, lsl #2
  40026e:	f88d 001a 	strb.w	r0, [sp, #26]
		data[3] = data[3] >> 6;
  400272:	ea4f 1693 	mov.w	r6, r3, lsr #6
  400276:	f88d 601b 	strb.w	r6, [sp, #27]

		while(xQueueSend(sensorData, &data[2], comNO_BLOCK) == pdFAIL);
  40027a:	f04f 0600 	mov.w	r6, #0
  40027e:	f241 75f5 	movw	r5, #6133	; 0x17f5
  400282:	f2c0 0540 	movt	r5, #64	; 0x40
  400286:	4620      	mov	r0, r4
  400288:	f10d 011a 	add.w	r1, sp, #26
  40028c:	4632      	mov	r2, r6
  40028e:	4633      	mov	r3, r6
  400290:	47a8      	blx	r5
  400292:	2800      	cmp	r0, #0
  400294:	d0f7      	beq.n	400286 <read_ak8975+0x10a>
		while(xQueueSend(sensorData, &data[3], comNO_BLOCK) == pdFAIL);
  400296:	f04f 0600 	mov.w	r6, #0
  40029a:	f241 75f5 	movw	r5, #6133	; 0x17f5
  40029e:	f2c0 0540 	movt	r5, #64	; 0x40
  4002a2:	4620      	mov	r0, r4
  4002a4:	f10d 011b 	add.w	r1, sp, #27
  4002a8:	4632      	mov	r2, r6
  4002aa:	4633      	mov	r3, r6
  4002ac:	47a8      	blx	r5
  4002ae:	2800      	cmp	r0, #0
  4002b0:	d0f7      	beq.n	4002a2 <read_ak8975+0x126>
	}
	
	if(magDir & magZ_BM){
  4002b2:	f017 0f01 	tst.w	r7, #1
  4002b6:	d028      	beq.n	40030a <read_ak8975+0x18e>
		// change lsb from 1:0 to 7:0 and msb from 9:2 to 9:8
		data[4] = (data[5] << 2) | (data[4] >> 6);
  4002b8:	f89d 301d 	ldrb.w	r3, [sp, #29]
  4002bc:	f89d 201c 	ldrb.w	r2, [sp, #28]
  4002c0:	ea4f 1192 	mov.w	r1, r2, lsr #6
  4002c4:	ea41 0083 	orr.w	r0, r1, r3, lsl #2
  4002c8:	f88d 001c 	strb.w	r0, [sp, #28]
		data[5] = data[5] >> 6;
  4002cc:	ea4f 1693 	mov.w	r6, r3, lsr #6
  4002d0:	f88d 601d 	strb.w	r6, [sp, #29]

		while(xQueueSend(sensorData, &data[4], comNO_BLOCK) == pdFAIL);
  4002d4:	f04f 0600 	mov.w	r6, #0
  4002d8:	f241 75f5 	movw	r5, #6133	; 0x17f5
  4002dc:	f2c0 0540 	movt	r5, #64	; 0x40
  4002e0:	4620      	mov	r0, r4
  4002e2:	a907      	add	r1, sp, #28
  4002e4:	4632      	mov	r2, r6
  4002e6:	4633      	mov	r3, r6
  4002e8:	47a8      	blx	r5
  4002ea:	2800      	cmp	r0, #0
  4002ec:	d0f8      	beq.n	4002e0 <read_ak8975+0x164>
		while(xQueueSend(sensorData, &data[5], comNO_BLOCK) == pdFAIL);
  4002ee:	f04f 0600 	mov.w	r6, #0
  4002f2:	f241 75f5 	movw	r5, #6133	; 0x17f5
  4002f6:	f2c0 0540 	movt	r5, #64	; 0x40
  4002fa:	4620      	mov	r0, r4
  4002fc:	f10d 011d 	add.w	r1, sp, #29
  400300:	4632      	mov	r2, r6
  400302:	4633      	mov	r3, r6
  400304:	47a8      	blx	r5
  400306:	2800      	cmp	r0, #0
  400308:	d0f7      	beq.n	4002fa <read_ak8975+0x17e>
	}
  40030a:	b009      	add	sp, #36	; 0x24
  40030c:	bdf0      	pop	{r4, r5, r6, r7, pc}
  40030e:	bf00      	nop

00400310 <reset_bma150>:
}	

/*
*	Soft reset the accelerometer over I2C
*/
void reset_bma150(void){
  400310:	b530      	push	{r4, r5, lr}
  400312:	b087      	sub	sp, #28
	uint8_t data;
	
	twi_packet_t packet = {
  400314:	f04f 0300 	mov.w	r3, #0
  400318:	9300      	str	r3, [sp, #0]
  40031a:	9304      	str	r3, [sp, #16]
  40031c:	f04f 000a 	mov.w	r0, #10
  400320:	f88d 0000 	strb.w	r0, [sp]
  400324:	f04f 0101 	mov.w	r1, #1
  400328:	9101      	str	r1, [sp, #4]
  40032a:	f10d 0217 	add.w	r2, sp, #23
  40032e:	9202      	str	r2, [sp, #8]
  400330:	9103      	str	r1, [sp, #12]
  400332:	f04f 0438 	mov.w	r4, #56	; 0x38
  400336:	f88d 4010 	strb.w	r4, [sp, #16]
		.buffer      = &data,
		.length      = 1,
		.chip		 = TWI0_ACCEL_ADDR
	};

	data = CTRL1_SOFT_RESET;
  40033a:	f04f 0502 	mov.w	r5, #2
  40033e:	f88d 5017 	strb.w	r5, [sp, #23]
	while(twi_master_write(TWI0, &packet));
  400342:	f44f 4400 	mov.w	r4, #32768	; 0x8000
  400346:	f2c4 0401 	movt	r4, #16385	; 0x4001
  40034a:	f240 75fd 	movw	r5, #2045	; 0x7fd
  40034e:	f2c0 0540 	movt	r5, #64	; 0x40
  400352:	4620      	mov	r0, r4
  400354:	4669      	mov	r1, sp
  400356:	47a8      	blx	r5
  400358:	2800      	cmp	r0, #0
  40035a:	d1fa      	bne.n	400352 <reset_bma150+0x42>
	
	// Must delay any I2C transactions >10us after soft reset
	// Use 2ms here because of 1ms resolution, ensure that at least one full tick is observed
	vTaskDelay(.002*configTICK_RATE_HZ); // (desired time in seconds)*configTICK_RATE_HZ
  40035c:	f242 6345 	movw	r3, #9797	; 0x2645
  400360:	f2c0 0340 	movt	r3, #64	; 0x40
  400364:	4798      	blx	r3
	
}
  400366:	b007      	add	sp, #28
  400368:	bd30      	pop	{r4, r5, pc}
  40036a:	bf00      	nop

0040036c <initialize_bma150>:

/*	
*	Initialize bma150, using new value interrupt, select range and bandwidth
*/

void initialize_bma150(uint8_t rangeBW_flags){
  40036c:	b570      	push	{r4, r5, r6, lr}
  40036e:	b086      	sub	sp, #24
  400370:	4606      	mov	r6, r0
	
	uint8_t data;
	
	reset_bma150();
  400372:	f240 3311 	movw	r3, #785	; 0x311
  400376:	f2c0 0340 	movt	r3, #64	; 0x40
  40037a:	4798      	blx	r3
	
	// Read three msb in register 0x14 to rewrite reserved bits
	twi_packet_t packet = {
  40037c:	f04f 0000 	mov.w	r0, #0
  400380:	9000      	str	r0, [sp, #0]
  400382:	9004      	str	r0, [sp, #16]
  400384:	f04f 0114 	mov.w	r1, #20
  400388:	f88d 1000 	strb.w	r1, [sp]
  40038c:	f04f 0401 	mov.w	r4, #1
  400390:	9401      	str	r4, [sp, #4]
  400392:	f10d 0217 	add.w	r2, sp, #23
  400396:	9202      	str	r2, [sp, #8]
  400398:	9403      	str	r4, [sp, #12]
  40039a:	f04f 0538 	mov.w	r5, #56	; 0x38
  40039e:	f88d 5010 	strb.w	r5, [sp, #16]
		.buffer      = &data,
		.length      = 1,
		.chip		 = TWI0_ACCEL_ADDR
	};

	while(twi_master_read(TWI0, &packet));
  4003a2:	f44f 4400 	mov.w	r4, #32768	; 0x8000
  4003a6:	f2c4 0401 	movt	r4, #16385	; 0x4001
  4003aa:	f240 7545 	movw	r5, #1861	; 0x745
  4003ae:	f2c0 0540 	movt	r5, #64	; 0x40
  4003b2:	4620      	mov	r0, r4
  4003b4:	4669      	mov	r1, sp
  4003b6:	47a8      	blx	r5
  4003b8:	2800      	cmp	r0, #0
  4003ba:	d1fa      	bne.n	4003b2 <initialize_bma150+0x46>

	//Send data to a slave device on the I2C bus by calling twi_master_write.
	data = (data & 0xE0 ) | rangeBW_flags;
  4003bc:	f89d 3017 	ldrb.w	r3, [sp, #23]
  4003c0:	f023 001f 	bic.w	r0, r3, #31
  4003c4:	4306      	orrs	r6, r0
  4003c6:	f88d 6017 	strb.w	r6, [sp, #23]
	while(twi_master_write(TWI0, &packet));
  4003ca:	f44f 4400 	mov.w	r4, #32768	; 0x8000
  4003ce:	f2c4 0401 	movt	r4, #16385	; 0x4001
  4003d2:	f240 75fd 	movw	r5, #2045	; 0x7fd
  4003d6:	f2c0 0540 	movt	r5, #64	; 0x40
  4003da:	4620      	mov	r0, r4
  4003dc:	4669      	mov	r1, sp
  4003de:	47a8      	blx	r5
  4003e0:	2800      	cmp	r0, #0
  4003e2:	d1fa      	bne.n	4003da <initialize_bma150+0x6e>
}	
  4003e4:	b006      	add	sp, #24
  4003e6:	bd70      	pop	{r4, r5, r6, pc}

004003e8 <read_bma150>:

	data = CTRL1_RESET_INT;
	while(twi_master_write(TWI0, &packet));	// reset the interrupt over I2C
}

void read_bma150(xQueueHandle sensorData, uint8_t accelDir){
  4003e8:	b5f0      	push	{r4, r5, r6, r7, lr}
  4003ea:	b089      	sub	sp, #36	; 0x24
  4003ec:	4604      	mov	r4, r0
  4003ee:	460f      	mov	r7, r1
	
	uint8_t			data[6];
	twi_packet_t	packet =	{
  4003f0:	f04f 0300 	mov.w	r3, #0
  4003f4:	9301      	str	r3, [sp, #4]
  4003f6:	9305      	str	r3, [sp, #20]
  4003f8:	f04f 0001 	mov.w	r0, #1
  4003fc:	9002      	str	r0, [sp, #8]
  4003fe:	a906      	add	r1, sp, #24
  400400:	9103      	str	r1, [sp, #12]
  400402:	f04f 0238 	mov.w	r2, #56	; 0x38
  400406:	f88d 2014 	strb.w	r2, [sp, #20]
									.addr_length = 1,
									.buffer      = &data,
									.chip		 = TWI0_ACCEL_ADDR,
								};
	
	packet.addr[0] = BMA150_ACC_X_LSB;
  40040a:	f04f 0502 	mov.w	r5, #2
  40040e:	f88d 5004 	strb.w	r5, [sp, #4]
	packet.length = 6;
  400412:	f04f 0606 	mov.w	r6, #6
  400416:	9604      	str	r6, [sp, #16]
	
	while(twi_master_read(TWI0, &packet));
  400418:	f44f 4500 	mov.w	r5, #32768	; 0x8000
  40041c:	f2c4 0501 	movt	r5, #16385	; 0x4001
  400420:	f240 7645 	movw	r6, #1861	; 0x745
  400424:	f2c0 0640 	movt	r6, #64	; 0x40
  400428:	4628      	mov	r0, r5
  40042a:	a901      	add	r1, sp, #4
  40042c:	47b0      	blx	r6
  40042e:	2800      	cmp	r0, #0
  400430:	d1fa      	bne.n	400428 <read_bma150+0x40>

	if(accelDir & accelX_BM){
  400432:	f017 0f01 	tst.w	r7, #1
  400436:	d028      	beq.n	40048a <read_bma150+0xa2>
		// change lsb from 1:0 to 7:0 and msb from 9:2 to 9:8
		data[0] = (data[1] << 2) | (data[0] >> 6);
  400438:	f89d 3019 	ldrb.w	r3, [sp, #25]
  40043c:	f89d 0018 	ldrb.w	r0, [sp, #24]
  400440:	ea4f 1190 	mov.w	r1, r0, lsr #6
  400444:	ea41 0283 	orr.w	r2, r1, r3, lsl #2
  400448:	f88d 2018 	strb.w	r2, [sp, #24]
		data[1] = data[1] >> 6;
  40044c:	ea4f 1593 	mov.w	r5, r3, lsr #6
  400450:	f88d 5019 	strb.w	r5, [sp, #25]

		while(xQueueSend(sensorData, &data[0], comNO_BLOCK) == pdFAIL);
  400454:	f04f 0600 	mov.w	r6, #0
  400458:	f241 75f5 	movw	r5, #6133	; 0x17f5
  40045c:	f2c0 0540 	movt	r5, #64	; 0x40
  400460:	4620      	mov	r0, r4
  400462:	a906      	add	r1, sp, #24
  400464:	4632      	mov	r2, r6
  400466:	4633      	mov	r3, r6
  400468:	47a8      	blx	r5
  40046a:	2800      	cmp	r0, #0
  40046c:	d0f8      	beq.n	400460 <read_bma150+0x78>
		while(xQueueSend(sensorData, &data[1], comNO_BLOCK) == pdFAIL);
  40046e:	f04f 0600 	mov.w	r6, #0
  400472:	f241 75f5 	movw	r5, #6133	; 0x17f5
  400476:	f2c0 0540 	movt	r5, #64	; 0x40
  40047a:	4620      	mov	r0, r4
  40047c:	f10d 0119 	add.w	r1, sp, #25
  400480:	4632      	mov	r2, r6
  400482:	4633      	mov	r3, r6
  400484:	47a8      	blx	r5
  400486:	2800      	cmp	r0, #0
  400488:	d0f7      	beq.n	40047a <read_bma150+0x92>
	}

	if(accelDir & accelY_BM){
  40048a:	f007 0302 	and.w	r3, r7, #2
  40048e:	b2d8      	uxtb	r0, r3
  400490:	b348      	cbz	r0, 4004e6 <read_bma150+0xfe>
		// change lsb from 1:0 to 7:0 and msb from 9:2 to 9:8
		data[2] = (data[3] << 2) | (data[2] >> 6);
  400492:	f89d 101b 	ldrb.w	r1, [sp, #27]
  400496:	f89d 201a 	ldrb.w	r2, [sp, #26]
  40049a:	ea4f 1692 	mov.w	r6, r2, lsr #6
  40049e:	ea46 0581 	orr.w	r5, r6, r1, lsl #2
  4004a2:	f88d 501a 	strb.w	r5, [sp, #26]
		data[3] = data[3] >> 6;
  4004a6:	ea4f 1391 	mov.w	r3, r1, lsr #6
  4004aa:	f88d 301b 	strb.w	r3, [sp, #27]

		while(xQueueSend(sensorData, &data[2], comNO_BLOCK) == pdFAIL);
  4004ae:	f04f 0600 	mov.w	r6, #0
  4004b2:	f241 75f5 	movw	r5, #6133	; 0x17f5
  4004b6:	f2c0 0540 	movt	r5, #64	; 0x40
  4004ba:	4620      	mov	r0, r4
  4004bc:	f10d 011a 	add.w	r1, sp, #26
  4004c0:	4632      	mov	r2, r6
  4004c2:	4633      	mov	r3, r6
  4004c4:	47a8      	blx	r5
  4004c6:	2800      	cmp	r0, #0
  4004c8:	d0f7      	beq.n	4004ba <read_bma150+0xd2>
		while(xQueueSend(sensorData, &data[3], comNO_BLOCK) == pdFAIL);
  4004ca:	f04f 0600 	mov.w	r6, #0
  4004ce:	f241 75f5 	movw	r5, #6133	; 0x17f5
  4004d2:	f2c0 0540 	movt	r5, #64	; 0x40
  4004d6:	4620      	mov	r0, r4
  4004d8:	f10d 011b 	add.w	r1, sp, #27
  4004dc:	4632      	mov	r2, r6
  4004de:	4633      	mov	r3, r6
  4004e0:	47a8      	blx	r5
  4004e2:	2800      	cmp	r0, #0
  4004e4:	d0f7      	beq.n	4004d6 <read_bma150+0xee>
	}
	
	if(accelDir & accelZ_BM){
  4004e6:	f007 0704 	and.w	r7, r7, #4
  4004ea:	b2ff      	uxtb	r7, r7
  4004ec:	b347      	cbz	r7, 400540 <read_bma150+0x158>
		// change lsb from 1:0 to 7:0 and msb from 9:2 to 9:8
		data[4] = (data[5] << 2) | (data[4] >> 6);
  4004ee:	f89d 001d 	ldrb.w	r0, [sp, #29]
  4004f2:	f89d 101c 	ldrb.w	r1, [sp, #28]
  4004f6:	ea4f 1291 	mov.w	r2, r1, lsr #6
  4004fa:	ea42 0380 	orr.w	r3, r2, r0, lsl #2
  4004fe:	f88d 301c 	strb.w	r3, [sp, #28]
		data[5] = data[5] >> 6;
  400502:	ea4f 1690 	mov.w	r6, r0, lsr #6
  400506:	f88d 601d 	strb.w	r6, [sp, #29]

		while(xQueueSend(sensorData, &data[4], comNO_BLOCK) == pdFAIL);
  40050a:	f04f 0600 	mov.w	r6, #0
  40050e:	f241 75f5 	movw	r5, #6133	; 0x17f5
  400512:	f2c0 0540 	movt	r5, #64	; 0x40
  400516:	4620      	mov	r0, r4
  400518:	a907      	add	r1, sp, #28
  40051a:	4632      	mov	r2, r6
  40051c:	4633      	mov	r3, r6
  40051e:	47a8      	blx	r5
  400520:	2800      	cmp	r0, #0
  400522:	d0f8      	beq.n	400516 <read_bma150+0x12e>
		while(xQueueSend(sensorData, &data[5], comNO_BLOCK) == pdFAIL);
  400524:	f04f 0600 	mov.w	r6, #0
  400528:	f241 75f5 	movw	r5, #6133	; 0x17f5
  40052c:	f2c0 0540 	movt	r5, #64	; 0x40
  400530:	4620      	mov	r0, r4
  400532:	f10d 011d 	add.w	r1, sp, #29
  400536:	4632      	mov	r2, r6
  400538:	4633      	mov	r3, r6
  40053a:	47a8      	blx	r5
  40053c:	2800      	cmp	r0, #0
  40053e:	d0f7      	beq.n	400530 <read_bma150+0x148>
	}
  400540:	b009      	add	sp, #36	; 0x24
  400542:	bdf0      	pop	{r4, r5, r6, r7, pc}

00400544 <tc_init>:
 * This is because the setting forces TIOB to be an input even if the
 * external event trigger has not been enabled with \c TC_CMR_ENETRG, and
 * thus prevents normal operation of TIOB.
 */
void tc_init(Tc *p_tc, uint32_t ul_channel, uint32_t ul_mode)
{
  400544:	b410      	push	{r4}
	TcChannel *tc_channel;

	Assert(ul_channel <
			(sizeof(p_tc->TC_CHANNEL) / sizeof(p_tc->TC_CHANNEL[0])));
	tc_channel = p_tc->TC_CHANNEL + ul_channel;
  400546:	ea4f 1181 	mov.w	r1, r1, lsl #6
  40054a:	1843      	adds	r3, r0, r1

	/*  Disable TC clock. */
	tc_channel->TC_CCR = TC_CCR_CLKDIS;
  40054c:	f04f 0402 	mov.w	r4, #2
  400550:	5044      	str	r4, [r0, r1]

	/*  Disable interrupts. */
	tc_channel->TC_IDR = 0xFFFFFFFF;
  400552:	f04f 30ff 	mov.w	r0, #4294967295
  400556:	6298      	str	r0, [r3, #40]	; 0x28

	/*  Clear status register. */
	tc_channel->TC_SR;
  400558:	6a19      	ldr	r1, [r3, #32]

	/*  Set mode. */
	tc_channel->TC_CMR = ul_mode;
  40055a:	605a      	str	r2, [r3, #4]
}
  40055c:	bc10      	pop	{r4}
  40055e:	4770      	bx	lr

00400560 <tc_start>:
void tc_start(Tc *p_tc, uint32_t ul_channel)
{
	Assert(ul_channel <
			(sizeof(p_tc->TC_CHANNEL) / sizeof(p_tc->TC_CHANNEL[0])));

	p_tc->TC_CHANNEL[ul_channel].TC_CCR = TC_CCR_CLKEN | TC_CCR_SWTRG;
  400560:	ea4f 1181 	mov.w	r1, r1, lsl #6
  400564:	f04f 0305 	mov.w	r3, #5
  400568:	5043      	str	r3, [r0, r1]
  40056a:	4770      	bx	lr

0040056c <tc_write_rc>:
		uint32_t ul_value)
{
	Assert(ul_channel <
			(sizeof(p_tc->TC_CHANNEL) / sizeof(p_tc->TC_CHANNEL[0])));

	p_tc->TC_CHANNEL[ul_channel].TC_RC = ul_value;
  40056c:	eb00 1181 	add.w	r1, r0, r1, lsl #6
  400570:	61ca      	str	r2, [r1, #28]
  400572:	4770      	bx	lr

00400574 <tc_enable_interrupt>:
{
	TcChannel *tc_channel;

	Assert(ul_channel <
			(sizeof(p_tc->TC_CHANNEL) / sizeof(p_tc->TC_CHANNEL[0])));
	tc_channel = p_tc->TC_CHANNEL + ul_channel;
  400574:	eb00 1181 	add.w	r1, r0, r1, lsl #6
	tc_channel->TC_IER = ul_sources;
  400578:	624a      	str	r2, [r1, #36]	; 0x24
  40057a:	4770      	bx	lr

0040057c <tc_get_status>:
{
	TcChannel *tc_channel;

	Assert(ul_channel <
			(sizeof(p_tc->TC_CHANNEL) / sizeof(p_tc->TC_CHANNEL[0])));
	tc_channel = p_tc->TC_CHANNEL + ul_channel;
  40057c:	eb00 1181 	add.w	r1, r0, r1, lsl #6
	return tc_channel->TC_SR;
  400580:	6a08      	ldr	r0, [r1, #32]
}
  400582:	4770      	bx	lr

00400584 <tc_find_mck_divisor>:
 *
 * \return 1 if a proper divisor has been found, otherwise 0.
 */
uint32_t tc_find_mck_divisor(uint32_t ul_freq, uint32_t ul_mck,
		uint32_t *p_uldiv, uint32_t *p_ultcclks, uint32_t ul_boardmck)
{
  400584:	b470      	push	{r4, r5, r6}
  400586:	b087      	sub	sp, #28
	const uint32_t divisors[5] = { 2, 8, 32, 128,
  400588:	f04f 0402 	mov.w	r4, #2
  40058c:	9401      	str	r4, [sp, #4]
  40058e:	f04f 0508 	mov.w	r5, #8
  400592:	9502      	str	r5, [sp, #8]
  400594:	f04f 0420 	mov.w	r4, #32
  400598:	9403      	str	r4, [sp, #12]
  40059a:	f04f 0580 	mov.w	r5, #128	; 0x80
  40059e:	9504      	str	r5, [sp, #16]
			ul_boardmck / FREQ_SLOW_CLOCK_EXT };
  4005a0:	9c0a      	ldr	r4, [sp, #40]	; 0x28
  4005a2:	ea4f 34d4 	mov.w	r4, r4, lsr #15
 * \return 1 if a proper divisor has been found, otherwise 0.
 */
uint32_t tc_find_mck_divisor(uint32_t ul_freq, uint32_t ul_mck,
		uint32_t *p_uldiv, uint32_t *p_ultcclks, uint32_t ul_boardmck)
{
	const uint32_t divisors[5] = { 2, 8, 32, 128,
  4005a6:	9405      	str	r4, [sp, #20]
	/*  Satisfy frequency bound. */
	for (ul_index = 0;
			ul_index < (sizeof(divisors) / sizeof(divisors[0]));
			ul_index++) {
		ul_high = ul_mck / divisors[ul_index];
		ul_low  = ul_high / TC_DIV_FACTOR;
  4005a8:	ea4f 4551 	mov.w	r5, r1, lsr #17
		if (ul_freq > ul_high) {
  4005ac:	ebb0 0f51 	cmp.w	r0, r1, lsr #1
  4005b0:	d83e      	bhi.n	400630 <tc_find_mck_divisor+0xac>
			return 0;
		} else if (ul_freq >= ul_low) {
  4005b2:	42a8      	cmp	r0, r5
  4005b4:	d251      	bcs.n	40065a <tc_find_mck_divisor+0xd6>

	/*  Satisfy frequency bound. */
	for (ul_index = 0;
			ul_index < (sizeof(divisors) / sizeof(divisors[0]));
			ul_index++) {
		ul_high = ul_mck / divisors[ul_index];
  4005b6:	f04f 0608 	mov.w	r6, #8
  4005ba:	fbb1 f5f6 	udiv	r5, r1, r6
		ul_low  = ul_high / TC_DIV_FACTOR;
  4005be:	ea4f 4615 	mov.w	r6, r5, lsr #16
		if (ul_freq > ul_high) {
  4005c2:	42a8      	cmp	r0, r5
  4005c4:	d837      	bhi.n	400636 <tc_find_mck_divisor+0xb2>
			return 0;
		} else if (ul_freq >= ul_low) {
  4005c6:	42b0      	cmp	r0, r6
  4005c8:	d21e      	bcs.n	400608 <tc_find_mck_divisor+0x84>

	/*  Satisfy frequency bound. */
	for (ul_index = 0;
			ul_index < (sizeof(divisors) / sizeof(divisors[0]));
			ul_index++) {
		ul_high = ul_mck / divisors[ul_index];
  4005ca:	f04f 0520 	mov.w	r5, #32
  4005ce:	fbb1 f5f5 	udiv	r5, r1, r5
		ul_low  = ul_high / TC_DIV_FACTOR;
  4005d2:	ea4f 4615 	mov.w	r6, r5, lsr #16
		if (ul_freq > ul_high) {
  4005d6:	42a8      	cmp	r0, r5
  4005d8:	d830      	bhi.n	40063c <tc_find_mck_divisor+0xb8>
			return 0;
		} else if (ul_freq >= ul_low) {
  4005da:	42b0      	cmp	r0, r6
  4005dc:	d217      	bcs.n	40060e <tc_find_mck_divisor+0x8a>

	/*  Satisfy frequency bound. */
	for (ul_index = 0;
			ul_index < (sizeof(divisors) / sizeof(divisors[0]));
			ul_index++) {
		ul_high = ul_mck / divisors[ul_index];
  4005de:	f04f 0680 	mov.w	r6, #128	; 0x80
  4005e2:	fbb1 f5f6 	udiv	r5, r1, r6
		ul_low  = ul_high / TC_DIV_FACTOR;
  4005e6:	ea4f 4615 	mov.w	r6, r5, lsr #16
		if (ul_freq > ul_high) {
  4005ea:	42a8      	cmp	r0, r5
  4005ec:	d829      	bhi.n	400642 <tc_find_mck_divisor+0xbe>
			return 0;
		} else if (ul_freq >= ul_low) {
  4005ee:	42b0      	cmp	r0, r6
  4005f0:	d210      	bcs.n	400614 <tc_find_mck_divisor+0x90>

	/*  Satisfy frequency bound. */
	for (ul_index = 0;
			ul_index < (sizeof(divisors) / sizeof(divisors[0]));
			ul_index++) {
		ul_high = ul_mck / divisors[ul_index];
  4005f2:	fbb1 f1f4 	udiv	r1, r1, r4
		ul_low  = ul_high / TC_DIV_FACTOR;
  4005f6:	ea4f 4411 	mov.w	r4, r1, lsr #16
		if (ul_freq > ul_high) {
  4005fa:	4281      	cmp	r1, r0
  4005fc:	d324      	bcc.n	400648 <tc_find_mck_divisor+0xc4>
			return 0;
		} else if (ul_freq >= ul_low) {
  4005fe:	4284      	cmp	r4, r0
  400600:	bf98      	it	ls
  400602:	2104      	movls	r1, #4
  400604:	d92b      	bls.n	40065e <tc_find_mck_divisor+0xda>
  400606:	e022      	b.n	40064e <tc_find_mck_divisor+0xca>
	uint32_t ul_high, ul_low;

	/*  Satisfy frequency bound. */
	for (ul_index = 0;
			ul_index < (sizeof(divisors) / sizeof(divisors[0]));
			ul_index++) {
  400608:	f04f 0101 	mov.w	r1, #1
  40060c:	e027      	b.n	40065e <tc_find_mck_divisor+0xda>
  40060e:	f04f 0102 	mov.w	r1, #2
  400612:	e024      	b.n	40065e <tc_find_mck_divisor+0xda>
  400614:	f04f 0103 	mov.w	r1, #3
  400618:	e021      	b.n	40065e <tc_find_mck_divisor+0xda>
		return 0;
	}

	/*  Store results. */
	if (p_uldiv) {
		*p_uldiv = divisors[ul_index];
  40061a:	ac06      	add	r4, sp, #24
  40061c:	eb04 0081 	add.w	r0, r4, r1, lsl #2
  400620:	f850 0c14 	ldr.w	r0, [r0, #-20]
  400624:	6010      	str	r0, [r2, #0]
	}

	if (p_ultcclks) {
  400626:	b1ab      	cbz	r3, 400654 <tc_find_mck_divisor+0xd0>
		*p_ultcclks = ul_index;
  400628:	6019      	str	r1, [r3, #0]
	}

	return 1;
  40062a:	f04f 0001 	mov.w	r0, #1
  40062e:	e019      	b.n	400664 <tc_find_mck_divisor+0xe0>
			ul_index < (sizeof(divisors) / sizeof(divisors[0]));
			ul_index++) {
		ul_high = ul_mck / divisors[ul_index];
		ul_low  = ul_high / TC_DIV_FACTOR;
		if (ul_freq > ul_high) {
			return 0;
  400630:	f04f 0000 	mov.w	r0, #0
  400634:	e016      	b.n	400664 <tc_find_mck_divisor+0xe0>
  400636:	f04f 0000 	mov.w	r0, #0
  40063a:	e013      	b.n	400664 <tc_find_mck_divisor+0xe0>
  40063c:	f04f 0000 	mov.w	r0, #0
  400640:	e010      	b.n	400664 <tc_find_mck_divisor+0xe0>
  400642:	f04f 0000 	mov.w	r0, #0
  400646:	e00d      	b.n	400664 <tc_find_mck_divisor+0xe0>
  400648:	f04f 0000 	mov.w	r0, #0
  40064c:	e00a      	b.n	400664 <tc_find_mck_divisor+0xe0>
		} else if (ul_freq >= ul_low) {
			break;
		}
	}
	if (ul_index >= (sizeof(divisors) / sizeof(divisors[0]))) {
		return 0;
  40064e:	f04f 0000 	mov.w	r0, #0
  400652:	e007      	b.n	400664 <tc_find_mck_divisor+0xe0>

	if (p_ultcclks) {
		*p_ultcclks = ul_index;
	}

	return 1;
  400654:	f04f 0001 	mov.w	r0, #1
  400658:	e004      	b.n	400664 <tc_find_mck_divisor+0xe0>
			ul_boardmck / FREQ_SLOW_CLOCK_EXT };
	uint32_t ul_index;
	uint32_t ul_high, ul_low;

	/*  Satisfy frequency bound. */
	for (ul_index = 0;
  40065a:	f04f 0100 	mov.w	r1, #0
	if (ul_index >= (sizeof(divisors) / sizeof(divisors[0]))) {
		return 0;
	}

	/*  Store results. */
	if (p_uldiv) {
  40065e:	2a00      	cmp	r2, #0
  400660:	d1db      	bne.n	40061a <tc_find_mck_divisor+0x96>
  400662:	e7e0      	b.n	400626 <tc_find_mck_divisor+0xa2>
	if (p_ultcclks) {
		*p_ultcclks = ul_index;
	}

	return 1;
}
  400664:	b007      	add	sp, #28
  400666:	bc70      	pop	{r4, r5, r6}
  400668:	4770      	bx	lr
  40066a:	bf00      	nop

0040066c <twi_mk_addr>:
 */
static uint32_t twi_mk_addr(const uint8_t *addr, int len)
{
	uint32_t val;

	if (len == 0)
  40066c:	460a      	mov	r2, r1
  40066e:	b159      	cbz	r1, 400688 <twi_mk_addr+0x1c>
		return 0;

	val = addr[0];
  400670:	7803      	ldrb	r3, [r0, #0]
	if (len > 1) {
  400672:	2901      	cmp	r1, #1
		val <<= 8;
		val |= addr[1];
  400674:	bfc4      	itt	gt
  400676:	7841      	ldrbgt	r1, [r0, #1]
  400678:	ea41 2303 	orrgt.w	r3, r1, r3, lsl #8
	}
	if (len > 2) {
  40067c:	2a02      	cmp	r2, #2
  40067e:	dd05      	ble.n	40068c <twi_mk_addr+0x20>
		val <<= 8;
		val |= addr[2];
  400680:	7880      	ldrb	r0, [r0, #2]
  400682:	ea40 2303 	orr.w	r3, r0, r3, lsl #8
  400686:	e001      	b.n	40068c <twi_mk_addr+0x20>
static uint32_t twi_mk_addr(const uint8_t *addr, int len)
{
	uint32_t val;

	if (len == 0)
		return 0;
  400688:	f04f 0300 	mov.w	r3, #0
	if (len > 2) {
		val <<= 8;
		val |= addr[2];
	}
	return val;
}
  40068c:	4618      	mov	r0, r3
  40068e:	4770      	bx	lr

00400690 <twi_enable_master_mode>:
 * \param p_twi Pointer to a TWI instance.
 */
void twi_enable_master_mode(Twi *p_twi)
{
	/* Set Master Disable bit and Slave Disable bit */
	p_twi->TWI_CR = TWI_CR_MSDIS;
  400690:	f04f 0308 	mov.w	r3, #8
  400694:	6003      	str	r3, [r0, #0]
	p_twi->TWI_CR = TWI_CR_SVDIS;
  400696:	f04f 0120 	mov.w	r1, #32
  40069a:	6001      	str	r1, [r0, #0]

	/* Set Master Enable bit */
	p_twi->TWI_CR = TWI_CR_MSEN;
  40069c:	f04f 0204 	mov.w	r2, #4
  4006a0:	6002      	str	r2, [r0, #0]
  4006a2:	4770      	bx	lr

004006a4 <twi_set_speed>:
uint32_t twi_set_speed(Twi *p_twi, uint32_t ul_speed, uint32_t ul_mck)
{
	uint32_t ckdiv = 0;
	uint32_t c_lh_div;

	if (ul_speed > I2C_FAST_MODE_SPEED) {
  4006a4:	f44f 53d4 	mov.w	r3, #6784	; 0x1a80
  4006a8:	f2c0 0306 	movt	r3, #6
  4006ac:	4299      	cmp	r1, r3
  4006ae:	d845      	bhi.n	40073c <twi_set_speed+0x98>
		return FAIL;
	}

	c_lh_div = ul_mck / (ul_speed * TWI_CLK_DIVIDER) - TWI_CLK_CALC_ARGU;
  4006b0:	ea4f 0141 	mov.w	r1, r1, lsl #1
  4006b4:	fbb2 f2f1 	udiv	r2, r2, r1
  4006b8:	f1a2 0204 	sub.w	r2, r2, #4

	/* cldiv must fit in 8 bits, ckdiv must fit in 3 bits */
	while ((c_lh_div > TWI_CLK_DIV_MAX) && (ckdiv < TWI_CLK_DIV_MIN)) {
  4006bc:	2aff      	cmp	r2, #255	; 0xff
  4006be:	d92e      	bls.n	40071e <twi_set_speed+0x7a>
		/* Increase clock divider */
		ckdiv++;
		/* Divide cldiv value */
		c_lh_div /= TWI_CLK_DIVIDER;
  4006c0:	ea4f 0252 	mov.w	r2, r2, lsr #1
	}

	c_lh_div = ul_mck / (ul_speed * TWI_CLK_DIVIDER) - TWI_CLK_CALC_ARGU;

	/* cldiv must fit in 8 bits, ckdiv must fit in 3 bits */
	while ((c_lh_div > TWI_CLK_DIV_MAX) && (ckdiv < TWI_CLK_DIV_MIN)) {
  4006c4:	2aff      	cmp	r2, #255	; 0xff
  4006c6:	d918      	bls.n	4006fa <twi_set_speed+0x56>
		/* Increase clock divider */
		ckdiv++;
		/* Divide cldiv value */
		c_lh_div /= TWI_CLK_DIVIDER;
  4006c8:	ea4f 0252 	mov.w	r2, r2, lsr #1
	}

	c_lh_div = ul_mck / (ul_speed * TWI_CLK_DIVIDER) - TWI_CLK_CALC_ARGU;

	/* cldiv must fit in 8 bits, ckdiv must fit in 3 bits */
	while ((c_lh_div > TWI_CLK_DIV_MAX) && (ckdiv < TWI_CLK_DIV_MIN)) {
  4006cc:	2aff      	cmp	r2, #255	; 0xff
  4006ce:	d917      	bls.n	400700 <twi_set_speed+0x5c>
		/* Increase clock divider */
		ckdiv++;
		/* Divide cldiv value */
		c_lh_div /= TWI_CLK_DIVIDER;
  4006d0:	ea4f 0252 	mov.w	r2, r2, lsr #1
	}

	c_lh_div = ul_mck / (ul_speed * TWI_CLK_DIVIDER) - TWI_CLK_CALC_ARGU;

	/* cldiv must fit in 8 bits, ckdiv must fit in 3 bits */
	while ((c_lh_div > TWI_CLK_DIV_MAX) && (ckdiv < TWI_CLK_DIV_MIN)) {
  4006d4:	2aff      	cmp	r2, #255	; 0xff
  4006d6:	d916      	bls.n	400706 <twi_set_speed+0x62>
		/* Increase clock divider */
		ckdiv++;
		/* Divide cldiv value */
		c_lh_div /= TWI_CLK_DIVIDER;
  4006d8:	ea4f 0252 	mov.w	r2, r2, lsr #1
	}

	c_lh_div = ul_mck / (ul_speed * TWI_CLK_DIVIDER) - TWI_CLK_CALC_ARGU;

	/* cldiv must fit in 8 bits, ckdiv must fit in 3 bits */
	while ((c_lh_div > TWI_CLK_DIV_MAX) && (ckdiv < TWI_CLK_DIV_MIN)) {
  4006dc:	2aff      	cmp	r2, #255	; 0xff
  4006de:	d915      	bls.n	40070c <twi_set_speed+0x68>
		/* Increase clock divider */
		ckdiv++;
		/* Divide cldiv value */
		c_lh_div /= TWI_CLK_DIVIDER;
  4006e0:	ea4f 0252 	mov.w	r2, r2, lsr #1
	}

	c_lh_div = ul_mck / (ul_speed * TWI_CLK_DIVIDER) - TWI_CLK_CALC_ARGU;

	/* cldiv must fit in 8 bits, ckdiv must fit in 3 bits */
	while ((c_lh_div > TWI_CLK_DIV_MAX) && (ckdiv < TWI_CLK_DIV_MIN)) {
  4006e4:	2aff      	cmp	r2, #255	; 0xff
  4006e6:	d914      	bls.n	400712 <twi_set_speed+0x6e>
		/* Increase clock divider */
		ckdiv++;
		/* Divide cldiv value */
		c_lh_div /= TWI_CLK_DIVIDER;
  4006e8:	ea4f 0252 	mov.w	r2, r2, lsr #1
	}

	c_lh_div = ul_mck / (ul_speed * TWI_CLK_DIVIDER) - TWI_CLK_CALC_ARGU;

	/* cldiv must fit in 8 bits, ckdiv must fit in 3 bits */
	while ((c_lh_div > TWI_CLK_DIV_MAX) && (ckdiv < TWI_CLK_DIV_MIN)) {
  4006ec:	2aff      	cmp	r2, #255	; 0xff
  4006ee:	d913      	bls.n	400718 <twi_set_speed+0x74>
		/* Increase clock divider */
		ckdiv++;
		/* Divide cldiv value */
		c_lh_div /= TWI_CLK_DIVIDER;
  4006f0:	ea4f 0252 	mov.w	r2, r2, lsr #1
	c_lh_div = ul_mck / (ul_speed * TWI_CLK_DIVIDER) - TWI_CLK_CALC_ARGU;

	/* cldiv must fit in 8 bits, ckdiv must fit in 3 bits */
	while ((c_lh_div > TWI_CLK_DIV_MAX) && (ckdiv < TWI_CLK_DIV_MIN)) {
		/* Increase clock divider */
		ckdiv++;
  4006f4:	f04f 0307 	mov.w	r3, #7
  4006f8:	e013      	b.n	400722 <twi_set_speed+0x7e>
  4006fa:	f04f 0301 	mov.w	r3, #1
  4006fe:	e010      	b.n	400722 <twi_set_speed+0x7e>
  400700:	f04f 0302 	mov.w	r3, #2
  400704:	e00d      	b.n	400722 <twi_set_speed+0x7e>
  400706:	f04f 0303 	mov.w	r3, #3
  40070a:	e00a      	b.n	400722 <twi_set_speed+0x7e>
  40070c:	f04f 0304 	mov.w	r3, #4
  400710:	e007      	b.n	400722 <twi_set_speed+0x7e>
  400712:	f04f 0305 	mov.w	r3, #5
  400716:	e004      	b.n	400722 <twi_set_speed+0x7e>
  400718:	f04f 0306 	mov.w	r3, #6
  40071c:	e001      	b.n	400722 <twi_set_speed+0x7e>
 * \retval PASS New speed setting is accepted.
 * \retval FAIL New speed setting is rejected.
 */
uint32_t twi_set_speed(Twi *p_twi, uint32_t ul_speed, uint32_t ul_mck)
{
	uint32_t ckdiv = 0;
  40071e:	f04f 0300 	mov.w	r3, #0
		c_lh_div /= TWI_CLK_DIVIDER;
	}

	/* set clock waveform generator register */
	p_twi->TWI_CWGR =
			TWI_CWGR_CLDIV(c_lh_div) | TWI_CWGR_CHDIV(c_lh_div) |
  400722:	ea4f 6102 	mov.w	r1, r2, lsl #24
			TWI_CWGR_CKDIV(ckdiv);
  400726:	ea4f 4303 	mov.w	r3, r3, lsl #16
		c_lh_div /= TWI_CLK_DIVIDER;
	}

	/* set clock waveform generator register */
	p_twi->TWI_CWGR =
			TWI_CWGR_CLDIV(c_lh_div) | TWI_CWGR_CHDIV(c_lh_div) |
  40072a:	ea43 4111 	orr.w	r1, r3, r1, lsr #16
  40072e:	b2d2      	uxtb	r2, r2
  400730:	ea41 0302 	orr.w	r3, r1, r2
		/* Divide cldiv value */
		c_lh_div /= TWI_CLK_DIVIDER;
	}

	/* set clock waveform generator register */
	p_twi->TWI_CWGR =
  400734:	6103      	str	r3, [r0, #16]
			TWI_CWGR_CLDIV(c_lh_div) | TWI_CWGR_CHDIV(c_lh_div) |
			TWI_CWGR_CKDIV(ckdiv);

	return PASS;
  400736:	f04f 0000 	mov.w	r0, #0
  40073a:	4770      	bx	lr
{
	uint32_t ckdiv = 0;
	uint32_t c_lh_div;

	if (ul_speed > I2C_FAST_MODE_SPEED) {
		return FAIL;
  40073c:	f04f 0001 	mov.w	r0, #1
	p_twi->TWI_CWGR =
			TWI_CWGR_CLDIV(c_lh_div) | TWI_CWGR_CHDIV(c_lh_div) |
			TWI_CWGR_CKDIV(ckdiv);

	return PASS;
}
  400740:	4770      	bx	lr
  400742:	bf00      	nop

00400744 <twi_master_read>:
 * \param p_packet Packet information and data (see \ref twi_packet_t).
 *
 * \return TWI_SUCCESS if all bytes were read, error code otherwise.
 */
uint32_t twi_master_read(Twi *p_twi, twi_packet_t *p_packet)
{
  400744:	b570      	push	{r4, r5, r6, lr}
  400746:	4605      	mov	r5, r0
	uint32_t status;
	uint32_t cnt = p_packet->length;
  400748:	68cc      	ldr	r4, [r1, #12]
	uint8_t *buffer = p_packet->buffer;
  40074a:	688e      	ldr	r6, [r1, #8]
	uint8_t stop_sent = 0;
	
	/* Check argument */
	if (cnt == 0) {
  40074c:	2c00      	cmp	r4, #0
  40074e:	d047      	beq.n	4007e0 <twi_master_read+0x9c>
		return TWI_INVALID_ARGUMENT;
	}

	/* Set read mode, slave address and 3 internal address byte lengths */
	p_twi->TWI_MMR = 0;
  400750:	f04f 0300 	mov.w	r3, #0
  400754:	6043      	str	r3, [r0, #4]
	p_twi->TWI_MMR = TWI_MMR_MREAD | TWI_MMR_DADR(p_packet->chip) |
			((p_packet->addr_length << TWI_MMR_IADRSZ_Pos) &
  400756:	684a      	ldr	r2, [r1, #4]
  400758:	ea4f 2002 	mov.w	r0, r2, lsl #8
  40075c:	f400 7240 	and.w	r2, r0, #768	; 0x300
		return TWI_INVALID_ARGUMENT;
	}

	/* Set read mode, slave address and 3 internal address byte lengths */
	p_twi->TWI_MMR = 0;
	p_twi->TWI_MMR = TWI_MMR_MREAD | TWI_MMR_DADR(p_packet->chip) |
  400760:	f442 5280 	orr.w	r2, r2, #4096	; 0x1000
  400764:	7c08      	ldrb	r0, [r1, #16]
  400766:	ea4f 4000 	mov.w	r0, r0, lsl #16
  40076a:	f400 00fe 	and.w	r0, r0, #8323072	; 0x7f0000
  40076e:	4302      	orrs	r2, r0
  400770:	606a      	str	r2, [r5, #4]
			((p_packet->addr_length << TWI_MMR_IADRSZ_Pos) &
			TWI_MMR_IADRSZ_Msk);

	/* Set internal address for remote chip */
	p_twi->TWI_IADR = 0;
  400772:	60eb      	str	r3, [r5, #12]
	p_twi->TWI_IADR = twi_mk_addr(p_packet->addr, p_packet->addr_length);
  400774:	4608      	mov	r0, r1
  400776:	6849      	ldr	r1, [r1, #4]
  400778:	f240 636d 	movw	r3, #1645	; 0x66d
  40077c:	f2c0 0340 	movt	r3, #64	; 0x40
  400780:	4798      	blx	r3
  400782:	60e8      	str	r0, [r5, #12]

	/* Send a START condition */
	if (cnt == 1) {
  400784:	2c01      	cmp	r4, #1
  400786:	d105      	bne.n	400794 <twi_master_read+0x50>
		p_twi->TWI_CR = TWI_CR_START | TWI_CR_STOP;
  400788:	f04f 0003 	mov.w	r0, #3
  40078c:	6028      	str	r0, [r5, #0]
		stop_sent = 1;
  40078e:	f04f 0201 	mov.w	r2, #1
  400792:	e02e      	b.n	4007f2 <twi_master_read+0xae>
	} else {
		p_twi->TWI_CR = TWI_CR_START;
  400794:	f04f 0101 	mov.w	r1, #1
  400798:	6029      	str	r1, [r5, #0]
		stop_sent = 0;
  40079a:	f04f 0200 	mov.w	r2, #0
  40079e:	e028      	b.n	4007f2 <twi_master_read+0xae>
	}

	while (cnt > 0) {
		status = p_twi->TWI_SR;
  4007a0:	6a2b      	ldr	r3, [r5, #32]
		if (status & TWI_SR_NACK) {
  4007a2:	f413 7f80 	tst.w	r3, #256	; 0x100
  4007a6:	d004      	beq.n	4007b2 <twi_master_read+0x6e>
  4007a8:	e01d      	b.n	4007e6 <twi_master_read+0xa2>
			return TWI_RECEIVE_NACK;
		}

		/* Last byte ? */
		if (cnt == 1  && !stop_sent) {
			p_twi->TWI_CR = TWI_CR_STOP;
  4007aa:	f04f 0002 	mov.w	r0, #2
			stop_sent = 1;
  4007ae:	f04f 0101 	mov.w	r1, #1
		if (status & TWI_SR_NACK) {
			return TWI_RECEIVE_NACK;
		}

		/* Last byte ? */
		if (cnt == 1  && !stop_sent) {
  4007b2:	2c01      	cmp	r4, #1
  4007b4:	d102      	bne.n	4007bc <twi_master_read+0x78>
  4007b6:	b90a      	cbnz	r2, 4007bc <twi_master_read+0x78>
			p_twi->TWI_CR = TWI_CR_STOP;
  4007b8:	6028      	str	r0, [r5, #0]
			stop_sent = 1;
  4007ba:	460a      	mov	r2, r1
		}

		if (!(status & TWI_SR_RXRDY)) {
  4007bc:	f013 0f02 	tst.w	r3, #2
  4007c0:	d004      	beq.n	4007cc <twi_master_read+0x88>
			continue;
		}
		*buffer++ = p_twi->TWI_RHR;
  4007c2:	6b2b      	ldr	r3, [r5, #48]	; 0x30
  4007c4:	f806 3b01 	strb.w	r3, [r6], #1

		cnt--;
  4007c8:	f104 34ff 	add.w	r4, r4, #4294967295
	} else {
		p_twi->TWI_CR = TWI_CR_START;
		stop_sent = 0;
	}

	while (cnt > 0) {
  4007cc:	2c00      	cmp	r4, #0
  4007ce:	d1e7      	bne.n	4007a0 <twi_master_read+0x5c>
		*buffer++ = p_twi->TWI_RHR;

		cnt--;
	}

	while (!(p_twi->TWI_SR & TWI_SR_TXCOMP)) {
  4007d0:	6a2a      	ldr	r2, [r5, #32]
  4007d2:	f012 0f01 	tst.w	r2, #1
  4007d6:	d0fb      	beq.n	4007d0 <twi_master_read+0x8c>
	}

	p_twi->TWI_SR;
  4007d8:	6a2b      	ldr	r3, [r5, #32]

	return TWI_SUCCESS;
  4007da:	f04f 0000 	mov.w	r0, #0
  4007de:	bd70      	pop	{r4, r5, r6, pc}
	uint8_t *buffer = p_packet->buffer;
	uint8_t stop_sent = 0;
	
	/* Check argument */
	if (cnt == 0) {
		return TWI_INVALID_ARGUMENT;
  4007e0:	f04f 0001 	mov.w	r0, #1
  4007e4:	bd70      	pop	{r4, r5, r6, pc}
	}

	while (cnt > 0) {
		status = p_twi->TWI_SR;
		if (status & TWI_SR_NACK) {
			return TWI_RECEIVE_NACK;
  4007e6:	f04f 0005 	mov.w	r0, #5
  4007ea:	bd70      	pop	{r4, r5, r6, pc}
  4007ec:	f04f 0005 	mov.w	r0, #5
  4007f0:	bd70      	pop	{r4, r5, r6, pc}
		p_twi->TWI_CR = TWI_CR_START;
		stop_sent = 0;
	}

	while (cnt > 0) {
		status = p_twi->TWI_SR;
  4007f2:	6a2b      	ldr	r3, [r5, #32]
		if (status & TWI_SR_NACK) {
  4007f4:	f413 7f80 	tst.w	r3, #256	; 0x100
  4007f8:	d0d7      	beq.n	4007aa <twi_master_read+0x66>
  4007fa:	e7f7      	b.n	4007ec <twi_master_read+0xa8>

004007fc <twi_master_write>:
 * \param p_packet Packet information and data (see \ref twi_packet_t).
 *
 * \return TWI_SUCCESS if all bytes were written, error code otherwise.
 */
uint32_t twi_master_write(Twi *p_twi, twi_packet_t *p_packet)
{
  4007fc:	b570      	push	{r4, r5, r6, lr}
  4007fe:	4604      	mov	r4, r0
	uint32_t status;
	uint32_t cnt = p_packet->length;
  400800:	68cd      	ldr	r5, [r1, #12]
	uint8_t *buffer = p_packet->buffer;
  400802:	688e      	ldr	r6, [r1, #8]

	/* Check argument */
	if (cnt == 0) {
  400804:	2d00      	cmp	r5, #0
  400806:	d03d      	beq.n	400884 <twi_master_write+0x88>
		return TWI_INVALID_ARGUMENT;
	}

	/* Set write mode, slave address and 3 internal address byte lengths */
	p_twi->TWI_MMR = 0;
  400808:	f04f 0300 	mov.w	r3, #0
  40080c:	6043      	str	r3, [r0, #4]
	p_twi->TWI_MMR = TWI_MMR_DADR(p_packet->chip) |
  40080e:	7c08      	ldrb	r0, [r1, #16]
  400810:	ea4f 4200 	mov.w	r2, r0, lsl #16
  400814:	f402 00fe 	and.w	r0, r2, #8323072	; 0x7f0000
			((p_packet->addr_length << TWI_MMR_IADRSZ_Pos) &
  400818:	684a      	ldr	r2, [r1, #4]
  40081a:	ea4f 2202 	mov.w	r2, r2, lsl #8
  40081e:	f402 7240 	and.w	r2, r2, #768	; 0x300
		return TWI_INVALID_ARGUMENT;
	}

	/* Set write mode, slave address and 3 internal address byte lengths */
	p_twi->TWI_MMR = 0;
	p_twi->TWI_MMR = TWI_MMR_DADR(p_packet->chip) |
  400822:	4310      	orrs	r0, r2
  400824:	6060      	str	r0, [r4, #4]
			((p_packet->addr_length << TWI_MMR_IADRSZ_Pos) &
			TWI_MMR_IADRSZ_Msk);

	/* Set internal address for remote chip */
	p_twi->TWI_IADR = 0;
  400826:	60e3      	str	r3, [r4, #12]
	p_twi->TWI_IADR = twi_mk_addr(p_packet->addr, p_packet->addr_length);
  400828:	4608      	mov	r0, r1
  40082a:	6849      	ldr	r1, [r1, #4]
  40082c:	f240 636d 	movw	r3, #1645	; 0x66d
  400830:	f2c0 0340 	movt	r3, #64	; 0x40
  400834:	4798      	blx	r3
  400836:	60e0      	str	r0, [r4, #12]
  400838:	e00b      	b.n	400852 <twi_master_write+0x56>

	/* Send all bytes */
	while (cnt > 0) {
		status = p_twi->TWI_SR;
  40083a:	6a22      	ldr	r2, [r4, #32]
		if (status & TWI_SR_NACK) {
  40083c:	f412 7f80 	tst.w	r2, #256	; 0x100
  400840:	d123      	bne.n	40088a <twi_master_write+0x8e>
			return TWI_RECEIVE_NACK;
		}

		if (!(status & TWI_SR_TXRDY)) {
  400842:	f012 0f04 	tst.w	r2, #4
  400846:	d0f8      	beq.n	40083a <twi_master_write+0x3e>
			continue;
		}
		p_twi->TWI_THR = *buffer++;
  400848:	f816 0b01 	ldrb.w	r0, [r6], #1
  40084c:	6360      	str	r0, [r4, #52]	; 0x34
	/* Set internal address for remote chip */
	p_twi->TWI_IADR = 0;
	p_twi->TWI_IADR = twi_mk_addr(p_packet->addr, p_packet->addr_length);

	/* Send all bytes */
	while (cnt > 0) {
  40084e:	3d01      	subs	r5, #1
  400850:	d007      	beq.n	400862 <twi_master_write+0x66>
		status = p_twi->TWI_SR;
  400852:	6a21      	ldr	r1, [r4, #32]
		if (status & TWI_SR_NACK) {
  400854:	f411 7f80 	tst.w	r1, #256	; 0x100
  400858:	d11a      	bne.n	400890 <twi_master_write+0x94>
			return TWI_RECEIVE_NACK;
		}

		if (!(status & TWI_SR_TXRDY)) {
  40085a:	f011 0f04 	tst.w	r1, #4
  40085e:	d0ec      	beq.n	40083a <twi_master_write+0x3e>
  400860:	e7f2      	b.n	400848 <twi_master_write+0x4c>

		cnt--;
	}

	while (1) {
		status = p_twi->TWI_SR;
  400862:	6a23      	ldr	r3, [r4, #32]
		if (status & TWI_SR_NACK) {
  400864:	f413 7f80 	tst.w	r3, #256	; 0x100
  400868:	d115      	bne.n	400896 <twi_master_write+0x9a>
			return TWI_RECEIVE_NACK;
		}

		if (status & TWI_SR_TXRDY) {
  40086a:	f013 0f04 	tst.w	r3, #4
  40086e:	d0f8      	beq.n	400862 <twi_master_write+0x66>
			break;
		}
	}

	p_twi->TWI_CR = TWI_CR_STOP;
  400870:	f04f 0102 	mov.w	r1, #2
  400874:	6021      	str	r1, [r4, #0]

	while (!(p_twi->TWI_SR & TWI_SR_TXCOMP)) {
  400876:	6a22      	ldr	r2, [r4, #32]
  400878:	f012 0f01 	tst.w	r2, #1
  40087c:	d0fb      	beq.n	400876 <twi_master_write+0x7a>
	}

	return TWI_SUCCESS;
  40087e:	f04f 0000 	mov.w	r0, #0
  400882:	bd70      	pop	{r4, r5, r6, pc}
	uint32_t cnt = p_packet->length;
	uint8_t *buffer = p_packet->buffer;

	/* Check argument */
	if (cnt == 0) {
		return TWI_INVALID_ARGUMENT;
  400884:	f04f 0001 	mov.w	r0, #1
  400888:	bd70      	pop	{r4, r5, r6, pc}

	/* Send all bytes */
	while (cnt > 0) {
		status = p_twi->TWI_SR;
		if (status & TWI_SR_NACK) {
			return TWI_RECEIVE_NACK;
  40088a:	f04f 0005 	mov.w	r0, #5
  40088e:	bd70      	pop	{r4, r5, r6, pc}
  400890:	f04f 0005 	mov.w	r0, #5
  400894:	bd70      	pop	{r4, r5, r6, pc}
	}

	while (1) {
		status = p_twi->TWI_SR;
		if (status & TWI_SR_NACK) {
			return TWI_RECEIVE_NACK;
  400896:	f04f 0005 	mov.w	r0, #5

	while (!(p_twi->TWI_SR & TWI_SR_TXCOMP)) {
	}

	return TWI_SUCCESS;
}
  40089a:	bd70      	pop	{r4, r5, r6, pc}

0040089c <twi_reset>:
 * \param p_twi Pointer to a TWI instance.
 */
void twi_reset(Twi *p_twi)
{
	/* Set SWRST bit to reset TWI peripheral */
	p_twi->TWI_CR = TWI_CR_SWRST;
  40089c:	f04f 0380 	mov.w	r3, #128	; 0x80
  4008a0:	6003      	str	r3, [r0, #0]
	p_twi->TWI_RHR;
  4008a2:	6b03      	ldr	r3, [r0, #48]	; 0x30
  4008a4:	4770      	bx	lr
  4008a6:	bf00      	nop

004008a8 <twi_master_init>:
 * \param p_opt Options for initializing the TWI module (see \ref twi_options_t).
 *
 * \return TWI_SUCCESS if initialization is complete, error code otherwise.
 */
uint32_t twi_master_init(Twi *p_twi, const twi_options_t *p_opt)
{
  4008a8:	b538      	push	{r3, r4, r5, lr}
  4008aa:	4604      	mov	r4, r0
  4008ac:	460d      	mov	r5, r1
	uint32_t status = TWI_SUCCESS;

	/* Disable TWI interrupts */
	p_twi->TWI_IDR = ~0UL;
  4008ae:	f04f 33ff 	mov.w	r3, #4294967295
  4008b2:	6283      	str	r3, [r0, #40]	; 0x28

	/* Dummy read in status register */
	p_twi->TWI_SR;
  4008b4:	6a03      	ldr	r3, [r0, #32]

	/* Reset TWI peripheral */
	twi_reset(p_twi);
  4008b6:	f640 019d 	movw	r1, #2205	; 0x89d
  4008ba:	f2c0 0140 	movt	r1, #64	; 0x40
  4008be:	4788      	blx	r1

	twi_enable_master_mode(p_twi);
  4008c0:	4620      	mov	r0, r4
  4008c2:	f240 6291 	movw	r2, #1681	; 0x691
  4008c6:	f2c0 0240 	movt	r2, #64	; 0x40
  4008ca:	4790      	blx	r2

	/* Select the speed */
	if (twi_set_speed(p_twi, p_opt->speed, p_opt->master_clk) == FAIL) {
  4008cc:	4620      	mov	r0, r4
  4008ce:	6869      	ldr	r1, [r5, #4]
  4008d0:	682a      	ldr	r2, [r5, #0]
  4008d2:	f240 63a5 	movw	r3, #1701	; 0x6a5
  4008d6:	f2c0 0340 	movt	r3, #64	; 0x40
  4008da:	4798      	blx	r3
  4008dc:	2801      	cmp	r0, #1
  4008de:	bf14      	ite	ne
  4008e0:	2000      	movne	r0, #0
  4008e2:	2001      	moveq	r0, #1
		/* The desired speed setting is rejected */
		status = TWI_INVALID_ARGUMENT;
	}

	if (p_opt->smbus == 1) {
  4008e4:	7a69      	ldrb	r1, [r5, #9]
  4008e6:	2901      	cmp	r1, #1
		p_twi->TWI_CR = TWI_CR_QUICK;
  4008e8:	bf04      	itt	eq
  4008ea:	2140      	moveq	r1, #64	; 0x40
  4008ec:	6021      	streq	r1, [r4, #0]
	}

	return status;
}
  4008ee:	bd38      	pop	{r3, r4, r5, pc}

004008f0 <uart_init>:
 *
 * \retval 0 Success.
 * \retval 1 Bad baud rate generator value.
 */
uint32_t uart_init(Uart *p_uart, const sam_uart_opt_t *p_uart_opt)
{
  4008f0:	b410      	push	{r4}
	uint32_t cd = 0;

	/* Reset and disable receiver & transmitter */
	p_uart->UART_CR = UART_CR_RSTRX | UART_CR_RSTTX
  4008f2:	f04f 03ac 	mov.w	r3, #172	; 0xac
  4008f6:	6003      	str	r3, [r0, #0]
			| UART_CR_RXDIS | UART_CR_TXDIS;

	/* Check and configure baudrate */
	/* Asynchronous, no oversampling */
	cd = (p_uart_opt->ul_mck / p_uart_opt->ul_baudrate) / UART_MCK_DIV;
  4008f8:	680a      	ldr	r2, [r1, #0]
  4008fa:	684c      	ldr	r4, [r1, #4]
  4008fc:	fbb2 f3f4 	udiv	r3, r2, r4
  400900:	ea4f 1313 	mov.w	r3, r3, lsr #4
	if (cd < UART_MCK_DIV_MIN_FACTOR || cd > UART_MCK_DIV_MAX_FACTOR)
  400904:	f103 34ff 	add.w	r4, r3, #4294967295
  400908:	f64f 72fe 	movw	r2, #65534	; 0xfffe
  40090c:	4294      	cmp	r4, r2
  40090e:	d80c      	bhi.n	40092a <uart_init+0x3a>
		return 1;

	p_uart->UART_BRGR = cd;
  400910:	6203      	str	r3, [r0, #32]
	/* Configure mode */
	p_uart->UART_MR = p_uart_opt->ul_mode;
  400912:	6889      	ldr	r1, [r1, #8]
  400914:	6041      	str	r1, [r0, #4]

	/* Disable PDC channel */
	p_uart->UART_PTCR = UART_PTCR_RXTDIS | UART_PTCR_TXTDIS;
  400916:	f240 2302 	movw	r3, #514	; 0x202
  40091a:	f8c0 3120 	str.w	r3, [r0, #288]	; 0x120

	/* Enable receiver and transmitter */
	p_uart->UART_CR = UART_CR_RXEN | UART_CR_TXEN;
  40091e:	f04f 0250 	mov.w	r2, #80	; 0x50
  400922:	6002      	str	r2, [r0, #0]

	return 0;
  400924:	f04f 0000 	mov.w	r0, #0
  400928:	e001      	b.n	40092e <uart_init+0x3e>

	/* Check and configure baudrate */
	/* Asynchronous, no oversampling */
	cd = (p_uart_opt->ul_mck / p_uart_opt->ul_baudrate) / UART_MCK_DIV;
	if (cd < UART_MCK_DIV_MIN_FACTOR || cd > UART_MCK_DIV_MAX_FACTOR)
		return 1;
  40092a:	f04f 0001 	mov.w	r0, #1

	/* Enable receiver and transmitter */
	p_uart->UART_CR = UART_CR_RXEN | UART_CR_TXEN;

	return 0;
}
  40092e:	bc10      	pop	{r4}
  400930:	4770      	bx	lr
  400932:	bf00      	nop

00400934 <uart_enable_tx>:
 * \param p_uart Pointer to a UART instance.
 */
void uart_enable_tx(Uart *p_uart)
{
	/* Enable transmitter */
	p_uart->UART_CR = UART_CR_TXEN;
  400934:	f04f 0340 	mov.w	r3, #64	; 0x40
  400938:	6003      	str	r3, [r0, #0]
  40093a:	4770      	bx	lr

0040093c <uart_enable_rx>:
 * \param p_uart Pointer to a UART instance.
 */
void uart_enable_rx(Uart *p_uart)
{
	/* Enable receiver */
	p_uart->UART_CR = UART_CR_RXEN;
  40093c:	f04f 0310 	mov.w	r3, #16
  400940:	6003      	str	r3, [r0, #0]
  400942:	4770      	bx	lr

00400944 <uart_enable_interrupt>:
 * \param p_uart Pointer to a UART instance.
 *  \param ul_sources Interrupts to be enabled.
 */
void uart_enable_interrupt(Uart *p_uart, uint32_t ul_sources)
{
	p_uart->UART_IER = ul_sources;
  400944:	6081      	str	r1, [r0, #8]
  400946:	4770      	bx	lr

00400948 <uart_disable_interrupt>:
 * \param p_uart Pointer to a UART instance.
 *  \param ul_sources Interrupts to be disabled.
 */
void uart_disable_interrupt(Uart *p_uart, uint32_t ul_sources)
{
	p_uart->UART_IDR = ul_sources;
  400948:	60c1      	str	r1, [r0, #12]
  40094a:	4770      	bx	lr

0040094c <uart_get_interrupt_mask>:
 *
 *  \return The interrupt mask value.
 */
uint32_t uart_get_interrupt_mask(Uart *p_uart)
{
	return p_uart->UART_IMR;
  40094c:	6900      	ldr	r0, [r0, #16]
}
  40094e:	4770      	bx	lr

00400950 <uart_get_status>:
 *
 * \return The current UART status.
 */
uint32_t uart_get_status(Uart *p_uart)
{
	return p_uart->UART_SR;
  400950:	6940      	ldr	r0, [r0, #20]
}
  400952:	4770      	bx	lr

00400954 <uart_write>:
 * \retval 1 I/O Failure, UART is not ready.
 */
uint32_t uart_write(Uart *p_uart, const uint8_t uc_data)
{
	/* Check if the transmitter is ready */
	if (!(p_uart->UART_SR & UART_SR_TXRDY))
  400954:	6943      	ldr	r3, [r0, #20]
  400956:	f013 0f02 	tst.w	r3, #2
  40095a:	d003      	beq.n	400964 <uart_write+0x10>
		return 1;

	/* Send character */
	p_uart->UART_THR = uc_data;
  40095c:	61c1      	str	r1, [r0, #28]
	return 0;
  40095e:	f04f 0000 	mov.w	r0, #0
  400962:	4770      	bx	lr
 */
uint32_t uart_write(Uart *p_uart, const uint8_t uc_data)
{
	/* Check if the transmitter is ready */
	if (!(p_uart->UART_SR & UART_SR_TXRDY))
		return 1;
  400964:	f04f 0001 	mov.w	r0, #1

	/* Send character */
	p_uart->UART_THR = uc_data;
	return 0;
}
  400968:	4770      	bx	lr
  40096a:	bf00      	nop

0040096c <uart_read>:
 * \retval 1 I/O Failure, UART is not ready.
 */
uint32_t uart_read(Uart *p_uart, uint8_t *puc_data)
{
	/* Check if the receiver is ready */
	if ((p_uart->UART_SR & UART_SR_RXRDY) == 0)
  40096c:	6943      	ldr	r3, [r0, #20]
  40096e:	f013 0f01 	tst.w	r3, #1
  400972:	d004      	beq.n	40097e <uart_read+0x12>
		return 1;

	/* Read character */
	*puc_data = (uint8_t) p_uart->UART_RHR;
  400974:	6980      	ldr	r0, [r0, #24]
  400976:	7008      	strb	r0, [r1, #0]
	return 0;
  400978:	f04f 0000 	mov.w	r0, #0
  40097c:	4770      	bx	lr
 */
uint32_t uart_read(Uart *p_uart, uint8_t *puc_data)
{
	/* Check if the receiver is ready */
	if ((p_uart->UART_SR & UART_SR_RXRDY) == 0)
		return 1;
  40097e:	f04f 0001 	mov.w	r0, #1

	/* Read character */
	*puc_data = (uint8_t) p_uart->UART_RHR;
	return 0;
}
  400982:	4770      	bx	lr

00400984 <vreadSensorDataTask>:
	
} /*lint !e715 !e818 pvParameters is required for a task function even if it is not referenced. */
/*-----------------------------------------------------------*/

static void vreadSensorDataTask(void *pvParameters)
{
  400984:	b5f8      	push	{r3, r4, r5, r6, r7, lr}
	( void ) pvParameters;
	
	for( ;; )
	{
		// block this task until TC interrupt has been set
		if(xSemaphoreTake(xSensorInterrupt, comRX_BLOCK_TIME) == pdPASS) {
  400986:	f24a 6540 	movw	r5, #42560	; 0xa640
  40098a:	f2c2 0500 	movt	r5, #8192	; 0x2000
  40098e:	f641 2419 	movw	r4, #6681	; 0x1a19
  400992:	f2c0 0440 	movt	r4, #64	; 0x40
				read_bma150(xCharsSensorData, rxSensorOptions[idx_sensorSELECT_1]);
  400996:	f240 475c 	movw	r7, #1116	; 0x45c
  40099a:	f2c2 0700 	movt	r7, #8192	; 0x2000
  40099e:	f24a 6620 	movw	r6, #42528	; 0xa620
  4009a2:	f2c2 0600 	movt	r6, #8192	; 0x2000
	( void ) pvParameters;
	
	for( ;; )
	{
		// block this task until TC interrupt has been set
		if(xSemaphoreTake(xSensorInterrupt, comRX_BLOCK_TIME) == pdPASS) {
  4009a6:	6828      	ldr	r0, [r5, #0]
  4009a8:	f04f 0100 	mov.w	r1, #0
  4009ac:	f64f 72ff 	movw	r2, #65535	; 0xffff
  4009b0:	460b      	mov	r3, r1
  4009b2:	47a0      	blx	r4
  4009b4:	2801      	cmp	r0, #1
  4009b6:	d111      	bne.n	4009dc <vreadSensorDataTask+0x58>
				read_bma150(xCharsSensorData, rxSensorOptions[idx_sensorSELECT_1]);
  4009b8:	6838      	ldr	r0, [r7, #0]
  4009ba:	7831      	ldrb	r1, [r6, #0]
  4009bc:	f240 33e9 	movw	r3, #1001	; 0x3e9
  4009c0:	f2c0 0340 	movt	r3, #64	; 0x40
  4009c4:	4798      	blx	r3
				read_ak8975(xCharsSensorData, (rxSensorOptions[idx_sensorSELECT_1] & 0xC0) | rxSensorOptions[idx_sensorSELECT_2]);							
  4009c6:	7831      	ldrb	r1, [r6, #0]
  4009c8:	f021 013f 	bic.w	r1, r1, #63	; 0x3f
  4009cc:	7872      	ldrb	r2, [r6, #1]
  4009ce:	6838      	ldr	r0, [r7, #0]
  4009d0:	4311      	orrs	r1, r2
  4009d2:	f240 137d 	movw	r3, #381	; 0x17d
  4009d6:	f2c0 0340 	movt	r3, #64	; 0x40
  4009da:	4798      	blx	r3
		}
		
		// Lower the priority here to ensure the task has finished all transactions
		if((uxTaskPriorityGet(myComRxTask) == tskRX_PRIORITY_LOW)){
  4009dc:	f24a 602c 	movw	r0, #42540	; 0xa62c
  4009e0:	f2c2 0000 	movt	r0, #8192	; 0x2000
  4009e4:	6800      	ldr	r0, [r0, #0]
  4009e6:	f242 0101 	movw	r1, #8193	; 0x2001
  4009ea:	f2c0 0140 	movt	r1, #64	; 0x40
  4009ee:	4788      	blx	r1
  4009f0:	2801      	cmp	r0, #1
  4009f2:	d1d8      	bne.n	4009a6 <vreadSensorDataTask+0x22>
			xSemaphoreGive(xSensorTaskComplete);
  4009f4:	f24a 623c 	movw	r2, #42556	; 0xa63c
  4009f8:	f2c2 0200 	movt	r2, #8192	; 0x2000
  4009fc:	6810      	ldr	r0, [r2, #0]
  4009fe:	f04f 0100 	mov.w	r1, #0
  400a02:	460a      	mov	r2, r1
  400a04:	460b      	mov	r3, r1
  400a06:	f241 7cf5 	movw	ip, #6133	; 0x17f5
  400a0a:	f2c0 0c40 	movt	ip, #64	; 0x40
  400a0e:	47e0      	blx	ip
			vTaskPrioritySet(NULL, tskIDLE_PRIORITY); // should currently be tskIDLE_PRIORITY + 2
  400a10:	f04f 0000 	mov.w	r0, #0
  400a14:	4601      	mov	r1, r0
  400a16:	f242 032d 	movw	r3, #8237	; 0x202d
  400a1a:	f2c0 0340 	movt	r3, #64	; 0x40
  400a1e:	4798      	blx	r3
  400a20:	e7c1      	b.n	4009a6 <vreadSensorDataTask+0x22>
  400a22:	bf00      	nop
  400a24:	0000      	movs	r0, r0
	...

00400a28 <vMyComRxTask>:

/*-----------------------------------------------------------*/

// The task receives data from the queue from the UART1 ISR.
static void vMyComRxTask(void *pvParameters)
{
  400a28:	e92d 4ff0 	stmdb	sp!, {r4, r5, r6, r7, r8, r9, sl, fp, lr}
  400a2c:	b089      	sub	sp, #36	; 0x24
	( void ) pvParameters;	

	for( ;; )
	{	
		/* First time only. Make sure the tasks have finished before suspending them */
		if( xSerialGetChar( xPort, &cByteRxed, comRX_BLOCK_TIME ) )
  400a2e:	f241 0669 	movw	r6, #4201	; 0x1069
  400a32:	f2c0 0640 	movt	r6, #64	; 0x40
		{
			if(xSemaphoreTake(xTxTaskComplete,comRX_BLOCK_TIME) == pdPASS)
  400a36:	f24a 6328 	movw	r3, #42536	; 0xa628
  400a3a:	f2c2 0300 	movt	r3, #8192	; 0x2000
  400a3e:	9303      	str	r3, [sp, #12]
	 uint32_t ul_div;
	 uint32_t ul_tcclks;
	 uint32_t ul_sysclk = sysclk_get_cpu_hz();
	 uint32_t counts;
	 
	 tc_find_mck_divisor(
  400a40:	f44f 6860 	mov.w	r8, #3584	; 0xe00
  400a44:	f2c0 7827 	movt	r8, #1831	; 0x727
	( void ) pvParameters;	

	for( ;; )
	{	
		/* First time only. Make sure the tasks have finished before suspending them */
		if( xSerialGetChar( xPort, &cByteRxed, comRX_BLOCK_TIME ) )
  400a48:	f04f 0000 	mov.w	r0, #0
  400a4c:	f10d 011f 	add.w	r1, sp, #31
  400a50:	f64f 72ff 	movw	r2, #65535	; 0xffff
  400a54:	47b0      	blx	r6
  400a56:	2800      	cmp	r0, #0
  400a58:	d039      	beq.n	400ace <vMyComRxTask+0xa6>
		{
			if(xSemaphoreTake(xTxTaskComplete,comRX_BLOCK_TIME) == pdPASS)
  400a5a:	9803      	ldr	r0, [sp, #12]
  400a5c:	6800      	ldr	r0, [r0, #0]
  400a5e:	f04f 0100 	mov.w	r1, #0
  400a62:	f64f 72ff 	movw	r2, #65535	; 0xffff
  400a66:	460b      	mov	r3, r1
  400a68:	f641 2419 	movw	r4, #6681	; 0x1a19
  400a6c:	f2c0 0440 	movt	r4, #64	; 0x40
  400a70:	47a0      	blx	r4
  400a72:	2801      	cmp	r0, #1
  400a74:	d109      	bne.n	400a8a <vMyComRxTask+0x62>
				vTaskSuspend(myComTxTask);
  400a76:	f24a 6134 	movw	r1, #42548	; 0xa634
  400a7a:	f2c2 0100 	movt	r1, #8192	; 0x2000
  400a7e:	6808      	ldr	r0, [r1, #0]
  400a80:	f242 725d 	movw	r2, #10077	; 0x275d
  400a84:	f2c0 0240 	movt	r2, #64	; 0x40
  400a88:	4790      	blx	r2
			if(xSemaphoreTake(xSensorTaskComplete,comRX_BLOCK_TIME) == pdPASS)
  400a8a:	f24a 653c 	movw	r5, #42556	; 0xa63c
  400a8e:	f2c2 0500 	movt	r5, #8192	; 0x2000
  400a92:	6828      	ldr	r0, [r5, #0]
  400a94:	f04f 0100 	mov.w	r1, #0
  400a98:	f64f 72ff 	movw	r2, #65535	; 0xffff
  400a9c:	460b      	mov	r3, r1
  400a9e:	f641 2719 	movw	r7, #6681	; 0x1a19
  400aa2:	f2c0 0740 	movt	r7, #64	; 0x40
  400aa6:	47b8      	blx	r7
  400aa8:	2801      	cmp	r0, #1
  400aaa:	d109      	bne.n	400ac0 <vMyComRxTask+0x98>
				vTaskSuspend(readSensorDataTask);
  400aac:	f24a 6330 	movw	r3, #42544	; 0xa630
  400ab0:	f2c2 0300 	movt	r3, #8192	; 0x2000
  400ab4:	6818      	ldr	r0, [r3, #0]
  400ab6:	f242 745d 	movw	r4, #10077	; 0x275d
  400aba:	f2c0 0440 	movt	r4, #64	; 0x40
  400abe:	47a0      	blx	r4
						
			// Store the received sensor options
			rxSensorOptions[0] = cByteRxed;
  400ac0:	f89d 001f 	ldrb.w	r0, [sp, #31]
  400ac4:	f24a 6120 	movw	r1, #42528	; 0xa620
  400ac8:	f2c2 0100 	movt	r1, #8192	; 0x2000
  400acc:	7008      	strb	r0, [r1, #0]
		}
		
		/* Empty the queue since the sensor data received can be of a different size now*/
		while(xQueueReset(xCharsSensorData) == pdFAIL);
  400ace:	f240 475c 	movw	r7, #1116	; 0x45c
  400ad2:	f2c2 0700 	movt	r7, #8192	; 0x2000
  400ad6:	f04f 0500 	mov.w	r5, #0
  400ada:	f241 64f9 	movw	r4, #5881	; 0x16f9
  400ade:	f2c0 0440 	movt	r4, #64	; 0x40
  400ae2:	6838      	ldr	r0, [r7, #0]
  400ae4:	4629      	mov	r1, r5
  400ae6:	47a0      	blx	r4
  400ae8:	2800      	cmp	r0, #0
  400aea:	d0fa      	beq.n	400ae2 <vMyComRxTask+0xba>
		
		reset_bma150(); // do not want any sensor data
  400aec:	f240 3211 	movw	r2, #785	; 0x311
  400af0:	f2c0 0240 	movt	r2, #64	; 0x40
  400af4:	4790      	blx	r2
		
		for(i = 1; i < comRX_OPTIONS_LEN; i++ )
		{
			/* Block on the queue that contains received bytes until a byte is
			available. */
			if( xSerialGetChar( xPort, &cByteRxed, comRX_BLOCK_TIME ) )
  400af6:	f04f 0000 	mov.w	r0, #0
  400afa:	f10d 011f 	add.w	r1, sp, #31
  400afe:	f64f 72ff 	movw	r2, #65535	; 0xffff
  400b02:	47b0      	blx	r6
  400b04:	b130      	cbz	r0, 400b14 <vMyComRxTask+0xec>
			{	
				// Store the received sensor options
				rxSensorOptions[i] = cByteRxed;
  400b06:	f89d 001f 	ldrb.w	r0, [sp, #31]
  400b0a:	f24a 6320 	movw	r3, #42528	; 0xa620
  400b0e:	f2c2 0300 	movt	r3, #8192	; 0x2000
  400b12:	7058      	strb	r0, [r3, #1]
		
		for(i = 1; i < comRX_OPTIONS_LEN; i++ )
		{
			/* Block on the queue that contains received bytes until a byte is
			available. */
			if( xSerialGetChar( xPort, &cByteRxed, comRX_BLOCK_TIME ) )
  400b14:	f04f 0000 	mov.w	r0, #0
  400b18:	f10d 011f 	add.w	r1, sp, #31
  400b1c:	f64f 72ff 	movw	r2, #65535	; 0xffff
  400b20:	47b0      	blx	r6
  400b22:	b130      	cbz	r0, 400b32 <vMyComRxTask+0x10a>
			{	
				// Store the received sensor options
				rxSensorOptions[i] = cByteRxed;
  400b24:	f89d 101f 	ldrb.w	r1, [sp, #31]
  400b28:	f24a 6720 	movw	r7, #42528	; 0xa620
  400b2c:	f2c2 0700 	movt	r7, #8192	; 0x2000
  400b30:	70b9      	strb	r1, [r7, #2]
		
		for(i = 1; i < comRX_OPTIONS_LEN; i++ )
		{
			/* Block on the queue that contains received bytes until a byte is
			available. */
			if( xSerialGetChar( xPort, &cByteRxed, comRX_BLOCK_TIME ) )
  400b32:	f04f 0000 	mov.w	r0, #0
  400b36:	f10d 011f 	add.w	r1, sp, #31
  400b3a:	f64f 72ff 	movw	r2, #65535	; 0xffff
  400b3e:	47b0      	blx	r6
  400b40:	b130      	cbz	r0, 400b50 <vMyComRxTask+0x128>
			{	
				// Store the received sensor options
				rxSensorOptions[i] = cByteRxed;
  400b42:	f89d 501f 	ldrb.w	r5, [sp, #31]
  400b46:	f24a 6420 	movw	r4, #42528	; 0xa620
  400b4a:	f2c2 0400 	movt	r4, #8192	; 0x2000
  400b4e:	70e5      	strb	r5, [r4, #3]
		
		for(i = 1; i < comRX_OPTIONS_LEN; i++ )
		{
			/* Block on the queue that contains received bytes until a byte is
			available. */
			if( xSerialGetChar( xPort, &cByteRxed, comRX_BLOCK_TIME ) )
  400b50:	f04f 0000 	mov.w	r0, #0
  400b54:	f10d 011f 	add.w	r1, sp, #31
  400b58:	f64f 72ff 	movw	r2, #65535	; 0xffff
  400b5c:	47b0      	blx	r6
  400b5e:	b130      	cbz	r0, 400b6e <vMyComRxTask+0x146>
			{	
				// Store the received sensor options
				rxSensorOptions[i] = cByteRxed;
  400b60:	f89d 201f 	ldrb.w	r2, [sp, #31]
  400b64:	f24a 6020 	movw	r0, #42528	; 0xa620
  400b68:	f2c2 0000 	movt	r0, #8192	; 0x2000
  400b6c:	7102      	strb	r2, [r0, #4]
			}
		}
		
		accelSamplingRate = (((uint16_t)rxSensorOptions[idx_accelSAMPLE_2]) <<  4) + (rxSensorOptions[idx_accelSAMPLE_1] >> 4) + (rxSensorOptions[idx_accelSAMPLE_1] & 0x0F)*0.1;
  400b6e:	f24a 6720 	movw	r7, #42528	; 0xa620
  400b72:	f2c2 0700 	movt	r7, #8192	; 0x2000
  400b76:	f897 b003 	ldrb.w	fp, [r7, #3]
  400b7a:	f24a 6938 	movw	r9, #42552	; 0xa638
  400b7e:	f2c2 0900 	movt	r9, #8192	; 0x2000
  400b82:	7939      	ldrb	r1, [r7, #4]
  400b84:	ea4f 131b 	mov.w	r3, fp, lsr #4
  400b88:	f643 7ad9 	movw	sl, #16345	; 0x3fd9
  400b8c:	f2c0 0a40 	movt	sl, #64	; 0x40
  400b90:	eb03 1001 	add.w	r0, r3, r1, lsl #4
  400b94:	47d0      	blx	sl
  400b96:	4604      	mov	r4, r0
  400b98:	460d      	mov	r5, r1
  400b9a:	f00b 000f 	and.w	r0, fp, #15
  400b9e:	47d0      	blx	sl
  400ba0:	a343      	add	r3, pc, #268	; (adr r3, 400cb0 <vMyComRxTask+0x288>)
  400ba2:	e9d3 2300 	ldrd	r2, r3, [r3]
  400ba6:	f244 0ca5 	movw	ip, #16549	; 0x40a5
  400baa:	f2c0 0c40 	movt	ip, #64	; 0x40
  400bae:	47e0      	blx	ip
  400bb0:	4602      	mov	r2, r0
  400bb2:	460b      	mov	r3, r1
  400bb4:	4620      	mov	r0, r4
  400bb6:	4629      	mov	r1, r5
  400bb8:	f643 5441 	movw	r4, #15681	; 0x3d41
  400bbc:	f2c0 0440 	movt	r4, #64	; 0x40
  400bc0:	47a0      	blx	r4
  400bc2:	f244 42c9 	movw	r2, #17609	; 0x44c9
  400bc6:	f2c0 0240 	movt	r2, #64	; 0x40
  400bca:	4790      	blx	r2
  400bcc:	f8c9 0000 	str.w	r0, [r9]
		
		// Temporarily increase priority of this task before switching to other tasks
		vTaskPrioritySet( NULL, tskRX_PRIORITY_HIGH);
  400bd0:	f04f 0000 	mov.w	r0, #0
  400bd4:	f04f 0103 	mov.w	r1, #3
  400bd8:	f242 052d 	movw	r5, #8237	; 0x202d
  400bdc:	f2c0 0540 	movt	r5, #64	; 0x40
  400be0:	47a8      	blx	r5
		vTaskPrioritySet( myComTxTask, tskTX_PRIORITY_LOW);
  400be2:	f24a 6434 	movw	r4, #42548	; 0xa634
  400be6:	f2c2 0400 	movt	r4, #8192	; 0x2000
  400bea:	6820      	ldr	r0, [r4, #0]
  400bec:	f04f 0102 	mov.w	r1, #2
  400bf0:	47a8      	blx	r5
		vTaskPrioritySet( readSensorDataTask, tskSENS_PRIORITY_LOW);
  400bf2:	f24a 6b30 	movw	fp, #42544	; 0xa630
  400bf6:	f2c2 0b00 	movt	fp, #8192	; 0x2000
  400bfa:	f8db 0000 	ldr.w	r0, [fp]
  400bfe:	f04f 0102 	mov.w	r1, #2
  400c02:	47a8      	blx	r5
		
		vTaskResume(myComTxTask);
  400c04:	6820      	ldr	r0, [r4, #0]
  400c06:	f242 145d 	movw	r4, #8541	; 0x215d
  400c0a:	f2c0 0440 	movt	r4, #64	; 0x40
  400c0e:	47a0      	blx	r4
		vTaskResume(readSensorDataTask);
  400c10:	f8db 0000 	ldr.w	r0, [fp]
  400c14:	47a0      	blx	r4
		
		//TO DO:	- implement sensor.c to add other sensors		
		initialize_bma150(rxSensorOptions[idx_accelBWRANGE] & (accel_RANGE_BM | accel_BAND_BM)); // go for the sensor data
  400c16:	78b8      	ldrb	r0, [r7, #2]
  400c18:	f000 001f 	and.w	r0, r0, #31
  400c1c:	f240 376d 	movw	r7, #877	; 0x36d
  400c20:	f2c0 0740 	movt	r7, #64	; 0x40
  400c24:	47b8      	blx	r7
		
		tc_config(accelSamplingRate);
  400c26:	f8d9 0000 	ldr.w	r0, [r9]
  400c2a:	f244 5169 	movw	r1, #17769	; 0x4569
  400c2e:	f2c0 0140 	movt	r1, #64	; 0x40
  400c32:	4788      	blx	r1
  400c34:	4607      	mov	r7, r0
	 uint32_t ul_div;
	 uint32_t ul_tcclks;
	 uint32_t ul_sysclk = sysclk_get_cpu_hz();
	 uint32_t counts;
	 
	 tc_find_mck_divisor(
  400c36:	f8cd 8000 	str.w	r8, [sp]
  400c3a:	4641      	mov	r1, r8
  400c3c:	aa05      	add	r2, sp, #20
  400c3e:	ab06      	add	r3, sp, #24
  400c40:	f240 5485 	movw	r4, #1413	; 0x585
  400c44:	f2c0 0440 	movt	r4, #64	; 0x40
  400c48:	47a0      	blx	r4
	 (uint32_t)freq_desired,	// The desired frequency as a uint32.
	 ul_sysclk,					// Master clock freq in Hz.
	 &ul_div,					// Pointer to register where divisor will be stored.
	 &ul_tcclks,				// Pointer to reg where clock selection number is stored.
	 ul_sysclk);				// Board clock freq in Hz.
	 tc_init(TC0, ACCEL_SAMPLE_TIMER_CHANNEL, ul_tcclks | TC_CMR_CPCTRG);
  400c4a:	f04f 0400 	mov.w	r4, #0
  400c4e:	f2c4 0401 	movt	r4, #16385	; 0x4001
  400c52:	4620      	mov	r0, r4
  400c54:	f04f 0100 	mov.w	r1, #0
  400c58:	9b06      	ldr	r3, [sp, #24]
  400c5a:	f443 4280 	orr.w	r2, r3, #16384	; 0x4000
  400c5e:	f240 5345 	movw	r3, #1349	; 0x545
  400c62:	f2c0 0340 	movt	r3, #64	; 0x40
  400c66:	4798      	blx	r3
	 
	 // Find the best estimate of counts, then write it to TC register C.
	 counts = (ul_sysclk/ul_div)/freq_desired;
  400c68:	9a05      	ldr	r2, [sp, #20]
  400c6a:	fbb8 f3f2 	udiv	r3, r8, r2
	 tc_write_rc(TC0, ACCEL_SAMPLE_TIMER_CHANNEL, counts);
  400c6e:	4620      	mov	r0, r4
  400c70:	f04f 0100 	mov.w	r1, #0
  400c74:	fbb3 f2f7 	udiv	r2, r3, r7
  400c78:	f240 576d 	movw	r7, #1389	; 0x56d
  400c7c:	f2c0 0740 	movt	r7, #64	; 0x40
  400c80:	47b8      	blx	r7

	 // Enable interrupts for this TC, and start the TC.
	 tc_enable_interrupt(TC0, ACCEL_SAMPLE_TIMER_CHANNEL, TC_IER_CPCS); // Enable interrupt.
  400c82:	4620      	mov	r0, r4
  400c84:	f04f 0100 	mov.w	r1, #0
  400c88:	f04f 0210 	mov.w	r2, #16
  400c8c:	f240 5375 	movw	r3, #1397	; 0x575
  400c90:	f2c0 0340 	movt	r3, #64	; 0x40
  400c94:	4798      	blx	r3
	 tc_start(TC0,ACCEL_SAMPLE_TIMER_CHANNEL);							// Start the TC.
  400c96:	4620      	mov	r0, r4
  400c98:	f04f 0100 	mov.w	r1, #0
  400c9c:	f240 5461 	movw	r4, #1377	; 0x561
  400ca0:	f2c0 0440 	movt	r4, #64	; 0x40
  400ca4:	47a0      	blx	r4
		initialize_bma150(rxSensorOptions[idx_accelBWRANGE] & (accel_RANGE_BM | accel_BAND_BM)); // go for the sensor data
		
		tc_config(accelSamplingRate);
		
		// Idle task priority
		vTaskPrioritySet(NULL, tskIDLE_PRIORITY);					
  400ca6:	f04f 0000 	mov.w	r0, #0
  400caa:	4601      	mov	r1, r0
  400cac:	47a8      	blx	r5
	}			
  400cae:	e6cb      	b.n	400a48 <vMyComRxTask+0x20>
  400cb0:	9999999a 	.word	0x9999999a
  400cb4:	3fb99999 	.word	0x3fb99999

00400cb8 <vMyComTxTask>:
}
/*-----------------------------------------------------------*/

// The task sends data from the queue to the UART1 ISR.
static void vMyComTxTask(void *pvParameters)
{
  400cb8:	e92d 41f0 	stmdb	sp!, {r4, r5, r6, r7, r8, lr}
  400cbc:	b086      	sub	sp, #24
	( void ) pvParameters;

	for( ;; )
	{
		/* Get all sensor data that is expected. Check the rxSensorOptions and take off of the queue everytime there is expected sensor data */
		for(i=0 ; i < maxSENS_LEN/sensNUM_BYTES; i++){
  400cbe:	f04f 0400 	mov.w	r4, #0
			if((((uint16_t)rxSensorOptions[idx_sensorSELECT_2] << 8) | ((uint16_t)rxSensorOptions[idx_sensorSELECT_1])) & (1 << i)){
  400cc2:	f24a 6520 	movw	r5, #42528	; 0xa620
  400cc6:	f2c2 0500 	movt	r5, #8192	; 0x2000
				if(xQueueReceive(xCharsSensorData, &cByteRxed, comRX_BLOCK_TIME))
  400cca:	f240 475c 	movw	r7, #1116	; 0x45c
  400cce:	f2c2 0700 	movt	r7, #8192	; 0x2000
  400cd2:	f641 2619 	movw	r6, #6681	; 0x1a19
  400cd6:	f2c0 0640 	movt	r6, #64	; 0x40
  400cda:	e02f      	b.n	400d3c <vMyComTxTask+0x84>

	for( ;; )
	{
		/* Get all sensor data that is expected. Check the rxSensorOptions and take off of the queue everytime there is expected sensor data */
		for(i=0 ; i < maxSENS_LEN/sensNUM_BYTES; i++){
			if((((uint16_t)rxSensorOptions[idx_sensorSELECT_2] << 8) | ((uint16_t)rxSensorOptions[idx_sensorSELECT_1])) & (1 << i)){
  400cdc:	46a0      	mov	r8, r4
  400cde:	7868      	ldrb	r0, [r5, #1]
  400ce0:	7829      	ldrb	r1, [r5, #0]
  400ce2:	ea41 2300 	orr.w	r3, r1, r0, lsl #8
  400ce6:	fa43 f304 	asr.w	r3, r3, r4
  400cea:	f013 0f01 	tst.w	r3, #1
  400cee:	d01f      	beq.n	400d30 <vMyComTxTask+0x78>
				if(xQueueReceive(xCharsSensorData, &cByteRxed, comRX_BLOCK_TIME))
  400cf0:	6838      	ldr	r0, [r7, #0]
  400cf2:	f10d 0117 	add.w	r1, sp, #23
  400cf6:	f64f 72ff 	movw	r2, #65535	; 0xffff
  400cfa:	f04f 0300 	mov.w	r3, #0
  400cfe:	47b0      	blx	r6
  400d00:	b130      	cbz	r0, 400d10 <vMyComTxTask+0x58>
					sensorData[2*i] = cByteRxed;
  400d02:	aa06      	add	r2, sp, #24
  400d04:	eb02 0044 	add.w	r0, r2, r4, lsl #1
  400d08:	f89d 1017 	ldrb.w	r1, [sp, #23]
  400d0c:	f800 1c14 	strb.w	r1, [r0, #-20]
				if(xQueueReceive(xCharsSensorData, &cByteRxed, comRX_BLOCK_TIME))
  400d10:	6838      	ldr	r0, [r7, #0]
  400d12:	f10d 0117 	add.w	r1, sp, #23
  400d16:	f64f 72ff 	movw	r2, #65535	; 0xffff
  400d1a:	f04f 0300 	mov.w	r3, #0
  400d1e:	47b0      	blx	r6
  400d20:	b130      	cbz	r0, 400d30 <vMyComTxTask+0x78>
					sensorData[2*i + 1] = cByteRxed;
  400d22:	ab06      	add	r3, sp, #24
  400d24:	eb03 0c48 	add.w	ip, r3, r8, lsl #1
  400d28:	f89d 2017 	ldrb.w	r2, [sp, #23]
  400d2c:	f80c 2c13 	strb.w	r2, [ip, #-19]
	( void ) pvParameters;

	for( ;; )
	{
		/* Get all sensor data that is expected. Check the rxSensorOptions and take off of the queue everytime there is expected sensor data */
		for(i=0 ; i < maxSENS_LEN/sensNUM_BYTES; i++){
  400d30:	f104 0401 	add.w	r4, r4, #1
  400d34:	b2e4      	uxtb	r4, r4
  400d36:	e001      	b.n	400d3c <vMyComTxTask+0x84>
  400d38:	f04f 0400 	mov.w	r4, #0
  400d3c:	2c08      	cmp	r4, #8
  400d3e:	d9cd      	bls.n	400cdc <vMyComTxTask+0x24>
		// TO DO:
		// use the mahony function to remove gravity from the data		
		
		// ***TEMP: for accel x and y only****
				
		if (sensorData[1] & 0x02) // signed 16-bit
  400d40:	f89d 3005 	ldrb.w	r3, [sp, #5]
  400d44:	f003 0202 	and.w	r2, r3, #2
  400d48:	b2d0      	uxtb	r0, r2
  400d4a:	b118      	cbz	r0, 400d54 <vMyComTxTask+0x9c>
		sensorData[1] |= 0xFC;
  400d4c:	f063 0103 	orn	r1, r3, #3
  400d50:	f88d 1005 	strb.w	r1, [sp, #5]
		if (sensorData[3] & 0x02) // signed 16-bit
  400d54:	f89d 4007 	ldrb.w	r4, [sp, #7]
  400d58:	f004 0302 	and.w	r3, r4, #2
  400d5c:	b2da      	uxtb	r2, r3
  400d5e:	b11a      	cbz	r2, 400d68 <vMyComTxTask+0xb0>
		sensorData[3] |= 0xFC;
  400d60:	f064 0003 	orn	r0, r4, #3
  400d64:	f88d 0007 	strb.w	r0, [sp, #7]
		if (sensorData[5] & 0x02) // signed 16-bit
  400d68:	f89d 1009 	ldrb.w	r1, [sp, #9]
  400d6c:	f001 0402 	and.w	r4, r1, #2
  400d70:	b2e3      	uxtb	r3, r4
  400d72:	b11b      	cbz	r3, 400d7c <vMyComTxTask+0xc4>
		sensorData[5] |= 0xFC;
  400d74:	f061 0203 	orn	r2, r1, #3
  400d78:	f88d 2009 	strb.w	r2, [sp, #9]
				
		while(xSerialPutChar( xPort, sensorData[0], comNO_BLOCK) == pdFAIL);
  400d7c:	f04f 0800 	mov.w	r8, #0
  400d80:	f241 048d 	movw	r4, #4237	; 0x108d
  400d84:	f2c0 0440 	movt	r4, #64	; 0x40
  400d88:	4640      	mov	r0, r8
  400d8a:	f99d 1004 	ldrsb.w	r1, [sp, #4]
  400d8e:	4642      	mov	r2, r8
  400d90:	47a0      	blx	r4
  400d92:	2800      	cmp	r0, #0
  400d94:	d0f8      	beq.n	400d88 <vMyComTxTask+0xd0>
		while(xSerialPutChar( xPort, sensorData[1], comNO_BLOCK) == pdFAIL);
  400d96:	f04f 0800 	mov.w	r8, #0
  400d9a:	f241 048d 	movw	r4, #4237	; 0x108d
  400d9e:	f2c0 0440 	movt	r4, #64	; 0x40
  400da2:	4640      	mov	r0, r8
  400da4:	f99d 1005 	ldrsb.w	r1, [sp, #5]
  400da8:	4642      	mov	r2, r8
  400daa:	47a0      	blx	r4
  400dac:	2800      	cmp	r0, #0
  400dae:	d0f8      	beq.n	400da2 <vMyComTxTask+0xea>
		while(xSerialPutChar( xPort, sensorData[2], comNO_BLOCK) == pdFAIL);
  400db0:	f04f 0800 	mov.w	r8, #0
  400db4:	f241 048d 	movw	r4, #4237	; 0x108d
  400db8:	f2c0 0440 	movt	r4, #64	; 0x40
  400dbc:	4640      	mov	r0, r8
  400dbe:	f99d 1006 	ldrsb.w	r1, [sp, #6]
  400dc2:	4642      	mov	r2, r8
  400dc4:	47a0      	blx	r4
  400dc6:	2800      	cmp	r0, #0
  400dc8:	d0f8      	beq.n	400dbc <vMyComTxTask+0x104>
		while(xSerialPutChar( xPort, sensorData[3], comNO_BLOCK) == pdFAIL);
  400dca:	f04f 0800 	mov.w	r8, #0
  400dce:	f241 048d 	movw	r4, #4237	; 0x108d
  400dd2:	f2c0 0440 	movt	r4, #64	; 0x40
  400dd6:	4640      	mov	r0, r8
  400dd8:	f99d 1007 	ldrsb.w	r1, [sp, #7]
  400ddc:	4642      	mov	r2, r8
  400dde:	47a0      	blx	r4
  400de0:	2800      	cmp	r0, #0
  400de2:	d0f8      	beq.n	400dd6 <vMyComTxTask+0x11e>
// 		for(i = 0; i < numBytes; i++)
// 			while(xSerialPutChar( xPort, txData[i], comNO_BLOCK) == pdFAIL);
		//	END ORIGNAL

		// Lower the priority here to ensure the task has finished all transactions		
		if(uxTaskPriorityGet(myComRxTask) == tskRX_PRIORITY_LOW){
  400de4:	f24a 602c 	movw	r0, #42540	; 0xa62c
  400de8:	f2c2 0000 	movt	r0, #8192	; 0x2000
  400dec:	6800      	ldr	r0, [r0, #0]
  400dee:	f242 0101 	movw	r1, #8193	; 0x2001
  400df2:	f2c0 0140 	movt	r1, #64	; 0x40
  400df6:	4788      	blx	r1
  400df8:	2801      	cmp	r0, #1
  400dfa:	d19d      	bne.n	400d38 <vMyComTxTask+0x80>
			xSemaphoreGive(xTxTaskComplete);
  400dfc:	f24a 6328 	movw	r3, #42536	; 0xa628
  400e00:	f2c2 0300 	movt	r3, #8192	; 0x2000
  400e04:	6818      	ldr	r0, [r3, #0]
  400e06:	f04f 0100 	mov.w	r1, #0
  400e0a:	460a      	mov	r2, r1
  400e0c:	460b      	mov	r3, r1
  400e0e:	f241 74f5 	movw	r4, #6133	; 0x17f5
  400e12:	f2c0 0440 	movt	r4, #64	; 0x40
  400e16:	47a0      	blx	r4
			vTaskPrioritySet(NULL, tskIDLE_PRIORITY); // should currently be tskIDLE_PRIORITY + 2	
  400e18:	f04f 0000 	mov.w	r0, #0
  400e1c:	4601      	mov	r1, r0
  400e1e:	f242 022d 	movw	r2, #8237	; 0x202d
  400e22:	f2c0 0240 	movt	r2, #64	; 0x40
  400e26:	4790      	blx	r2
	( void ) pvParameters;

	for( ;; )
	{
		/* Get all sensor data that is expected. Check the rxSensorOptions and take off of the queue everytime there is expected sensor data */
		for(i=0 ; i < maxSENS_LEN/sensNUM_BYTES; i++){
  400e28:	f04f 0400 	mov.w	r4, #0
  400e2c:	e786      	b.n	400d3c <vMyComTxTask+0x84>
  400e2e:	bf00      	nop

00400e30 <main_myFunc>:
void configure_tc(float);
static void tc_config(uint32_t);

/*-----------------------------------------------------------*/
void main_myFunc(void) // CURRENTLY TASK IDLE PRIORITY
{
  400e30:	b5f0      	push	{r4, r5, r6, r7, lr}
  400e32:	b085      	sub	sp, #20
	uint8_t i;
	
	// Initialize global vars
	for(i=0 ; i < comRX_OPTIONS_LEN; i++)
		rxSensorOptions[i] = 0;
  400e34:	f24a 6320 	movw	r3, #42528	; 0xa620
  400e38:	f2c2 0300 	movt	r3, #8192	; 0x2000
  400e3c:	f04f 0400 	mov.w	r4, #0
  400e40:	701c      	strb	r4, [r3, #0]
  400e42:	705c      	strb	r4, [r3, #1]
  400e44:	709c      	strb	r4, [r3, #2]
  400e46:	70dc      	strb	r4, [r3, #3]
  400e48:	711c      	strb	r4, [r3, #4]
	
	createQueues(queue_LARGE_SIZE, queue_LARGE_SIZE);
  400e4a:	f44f 7080 	mov.w	r0, #256	; 0x100
  400e4e:	4601      	mov	r1, r0
  400e50:	f241 0231 	movw	r2, #4145	; 0x1031
  400e54:	f2c0 0240 	movt	r2, #64	; 0x40
  400e58:	4790      	blx	r2
	
	xCharsSensorData = xQueueCreate( queue_LARGE_SIZE, ( unsigned portBASE_TYPE ) sizeof( signed char ) );
  400e5a:	f44f 7080 	mov.w	r0, #256	; 0x100
  400e5e:	f04f 0101 	mov.w	r1, #1
  400e62:	4622      	mov	r2, r4
  400e64:	f241 7589 	movw	r5, #6025	; 0x1789
  400e68:	f2c0 0540 	movt	r5, #64	; 0x40
  400e6c:	47a8      	blx	r5
  400e6e:	f240 415c 	movw	r1, #1116	; 0x45c
  400e72:	f2c2 0100 	movt	r1, #8192	; 0x2000
  400e76:	6008      	str	r0, [r1, #0]
	
	vSemaphoreCreateBinary(xSensorInterrupt);
  400e78:	f04f 0001 	mov.w	r0, #1
  400e7c:	4621      	mov	r1, r4
  400e7e:	f04f 0203 	mov.w	r2, #3
  400e82:	47a8      	blx	r5
  400e84:	f24a 6640 	movw	r6, #42560	; 0xa640
  400e88:	f2c2 0600 	movt	r6, #8192	; 0x2000
  400e8c:	6030      	str	r0, [r6, #0]
  400e8e:	b138      	cbz	r0, 400ea0 <main_myFunc+0x70>
  400e90:	4621      	mov	r1, r4
  400e92:	4622      	mov	r2, r4
  400e94:	4623      	mov	r3, r4
  400e96:	f241 77f5 	movw	r7, #6133	; 0x17f5
  400e9a:	f2c0 0740 	movt	r7, #64	; 0x40
  400e9e:	47b8      	blx	r7
	vSemaphoreCreateBinary(xTxTaskComplete);
  400ea0:	f04f 0001 	mov.w	r0, #1
  400ea4:	f04f 0100 	mov.w	r1, #0
  400ea8:	f04f 0203 	mov.w	r2, #3
  400eac:	f241 7389 	movw	r3, #6025	; 0x1789
  400eb0:	f2c0 0340 	movt	r3, #64	; 0x40
  400eb4:	4798      	blx	r3
  400eb6:	f24a 6428 	movw	r4, #42536	; 0xa628
  400eba:	f2c2 0400 	movt	r4, #8192	; 0x2000
  400ebe:	6020      	str	r0, [r4, #0]
  400ec0:	b140      	cbz	r0, 400ed4 <main_myFunc+0xa4>
  400ec2:	f04f 0100 	mov.w	r1, #0
  400ec6:	460a      	mov	r2, r1
  400ec8:	460b      	mov	r3, r1
  400eca:	f241 75f5 	movw	r5, #6133	; 0x17f5
  400ece:	f2c0 0540 	movt	r5, #64	; 0x40
  400ed2:	47a8      	blx	r5
	vSemaphoreCreateBinary(xSensorTaskComplete);
  400ed4:	f04f 0001 	mov.w	r0, #1
  400ed8:	f04f 0100 	mov.w	r1, #0
  400edc:	f04f 0203 	mov.w	r2, #3
  400ee0:	f241 7689 	movw	r6, #6025	; 0x1789
  400ee4:	f2c0 0640 	movt	r6, #64	; 0x40
  400ee8:	47b0      	blx	r6
  400eea:	f24a 623c 	movw	r2, #42556	; 0xa63c
  400eee:	f2c2 0200 	movt	r2, #8192	; 0x2000
  400ef2:	6010      	str	r0, [r2, #0]
  400ef4:	b140      	cbz	r0, 400f08 <main_myFunc+0xd8>
  400ef6:	f04f 0100 	mov.w	r1, #0
  400efa:	460a      	mov	r2, r1
  400efc:	460b      	mov	r3, r1
  400efe:	f241 77f5 	movw	r7, #6133	; 0x17f5
  400f02:	f2c0 0740 	movt	r7, #64	; 0x40
  400f06:	47b8      	blx	r7
	
	// The Rx task is spawned with the highest priority.
	xTaskCreate( vMyComTxTask, ( signed char * ) "COMTx", comSTACK_SIZE, NULL, tskIDLE_PRIORITY, &myComTxTask);
  400f08:	f04f 0400 	mov.w	r4, #0
  400f0c:	9400      	str	r4, [sp, #0]
  400f0e:	f24a 6734 	movw	r7, #42548	; 0xa634
  400f12:	f2c2 0700 	movt	r7, #8192	; 0x2000
  400f16:	9701      	str	r7, [sp, #4]
  400f18:	9402      	str	r4, [sp, #8]
  400f1a:	9403      	str	r4, [sp, #12]
  400f1c:	f640 40b9 	movw	r0, #3257	; 0xcb9
  400f20:	f2c0 0040 	movt	r0, #64	; 0x40
  400f24:	f244 7128 	movw	r1, #18216	; 0x4728
  400f28:	f2c0 0140 	movt	r1, #64	; 0x40
  400f2c:	f04f 0282 	mov.w	r2, #130	; 0x82
  400f30:	4623      	mov	r3, r4
  400f32:	f641 5561 	movw	r5, #7521	; 0x1d61
  400f36:	f2c0 0540 	movt	r5, #64	; 0x40
  400f3a:	47a8      	blx	r5
	xTaskCreate( vMyComRxTask, ( signed char * ) "COMRx", comSTACK_SIZE, NULL, tskRX_PRIORITY_LOW, &myComRxTask );
  400f3c:	f04f 0001 	mov.w	r0, #1
  400f40:	9000      	str	r0, [sp, #0]
  400f42:	f24a 612c 	movw	r1, #42540	; 0xa62c
  400f46:	f2c2 0100 	movt	r1, #8192	; 0x2000
  400f4a:	9101      	str	r1, [sp, #4]
  400f4c:	9402      	str	r4, [sp, #8]
  400f4e:	9403      	str	r4, [sp, #12]
  400f50:	f640 2029 	movw	r0, #2601	; 0xa29
  400f54:	f2c0 0040 	movt	r0, #64	; 0x40
  400f58:	f244 7130 	movw	r1, #18224	; 0x4730
  400f5c:	f2c0 0140 	movt	r1, #64	; 0x40
  400f60:	f04f 0282 	mov.w	r2, #130	; 0x82
  400f64:	4623      	mov	r3, r4
  400f66:	47a8      	blx	r5
	xTaskCreate( vreadSensorDataTask, ( signed char * ) "I2CREAD", comSTACK_SIZE, NULL, tskIDLE_PRIORITY, &readSensorDataTask );
  400f68:	9400      	str	r4, [sp, #0]
  400f6a:	f24a 6630 	movw	r6, #42544	; 0xa630
  400f6e:	f2c2 0600 	movt	r6, #8192	; 0x2000
  400f72:	9601      	str	r6, [sp, #4]
  400f74:	9402      	str	r4, [sp, #8]
  400f76:	9403      	str	r4, [sp, #12]
  400f78:	f640 1085 	movw	r0, #2437	; 0x985
  400f7c:	f2c0 0040 	movt	r0, #64	; 0x40
  400f80:	f244 7138 	movw	r1, #18232	; 0x4738
  400f84:	f2c0 0140 	movt	r1, #64	; 0x40
  400f88:	f04f 0282 	mov.w	r2, #130	; 0x82
  400f8c:	4623      	mov	r3, r4
  400f8e:	47a8      	blx	r5

	// First time. We want to receive the sensor options first.  Suspend the tx and sensor tasks.
 	vTaskSuspend(myComTxTask);
  400f90:	6838      	ldr	r0, [r7, #0]
  400f92:	f242 755d 	movw	r5, #10077	; 0x275d
  400f96:	f2c0 0540 	movt	r5, #64	; 0x40
  400f9a:	47a8      	blx	r5
 	vTaskSuspend(readSensorDataTask);
  400f9c:	6830      	ldr	r0, [r6, #0]
  400f9e:	47a8      	blx	r5
	 
	// Pretend the tx and sensor tasks are complete
	xSemaphoreGive(xTxTaskComplete);
  400fa0:	f24a 6328 	movw	r3, #42536	; 0xa628
  400fa4:	f2c2 0300 	movt	r3, #8192	; 0x2000
  400fa8:	6818      	ldr	r0, [r3, #0]
  400faa:	4621      	mov	r1, r4
  400fac:	4622      	mov	r2, r4
  400fae:	4623      	mov	r3, r4
  400fb0:	f241 75f5 	movw	r5, #6133	; 0x17f5
  400fb4:	f2c0 0540 	movt	r5, #64	; 0x40
  400fb8:	47a8      	blx	r5
	xSemaphoreGive(xSensorTaskComplete);
  400fba:	f24a 623c 	movw	r2, #42556	; 0xa63c
  400fbe:	f2c2 0200 	movt	r2, #8192	; 0x2000
  400fc2:	6810      	ldr	r0, [r2, #0]
  400fc4:	4621      	mov	r1, r4
  400fc6:	4622      	mov	r2, r4
  400fc8:	4623      	mov	r3, r4
  400fca:	47a8      	blx	r5

	vTaskStartScheduler();
  400fcc:	f242 2009 	movw	r0, #8713	; 0x2209
  400fd0:	f2c0 0040 	movt	r0, #64	; 0x40
  400fd4:	4780      	blx	r0
}
  400fd6:	b005      	add	sp, #20
  400fd8:	bdf0      	pop	{r4, r5, r6, r7, pc}
  400fda:	bf00      	nop

00400fdc <TC0_Handler>:
	}
} /*lint !e715 !e818 pvParameters is required for a task function even if it is not referenced. */
/*-----------------------------------------------------------*/

void TC0_Handler(void)
{
  400fdc:	b5f0      	push	{r4, r5, r6, r7, lr}
  400fde:	b083      	sub	sp, #12
	portBASE_TYPE xHigherPriorityTaskWoken = pdFALSE;
  400fe0:	f04f 0100 	mov.w	r1, #0
  400fe4:	ac02      	add	r4, sp, #8
  400fe6:	f844 1d04 	str.w	r1, [r4, #-4]!
	
	tc_get_status(TC0,ACCEL_SAMPLE_TIMER_CHANNEL); // freezes if status not read?
  400fea:	4608      	mov	r0, r1
  400fec:	f2c4 0001 	movt	r0, #16385	; 0x4001
  400ff0:	f240 537d 	movw	r3, #1405	; 0x57d
  400ff4:	f2c0 0340 	movt	r3, #64	; 0x40
  400ff8:	4798      	blx	r3
	
	while(xSemaphoreGiveFromISR(xSensorInterrupt,&xHigherPriorityTaskWoken) == pdFAIL);
  400ffa:	f24a 6740 	movw	r7, #42560	; 0xa640
  400ffe:	f2c2 0700 	movt	r7, #8192	; 0x2000
  401002:	f04f 0600 	mov.w	r6, #0
  401006:	f641 1569 	movw	r5, #6505	; 0x1969
  40100a:	f2c0 0540 	movt	r5, #64	; 0x40
  40100e:	6838      	ldr	r0, [r7, #0]
  401010:	4631      	mov	r1, r6
  401012:	4622      	mov	r2, r4
  401014:	4633      	mov	r3, r6
  401016:	47a8      	blx	r5
  401018:	2800      	cmp	r0, #0
  40101a:	d0f8      	beq.n	40100e <TC0_Handler+0x32>
	
	portEND_SWITCHING_ISR( xHigherPriorityTaskWoken );
  40101c:	9801      	ldr	r0, [sp, #4]
  40101e:	b120      	cbz	r0, 40102a <TC0_Handler+0x4e>
  401020:	f241 21bd 	movw	r1, #4797	; 0x12bd
  401024:	f2c0 0140 	movt	r1, #64	; 0x40
  401028:	4788      	blx	r1
}
  40102a:	b003      	add	sp, #12
  40102c:	bdf0      	pop	{r4, r5, r6, r7, pc}
  40102e:	bf00      	nop

00401030 <createQueues>:
/*
 * See the serial.h header file.
 */

void createQueues(uint32_t uxRxQueueLength, uint32_t uxTxQueueLength)
{
  401030:	b538      	push	{r3, r4, r5, lr}
  401032:	460d      	mov	r5, r1
	xRxedChars = xQueueCreate( uxRxQueueLength, ( unsigned portBASE_TYPE ) sizeof( signed char ) );
  401034:	f04f 0101 	mov.w	r1, #1
  401038:	f04f 0200 	mov.w	r2, #0
  40103c:	f241 7489 	movw	r4, #6025	; 0x1789
  401040:	f2c0 0440 	movt	r4, #64	; 0x40
  401044:	47a0      	blx	r4
  401046:	f240 4364 	movw	r3, #1124	; 0x464
  40104a:	f2c2 0300 	movt	r3, #8192	; 0x2000
  40104e:	6018      	str	r0, [r3, #0]
	xCharsForTx = xQueueCreate( uxTxQueueLength, ( unsigned portBASE_TYPE ) sizeof( signed char ) );
  401050:	4628      	mov	r0, r5
  401052:	f04f 0101 	mov.w	r1, #1
  401056:	f04f 0200 	mov.w	r2, #0
  40105a:	47a0      	blx	r4
  40105c:	f240 4160 	movw	r1, #1120	; 0x460
  401060:	f2c2 0100 	movt	r1, #8192	; 0x2000
  401064:	6008      	str	r0, [r1, #0]
  401066:	bd38      	pop	{r3, r4, r5, pc}

00401068 <xSerialGetChar>:
}

signed portBASE_TYPE xSerialGetChar( xComPortHandle pxPort, signed char *pcRxedChar, portTickType xBlockTime )
{
  401068:	b510      	push	{r4, lr}
	/* The port handle is not required as this driver only supports one port. */
	( void ) pxPort;

	/* Get the next character from the buffer.  Return false if no characters
	are available, or arrive before xBlockTime expires. */
	if( xQueueReceive( xRxedChars, pcRxedChar, xBlockTime ) )
  40106a:	f240 4364 	movw	r3, #1124	; 0x464
  40106e:	f2c2 0300 	movt	r3, #8192	; 0x2000
  401072:	6818      	ldr	r0, [r3, #0]
  401074:	f04f 0300 	mov.w	r3, #0
  401078:	f641 2419 	movw	r4, #6681	; 0x1a19
  40107c:	f2c0 0440 	movt	r4, #64	; 0x40
  401080:	47a0      	blx	r4
	}
	else
	{
		return pdFALSE;
	}
}
  401082:	3000      	adds	r0, #0
  401084:	bf18      	it	ne
  401086:	2001      	movne	r0, #1
  401088:	bd10      	pop	{r4, pc}
  40108a:	bf00      	nop

0040108c <xSerialPutChar>:
	}
}
/*-----------------------------------------------------------*/

signed portBASE_TYPE xSerialPutChar( xComPortHandle pxPort, signed char cOutChar, portTickType xBlockTime )
{
  40108c:	b510      	push	{r4, lr}
  40108e:	b082      	sub	sp, #8
  401090:	ab02      	add	r3, sp, #8
  401092:	f803 1d01 	strb.w	r1, [r3, #-1]!
signed portBASE_TYPE xReturn;

	/* This simple example only supports one port. */
	( void ) pxPort;

	if( xQueueSend( xCharsForTx, &cOutChar, xBlockTime ) == pdPASS )
  401096:	f240 4160 	movw	r1, #1120	; 0x460
  40109a:	f2c2 0100 	movt	r1, #8192	; 0x2000
  40109e:	6808      	ldr	r0, [r1, #0]
  4010a0:	4619      	mov	r1, r3
  4010a2:	f04f 0300 	mov.w	r3, #0
  4010a6:	f241 74f5 	movw	r4, #6133	; 0x17f5
  4010aa:	f2c0 0440 	movt	r4, #64	; 0x40
  4010ae:	47a0      	blx	r4
  4010b0:	2801      	cmp	r0, #1
  4010b2:	d10d      	bne.n	4010d0 <xSerialPutChar+0x44>
	{
		xReturn = pdPASS;
		uart_enable_interrupt( serUART_PORT, UART_IER_TXRDY );
  4010b4:	f44f 6000 	mov.w	r0, #2048	; 0x800
  4010b8:	f2c4 000e 	movt	r0, #16398	; 0x400e
  4010bc:	f04f 0102 	mov.w	r1, #2
  4010c0:	f640 1245 	movw	r2, #2373	; 0x945
  4010c4:	f2c0 0240 	movt	r2, #64	; 0x40
  4010c8:	4790      	blx	r2
	/* This simple example only supports one port. */
	( void ) pxPort;

	if( xQueueSend( xCharsForTx, &cOutChar, xBlockTime ) == pdPASS )
	{
		xReturn = pdPASS;
  4010ca:	f04f 0001 	mov.w	r0, #1
  4010ce:	e001      	b.n	4010d4 <xSerialPutChar+0x48>
		uart_enable_interrupt( serUART_PORT, UART_IER_TXRDY );
	}
	else
	{
		xReturn = pdFAIL;
  4010d0:	f04f 0000 	mov.w	r0, #0
	}

	return xReturn;
}
  4010d4:	b002      	add	sp, #8
  4010d6:	bd10      	pop	{r4, pc}

004010d8 <UART1_Handler>:
 * intended to represent an efficient implementation.  Real applications should 
 * make use of the USARTS peripheral DMA channel (PDC).
 */

void UART1_Handler( void )
{
  4010d8:	b530      	push	{r4, r5, lr}
  4010da:	b085      	sub	sp, #20
portBASE_TYPE xHigherPriorityTaskWoken = pdFALSE;
  4010dc:	f04f 0300 	mov.w	r3, #0
  4010e0:	9303      	str	r3, [sp, #12]
uint8_t ucChar;
uint32_t ulChar;
uint32_t ulUARTStatus;

	ulUARTStatus = uart_get_status( serUART_PORT ) & uart_get_interrupt_mask( serUART_PORT );
  4010e2:	f44f 6400 	mov.w	r4, #2048	; 0x800
  4010e6:	f2c4 040e 	movt	r4, #16398	; 0x400e
  4010ea:	4620      	mov	r0, r4
  4010ec:	f640 1151 	movw	r1, #2385	; 0x951
  4010f0:	f2c0 0140 	movt	r1, #64	; 0x40
  4010f4:	4788      	blx	r1
  4010f6:	4605      	mov	r5, r0
  4010f8:	4620      	mov	r0, r4
  4010fa:	f640 124d 	movw	r2, #2381	; 0x94d
  4010fe:	f2c0 0240 	movt	r2, #64	; 0x40
  401102:	4790      	blx	r2
  401104:	ea00 0405 	and.w	r4, r0, r5
	
	if( ( ulUARTStatus & US_CSR_TXRDY ) != 0UL )// check the TXRDY bitfield (SAM4S p 684)
  401108:	f014 0f02 	tst.w	r4, #2
  40110c:	d025      	beq.n	40115a <UART1_Handler+0x82>
	{
		/* The interrupt was caused by the TX register becoming empty.  Are 
		there any more characters to transmit? */
		if( xQueueReceiveFromISR( xCharsForTx, &ucChar, &xHigherPriorityTaskWoken ) == pdTRUE )
  40110e:	f240 4060 	movw	r0, #1120	; 0x460
  401112:	f2c2 0000 	movt	r0, #8192	; 0x2000
  401116:	6800      	ldr	r0, [r0, #0]
  401118:	f10d 010b 	add.w	r1, sp, #11
  40111c:	aa03      	add	r2, sp, #12
  40111e:	f641 33e1 	movw	r3, #7137	; 0x1be1
  401122:	f2c0 0340 	movt	r3, #64	; 0x40
  401126:	4798      	blx	r3
  401128:	2801      	cmp	r0, #1
  40112a:	d10b      	bne.n	401144 <UART1_Handler+0x6c>
		{
			/* A character was retrieved from the queue so can be sent to the
			USART now. */
			uart_write( serUART_PORT, ( uint32_t ) ucChar );
  40112c:	f44f 6000 	mov.w	r0, #2048	; 0x800
  401130:	f2c4 000e 	movt	r0, #16398	; 0x400e
  401134:	f89d 100b 	ldrb.w	r1, [sp, #11]
  401138:	f640 1355 	movw	r3, #2389	; 0x955
  40113c:	f2c0 0340 	movt	r3, #64	; 0x40
  401140:	4798      	blx	r3
  401142:	e00a      	b.n	40115a <UART1_Handler+0x82>
		}
		else
		{
			uart_disable_interrupt( serUART_PORT, US_IER_TXRDY );		
  401144:	f44f 6000 	mov.w	r0, #2048	; 0x800
  401148:	f2c4 000e 	movt	r0, #16398	; 0x400e
  40114c:	f04f 0102 	mov.w	r1, #2
  401150:	f640 1249 	movw	r2, #2377	; 0x949
  401154:	f2c0 0240 	movt	r2, #64	; 0x40
  401158:	4790      	blx	r2
		}		
	}
	
	if( ( ulUARTStatus & US_CSR_RXRDY ) != 0UL )// check the RXRDY bitfield (SAM4S p 684)
  40115a:	f014 0f01 	tst.w	r4, #1
  40115e:	d026      	beq.n	4011ae <UART1_Handler+0xd6>
	{
		/* A character has been received on the UART, send it to the Rx
		handler task. */
				
		vTaskPrioritySet( myComRxTask, tskRX_PRIORITY_LOW); // should be lower than tx and sensorRead tasks (tskIDLE_PRIORITY + 2)
  401160:	f24a 642c 	movw	r4, #42540	; 0xa62c
  401164:	f2c2 0400 	movt	r4, #8192	; 0x2000
  401168:	6820      	ldr	r0, [r4, #0]
  40116a:	f04f 0101 	mov.w	r1, #1
  40116e:	f242 022d 	movw	r2, #8237	; 0x202d
  401172:	f2c0 0240 	movt	r2, #64	; 0x40
  401176:	4790      	blx	r2
		
		uart_read( serUART_PORT, &ulChar );
  401178:	f44f 6000 	mov.w	r0, #2048	; 0x800
  40117c:	f2c4 000e 	movt	r0, #16398	; 0x400e
  401180:	a901      	add	r1, sp, #4
  401182:	f640 136d 	movw	r3, #2413	; 0x96d
  401186:	f2c0 0340 	movt	r3, #64	; 0x40
  40118a:	4798      	blx	r3
		ucChar = ( uint8_t ) ( ulChar & 0xffUL );
  40118c:	a904      	add	r1, sp, #16
  40118e:	9801      	ldr	r0, [sp, #4]
  401190:	f801 0d05 	strb.w	r0, [r1, #-5]!
		xQueueSendFromISR( xRxedChars, &ucChar, &xHigherPriorityTaskWoken );		
  401194:	f240 4464 	movw	r4, #1124	; 0x464
  401198:	f2c2 0400 	movt	r4, #8192	; 0x2000
  40119c:	6820      	ldr	r0, [r4, #0]
  40119e:	aa03      	add	r2, sp, #12
  4011a0:	f04f 0300 	mov.w	r3, #0
  4011a4:	f641 1469 	movw	r4, #6505	; 0x1969
  4011a8:	f2c0 0440 	movt	r4, #64	; 0x40
  4011ac:	47a0      	blx	r4
	the unblocked task has a priority equal to or higher than the currently 
	running task (the task this ISR interrupted), then xHigherPriorityTaskWoken 
	will have automatically been set to pdTRUE within the queue send or receive 
	function.  portEND_SWITCHING_ISR() will then ensure that this ISR returns 
	directly to the higher priority unblocked task. */
	portEND_SWITCHING_ISR( xHigherPriorityTaskWoken );
  4011ae:	9903      	ldr	r1, [sp, #12]
  4011b0:	b121      	cbz	r1, 4011bc <UART1_Handler+0xe4>
  4011b2:	f241 22bd 	movw	r2, #4797	; 0x12bd
  4011b6:	f2c0 0240 	movt	r2, #64	; 0x40
  4011ba:	4790      	blx	r2
}
  4011bc:	b005      	add	sp, #20
  4011be:	bd30      	pop	{r4, r5, pc}

004011c0 <vListInitialise>:
void vListInitialise( xList *pxList )
{
	/* The list structure contains a list item which is used to mark the
	end of the list.  To initialise the list the list end is inserted
	as the only list entry. */
	pxList->pxIndex = ( xListItem * ) &( pxList->xListEnd );
  4011c0:	f100 0308 	add.w	r3, r0, #8
  4011c4:	6043      	str	r3, [r0, #4]

	/* The list end value is the highest possible value in the list to
	ensure it remains at the end of the list. */
	pxList->xListEnd.xItemValue = portMAX_DELAY;
  4011c6:	f04f 32ff 	mov.w	r2, #4294967295
  4011ca:	6082      	str	r2, [r0, #8]

	/* The list end next and previous pointers point to itself so we know
	when the list is empty. */
	pxList->xListEnd.pxNext = ( xListItem * ) &( pxList->xListEnd );
  4011cc:	60c3      	str	r3, [r0, #12]
	pxList->xListEnd.pxPrevious = ( xListItem * ) &( pxList->xListEnd );
  4011ce:	6103      	str	r3, [r0, #16]

	pxList->uxNumberOfItems = ( unsigned portBASE_TYPE ) 0U;
  4011d0:	f04f 0100 	mov.w	r1, #0
  4011d4:	6001      	str	r1, [r0, #0]
  4011d6:	4770      	bx	lr

004011d8 <vListInitialiseItem>:
/*-----------------------------------------------------------*/

void vListInitialiseItem( xListItem *pxItem )
{
	/* Make sure the list item is not recorded as being on a list. */
	pxItem->pvContainer = NULL;
  4011d8:	f04f 0300 	mov.w	r3, #0
  4011dc:	6103      	str	r3, [r0, #16]
  4011de:	4770      	bx	lr

004011e0 <vListInsertEnd>:

	/* Insert a new list item into pxList, but rather than sort the list,
	makes the new list item the last item to be removed by a call to
	pvListGetOwnerOfNextEntry.  This means it has to be the item pointed to by
	the pxIndex member. */
	pxIndex = pxList->pxIndex;
  4011e0:	6843      	ldr	r3, [r0, #4]

	pxNewListItem->pxNext = pxIndex->pxNext;
  4011e2:	685a      	ldr	r2, [r3, #4]
  4011e4:	604a      	str	r2, [r1, #4]
	pxNewListItem->pxPrevious = pxList->pxIndex;
  4011e6:	6842      	ldr	r2, [r0, #4]
  4011e8:	608a      	str	r2, [r1, #8]
	pxIndex->pxNext->pxPrevious = ( volatile xListItem * ) pxNewListItem;
  4011ea:	685a      	ldr	r2, [r3, #4]
  4011ec:	6091      	str	r1, [r2, #8]
	pxIndex->pxNext = ( volatile xListItem * ) pxNewListItem;
  4011ee:	6059      	str	r1, [r3, #4]
	pxList->pxIndex = ( volatile xListItem * ) pxNewListItem;
  4011f0:	6041      	str	r1, [r0, #4]

	/* Remember which list the item is in. */
	pxNewListItem->pvContainer = ( void * ) pxList;
  4011f2:	6108      	str	r0, [r1, #16]

	( pxList->uxNumberOfItems )++;
  4011f4:	6801      	ldr	r1, [r0, #0]
  4011f6:	f101 0101 	add.w	r1, r1, #1
  4011fa:	6001      	str	r1, [r0, #0]
  4011fc:	4770      	bx	lr
  4011fe:	bf00      	nop

00401200 <vListInsert>:
}
/*-----------------------------------------------------------*/

void vListInsert( xList *pxList, xListItem *pxNewListItem )
{
  401200:	b410      	push	{r4}
volatile xListItem *pxIterator;
portTickType xValueOfInsertion;

	/* Insert the new list item into the list, sorted in ulListItem order. */
	xValueOfInsertion = pxNewListItem->xItemValue;
  401202:	680c      	ldr	r4, [r1, #0]
	are stored in ready lists (all of which have the same ulListItem value)
	get an equal share of the CPU.  However, if the xItemValue is the same as
	the back marker the iteration loop below will not end.  This means we need
	to guard against this by checking the value first and modifying the
	algorithm slightly if necessary. */
	if( xValueOfInsertion == portMAX_DELAY )
  401204:	f1b4 3fff 	cmp.w	r4, #4294967295
  401208:	d101      	bne.n	40120e <vListInsert+0xe>
	{
		pxIterator = pxList->xListEnd.pxPrevious;
  40120a:	6903      	ldr	r3, [r0, #16]
  40120c:	e00a      	b.n	401224 <vListInsert+0x24>
			   before the scheduler has been started (are interrupts firing
			   before vTaskStartScheduler() has been called?).
		See http://www.freertos.org/FAQHelp.html for more tips.
		**********************************************************************/

		for( pxIterator = ( xListItem * ) &( pxList->xListEnd ); pxIterator->pxNext->xItemValue <= xValueOfInsertion; pxIterator = pxIterator->pxNext )
  40120e:	f100 0308 	add.w	r3, r0, #8
  401212:	68c2      	ldr	r2, [r0, #12]
  401214:	6812      	ldr	r2, [r2, #0]
  401216:	4294      	cmp	r4, r2
  401218:	d304      	bcc.n	401224 <vListInsert+0x24>
  40121a:	685b      	ldr	r3, [r3, #4]
  40121c:	685a      	ldr	r2, [r3, #4]
  40121e:	6812      	ldr	r2, [r2, #0]
  401220:	4294      	cmp	r4, r2
  401222:	d2fa      	bcs.n	40121a <vListInsert+0x1a>
			/* There is nothing to do here, we are just iterating to the
			wanted insertion position. */
		}
	}

	pxNewListItem->pxNext = pxIterator->pxNext;
  401224:	685a      	ldr	r2, [r3, #4]
  401226:	604a      	str	r2, [r1, #4]
	pxNewListItem->pxNext->pxPrevious = ( volatile xListItem * ) pxNewListItem;
  401228:	6091      	str	r1, [r2, #8]
	pxNewListItem->pxPrevious = pxIterator;
  40122a:	608b      	str	r3, [r1, #8]
	pxIterator->pxNext = ( volatile xListItem * ) pxNewListItem;
  40122c:	6059      	str	r1, [r3, #4]

	/* Remember which list the item is in.  This allows fast removal of the
	item later. */
	pxNewListItem->pvContainer = ( void * ) pxList;
  40122e:	6108      	str	r0, [r1, #16]

	( pxList->uxNumberOfItems )++;
  401230:	6801      	ldr	r1, [r0, #0]
  401232:	f101 0101 	add.w	r1, r1, #1
  401236:	6001      	str	r1, [r0, #0]
}
  401238:	bc10      	pop	{r4}
  40123a:	4770      	bx	lr

0040123c <uxListRemove>:

unsigned portBASE_TYPE uxListRemove( xListItem *pxItemToRemove )
{
xList * pxList;

	pxItemToRemove->pxNext->pxPrevious = pxItemToRemove->pxPrevious;
  40123c:	6843      	ldr	r3, [r0, #4]
  40123e:	6882      	ldr	r2, [r0, #8]
  401240:	609a      	str	r2, [r3, #8]
	pxItemToRemove->pxPrevious->pxNext = pxItemToRemove->pxNext;
  401242:	6881      	ldr	r1, [r0, #8]
  401244:	6843      	ldr	r3, [r0, #4]
  401246:	604b      	str	r3, [r1, #4]

	/* The list item knows which list it is in.  Obtain the list from the list
	item. */
	pxList = ( xList * ) pxItemToRemove->pvContainer;
  401248:	6901      	ldr	r1, [r0, #16]

	/* Make sure the index is left pointing to a valid item. */
	if( pxList->pxIndex == pxItemToRemove )
  40124a:	684a      	ldr	r2, [r1, #4]
  40124c:	4282      	cmp	r2, r0
	{
		pxList->pxIndex = pxItemToRemove->pxPrevious;
  40124e:	bf04      	itt	eq
  401250:	6882      	ldreq	r2, [r0, #8]
  401252:	604a      	streq	r2, [r1, #4]
	}

	pxItemToRemove->pvContainer = NULL;
  401254:	f04f 0300 	mov.w	r3, #0
  401258:	6103      	str	r3, [r0, #16]
	( pxList->uxNumberOfItems )--;
  40125a:	6808      	ldr	r0, [r1, #0]
  40125c:	f100 32ff 	add.w	r2, r0, #4294967295
  401260:	600a      	str	r2, [r1, #0]

	return pxList->uxNumberOfItems;
  401262:	6808      	ldr	r0, [r1, #0]
}
  401264:	4770      	bx	lr
  401266:	bf00      	nop

00401268 <prvPortStartFirstTask>:
}
/*-----------------------------------------------------------*/

static void prvPortStartFirstTask( void )
{
	__asm volatile(
  401268:	4803      	ldr	r0, [pc, #12]	; (401278 <prvPortStartFirstTask+0x10>)
  40126a:	6800      	ldr	r0, [r0, #0]
  40126c:	6800      	ldr	r0, [r0, #0]
  40126e:	f380 8808 	msr	MSP, r0
  401272:	b662      	cpsie	i
  401274:	df00      	svc	0
  401276:	bf00      	nop
  401278:	e000ed08 	.word	0xe000ed08

0040127c <pxPortInitialiseStack>:
portSTACK_TYPE *pxPortInitialiseStack( portSTACK_TYPE *pxTopOfStack, pdTASK_CODE pxCode, void *pvParameters )
{
	/* Simulate the stack frame as it would be created by a context switch
	interrupt. */
	pxTopOfStack--; /* Offset added to account for the way the MCU uses the stack on entry/exit of interrupts. */
	*pxTopOfStack = portINITIAL_XPSR;	/* xPSR */
  40127c:	f04f 7380 	mov.w	r3, #16777216	; 0x1000000
  401280:	f840 3c04 	str.w	r3, [r0, #-4]
	pxTopOfStack--;
	*pxTopOfStack = ( portSTACK_TYPE ) pxCode;	/* PC */
  401284:	f840 1c08 	str.w	r1, [r0, #-8]
	pxTopOfStack--;
	*pxTopOfStack = 0;	/* LR */
  401288:	f04f 0100 	mov.w	r1, #0
  40128c:	f840 1c0c 	str.w	r1, [r0, #-12]
	pxTopOfStack -= 5;	/* R12, R3, R2 and R1. */
	*pxTopOfStack = ( portSTACK_TYPE ) pvParameters;	/* R0 */
  401290:	f840 2c20 	str.w	r2, [r0, #-32]
	pxTopOfStack -= 8;	/* R11, R10, R9, R8, R7, R6, R5 and R4. */

	return pxTopOfStack;
}
  401294:	f1a0 0040 	sub.w	r0, r0, #64	; 0x40
  401298:	4770      	bx	lr
  40129a:	bf00      	nop

0040129c <SVC_Handler>:
/*-----------------------------------------------------------*/

__attribute__ (( naked )) void SVC_Handler( void )
{
	__asm volatile (
  40129c:	4b06      	ldr	r3, [pc, #24]	; (4012b8 <pxCurrentTCBConst2>)
  40129e:	6819      	ldr	r1, [r3, #0]
  4012a0:	6808      	ldr	r0, [r1, #0]
  4012a2:	e8b0 0ff0 	ldmia.w	r0!, {r4, r5, r6, r7, r8, r9, sl, fp}
  4012a6:	f380 8809 	msr	PSP, r0
  4012aa:	f04f 0000 	mov.w	r0, #0
  4012ae:	f380 8811 	msr	BASEPRI, r0
  4012b2:	f04e 0e0d 	orr.w	lr, lr, #13
  4012b6:	4770      	bx	lr

004012b8 <pxCurrentTCBConst2>:
  4012b8:	2000a52c 	.word	0x2000a52c

004012bc <vPortYieldFromISR>:
/*-----------------------------------------------------------*/

void vPortYieldFromISR( void )
{
	/* Set a PendSV to request a context switch. */
	portNVIC_INT_CTRL_REG = portNVIC_PENDSVSET_BIT;
  4012bc:	f64e 5304 	movw	r3, #60676	; 0xed04
  4012c0:	f2ce 0300 	movt	r3, #57344	; 0xe000
  4012c4:	f04f 5280 	mov.w	r2, #268435456	; 0x10000000
  4012c8:	601a      	str	r2, [r3, #0]
  4012ca:	4770      	bx	lr

004012cc <ulPortSetInterruptMask>:
}
/*-----------------------------------------------------------*/

__attribute__(( naked )) unsigned long ulPortSetInterruptMask( void )
{
	__asm volatile														\
  4012cc:	f3ef 8011 	mrs	r0, BASEPRI
  4012d0:	f04f 01a0 	mov.w	r1, #160	; 0xa0
  4012d4:	f381 8811 	msr	BASEPRI, r1
  4012d8:	4770      	bx	lr
	);

	/* This return will not be reached but is necessary to prevent compiler
	warnings. */
	return 0;
}
  4012da:	f04f 0000 	mov.w	r0, #0
  4012de:	bf00      	nop

004012e0 <vPortEnterCritical>:
	portNVIC_INT_CTRL_REG = portNVIC_PENDSVSET_BIT;
}
/*-----------------------------------------------------------*/

void vPortEnterCritical( void )
{
  4012e0:	b508      	push	{r3, lr}
	portDISABLE_INTERRUPTS();
  4012e2:	f241 23cd 	movw	r3, #4813	; 0x12cd
  4012e6:	f2c0 0340 	movt	r3, #64	; 0x40
  4012ea:	4798      	blx	r3
	uxCriticalNesting++;
  4012ec:	f240 0000 	movw	r0, #0
  4012f0:	f2c2 0000 	movt	r0, #8192	; 0x2000
  4012f4:	6802      	ldr	r2, [r0, #0]
  4012f6:	f102 0201 	add.w	r2, r2, #1
  4012fa:	6002      	str	r2, [r0, #0]
  4012fc:	bd08      	pop	{r3, pc}
  4012fe:	bf00      	nop

00401300 <vPortClearInterruptMask>:
}
/*-----------------------------------------------------------*/

__attribute__(( naked )) void vPortClearInterruptMask( unsigned long ulNewMaskValue )
{
	__asm volatile													\
  401300:	f380 8811 	msr	BASEPRI, r0
  401304:	4770      	bx	lr
  401306:	bf00      	nop

00401308 <vPortExitCritical>:
	uxCriticalNesting++;
}
/*-----------------------------------------------------------*/

void vPortExitCritical( void )
{
  401308:	b508      	push	{r3, lr}
	uxCriticalNesting--;
  40130a:	f240 0200 	movw	r2, #0
  40130e:	f2c2 0200 	movt	r2, #8192	; 0x2000
  401312:	6813      	ldr	r3, [r2, #0]
  401314:	f103 30ff 	add.w	r0, r3, #4294967295
  401318:	6010      	str	r0, [r2, #0]
	if( uxCriticalNesting == 0 )
  40131a:	b930      	cbnz	r0, 40132a <vPortExitCritical+0x22>
	{
		portENABLE_INTERRUPTS();
  40131c:	f04f 0000 	mov.w	r0, #0
  401320:	f241 3101 	movw	r1, #4865	; 0x1301
  401324:	f2c0 0140 	movt	r1, #64	; 0x40
  401328:	4788      	blx	r1
  40132a:	bd08      	pop	{r3, pc}

0040132c <PendSV_Handler>:

__attribute__(( naked )) void PendSV_Handler( void )
{
	/* This is a naked function. */

	__asm volatile
  40132c:	f3ef 8009 	mrs	r0, PSP
  401330:	4b0c      	ldr	r3, [pc, #48]	; (401364 <pxCurrentTCBConst>)
  401332:	681a      	ldr	r2, [r3, #0]
  401334:	e920 0ff0 	stmdb	r0!, {r4, r5, r6, r7, r8, r9, sl, fp}
  401338:	6010      	str	r0, [r2, #0]
  40133a:	e92d 4008 	stmdb	sp!, {r3, lr}
  40133e:	f04f 00a0 	mov.w	r0, #160	; 0xa0
  401342:	f380 8811 	msr	BASEPRI, r0
  401346:	f001 f9a9 	bl	40269c <vTaskSwitchContext>
  40134a:	f04f 0000 	mov.w	r0, #0
  40134e:	f380 8811 	msr	BASEPRI, r0
  401352:	e8bd 4008 	ldmia.w	sp!, {r3, lr}
  401356:	6819      	ldr	r1, [r3, #0]
  401358:	6808      	ldr	r0, [r1, #0]
  40135a:	e8b0 0ff0 	ldmia.w	r0!, {r4, r5, r6, r7, r8, r9, sl, fp}
  40135e:	f380 8809 	msr	PSP, r0
  401362:	4770      	bx	lr

00401364 <pxCurrentTCBConst>:
  401364:	2000a52c 	.word	0x2000a52c

00401368 <SysTick_Handler>:
	);
}
/*-----------------------------------------------------------*/

void SysTick_Handler( void )
{
  401368:	b508      	push	{r3, lr}
	/* If using preemption, also force a context switch. */
	#if configUSE_PREEMPTION == 1
		portNVIC_INT_CTRL_REG = portNVIC_PENDSVSET_BIT;
  40136a:	f64e 5304 	movw	r3, #60676	; 0xed04
  40136e:	f2ce 0300 	movt	r3, #57344	; 0xe000
  401372:	f04f 5280 	mov.w	r2, #268435456	; 0x10000000
  401376:	601a      	str	r2, [r3, #0]
	to generate the tick interrupt. */
	#if configUSE_TICKLESS_IDLE == 1
		portNVIC_SYSTICK_LOAD_REG = ulTimerReloadValueForOneTick;
	#endif

	( void ) portSET_INTERRUPT_MASK_FROM_ISR();
  401378:	f241 20cd 	movw	r0, #4813	; 0x12cd
  40137c:	f2c0 0040 	movt	r0, #64	; 0x40
  401380:	4780      	blx	r0
	{
		vTaskIncrementTick();
  401382:	f242 21c9 	movw	r1, #8905	; 0x22c9
  401386:	f2c0 0140 	movt	r1, #64	; 0x40
  40138a:	4788      	blx	r1
	}
	portCLEAR_INTERRUPT_MASK_FROM_ISR( 0 );
  40138c:	f04f 0000 	mov.w	r0, #0
  401390:	f241 3301 	movw	r3, #4865	; 0x1301
  401394:	f2c0 0340 	movt	r3, #64	; 0x40
  401398:	4798      	blx	r3
  40139a:	bd08      	pop	{r3, pc}

0040139c <vPortSetupTimerInterrupt>:
		ulStoppedTimerCompensation = 45UL / ( configCPU_CLOCK_HZ / configSYSTICK_CLOCK_HZ );
	}
	#endif /* configUSE_TICKLESS_IDLE */

	/* Configure SysTick to interrupt at the requested rate. */
	portNVIC_SYSTICK_LOAD_REG = ( configSYSTICK_CLOCK_HZ / configTICK_RATE_HZ ) - 1UL;;
  40139c:	f24e 0314 	movw	r3, #57364	; 0xe014
  4013a0:	f2ce 0300 	movt	r3, #57344	; 0xe000
  4013a4:	f245 22ff 	movw	r2, #21247	; 0x52ff
  4013a8:	f2c0 0207 	movt	r2, #7
  4013ac:	601a      	str	r2, [r3, #0]
	portNVIC_SYSTICK_CTRL_REG = portNVIC_SYSTICK_CLK_BIT | portNVIC_SYSTICK_INT_BIT | portNVIC_SYSTICK_ENABLE_BIT;
  4013ae:	f24e 0010 	movw	r0, #57360	; 0xe010
  4013b2:	f2ce 0000 	movt	r0, #57344	; 0xe000
  4013b6:	f04f 0107 	mov.w	r1, #7
  4013ba:	6001      	str	r1, [r0, #0]
  4013bc:	4770      	bx	lr
  4013be:	bf00      	nop

004013c0 <xPortStartScheduler>:

/*
 * See header file for description.
 */
portBASE_TYPE xPortStartScheduler( void )
{
  4013c0:	b510      	push	{r4, lr}
	/* configMAX_SYSCALL_INTERRUPT_PRIORITY must not be set to 0.
	See http://www.FreeRTOS.org/RTOS-Cortex-M3-M4.html */
	configASSERT( configMAX_SYSCALL_INTERRUPT_PRIORITY );

	/* Make PendSV, CallSV and SysTick the same priroity as the kernel. */
	portNVIC_SYSPRI2_REG |= portNVIC_PENDSV_PRI;
  4013c2:	f64e 5320 	movw	r3, #60704	; 0xed20
  4013c6:	f2ce 0300 	movt	r3, #57344	; 0xe000
  4013ca:	681a      	ldr	r2, [r3, #0]
  4013cc:	f442 0070 	orr.w	r0, r2, #15728640	; 0xf00000
  4013d0:	6018      	str	r0, [r3, #0]
	portNVIC_SYSPRI2_REG |= portNVIC_SYSTICK_PRI;
  4013d2:	6819      	ldr	r1, [r3, #0]
  4013d4:	f041 4470 	orr.w	r4, r1, #4026531840	; 0xf0000000
  4013d8:	601c      	str	r4, [r3, #0]

	/* Start the timer that generates the tick ISR.  Interrupts are disabled
	here already. */
	vPortSetupTimerInterrupt();
  4013da:	f241 339d 	movw	r3, #5021	; 0x139d
  4013de:	f2c0 0340 	movt	r3, #64	; 0x40
  4013e2:	4798      	blx	r3

	/* Initialise the critical nesting count ready for the first task. */
	uxCriticalNesting = 0;
  4013e4:	f04f 0400 	mov.w	r4, #0
  4013e8:	f240 0200 	movw	r2, #0
  4013ec:	f2c2 0200 	movt	r2, #8192	; 0x2000
  4013f0:	6014      	str	r4, [r2, #0]

	/* Start the first task. */
	prvPortStartFirstTask();
  4013f2:	f241 2069 	movw	r0, #4713	; 0x1269
  4013f6:	f2c0 0040 	movt	r0, #64	; 0x40
  4013fa:	4780      	blx	r0

	/* Should not get here! */
	return 0;
}
  4013fc:	4620      	mov	r0, r4
  4013fe:	bd10      	pop	{r4, pc}

00401400 <prvInsertBlockIntoFreeList>:
	xFreeBytesRemaining -= heapSTRUCT_SIZE;
}
/*-----------------------------------------------------------*/

static void prvInsertBlockIntoFreeList( xBlockLink *pxBlockToInsert )
{
  401400:	b430      	push	{r4, r5}
xBlockLink *pxIterator;
unsigned char *puc;

	/* Iterate through the list until a block is found that has a higher address
	than the block being inserted. */
	for( pxIterator = &xStart; pxIterator->pxNextFreeBlock < pxBlockToInsert; pxIterator = pxIterator->pxNextFreeBlock )
  401402:	f24a 426c 	movw	r2, #42092	; 0xa46c
  401406:	f2c2 0200 	movt	r2, #8192	; 0x2000
  40140a:	e000      	b.n	40140e <prvInsertBlockIntoFreeList+0xe>
  40140c:	461a      	mov	r2, r3
  40140e:	6813      	ldr	r3, [r2, #0]
  401410:	4283      	cmp	r3, r0
  401412:	d3fb      	bcc.n	40140c <prvInsertBlockIntoFreeList+0xc>
  401414:	4611      	mov	r1, r2
	}

	/* Do the block being inserted, and the block it is being inserted after
	make a contiguous block of memory? */	
	puc = ( unsigned char * ) pxIterator;
	if( ( puc + pxIterator->xBlockSize ) == ( unsigned char * ) pxBlockToInsert )
  401416:	6854      	ldr	r4, [r2, #4]
  401418:	1915      	adds	r5, r2, r4
  40141a:	4285      	cmp	r5, r0
  40141c:	d103      	bne.n	401426 <prvInsertBlockIntoFreeList+0x26>
	{
		pxIterator->xBlockSize += pxBlockToInsert->xBlockSize;
  40141e:	6868      	ldr	r0, [r5, #4]
  401420:	1904      	adds	r4, r0, r4
  401422:	6054      	str	r4, [r2, #4]
  401424:	4610      	mov	r0, r2
	}

	/* Do the block being inserted, and the block it is being inserted before
	make a contiguous block of memory? */
	puc = ( unsigned char * ) pxBlockToInsert;
	if( ( puc + pxBlockToInsert->xBlockSize ) == ( unsigned char * ) pxIterator->pxNextFreeBlock )
  401426:	6842      	ldr	r2, [r0, #4]
  401428:	1884      	adds	r4, r0, r2
  40142a:	42a3      	cmp	r3, r4
  40142c:	d10f      	bne.n	40144e <prvInsertBlockIntoFreeList+0x4e>
	{
		if( pxIterator->pxNextFreeBlock != pxEnd )
  40142e:	f24a 4468 	movw	r4, #42088	; 0xa468
  401432:	f2c2 0400 	movt	r4, #8192	; 0x2000
  401436:	6824      	ldr	r4, [r4, #0]
  401438:	429c      	cmp	r4, r3
  40143a:	d006      	beq.n	40144a <prvInsertBlockIntoFreeList+0x4a>
		{
			/* Form one big block from the two blocks. */
			pxBlockToInsert->xBlockSize += pxIterator->pxNextFreeBlock->xBlockSize;
  40143c:	685b      	ldr	r3, [r3, #4]
  40143e:	189a      	adds	r2, r3, r2
  401440:	6042      	str	r2, [r0, #4]
			pxBlockToInsert->pxNextFreeBlock = pxIterator->pxNextFreeBlock->pxNextFreeBlock;
  401442:	680b      	ldr	r3, [r1, #0]
  401444:	681a      	ldr	r2, [r3, #0]
  401446:	6002      	str	r2, [r0, #0]
  401448:	e002      	b.n	401450 <prvInsertBlockIntoFreeList+0x50>
		}
		else
		{
			pxBlockToInsert->pxNextFreeBlock = pxEnd;
  40144a:	6003      	str	r3, [r0, #0]
  40144c:	e000      	b.n	401450 <prvInsertBlockIntoFreeList+0x50>
		}
	}
	else
	{
		pxBlockToInsert->pxNextFreeBlock = pxIterator->pxNextFreeBlock;		
  40144e:	6003      	str	r3, [r0, #0]

	/* If the block being inserted plugged a gab, so was merged with the block
	before and the block after, then it's pxNextFreeBlock pointer will have
	already been set, and should not be set here as that would make it point
	to itself. */
	if( pxIterator != pxBlockToInsert )
  401450:	4281      	cmp	r1, r0
	{
		pxIterator->pxNextFreeBlock = pxBlockToInsert;
  401452:	bf18      	it	ne
  401454:	6008      	strne	r0, [r1, #0]
	}
}
  401456:	bc30      	pop	{r4, r5}
  401458:	4770      	bx	lr
  40145a:	bf00      	nop

0040145c <pvPortMalloc>:
/* STATIC FUNCTIONS ARE DEFINED AS MACROS TO MINIMIZE THE FUNCTION CALL DEPTH. */

/*-----------------------------------------------------------*/

void *pvPortMalloc( size_t xWantedSize )
{
  40145c:	b538      	push	{r3, r4, r5, lr}
  40145e:	4604      	mov	r4, r0
xBlockLink *pxBlock, *pxPreviousBlock, *pxNewBlockLink;
void *pvReturn = NULL;

	vTaskSuspendAll();
  401460:	f242 2391 	movw	r3, #8849	; 0x2291
  401464:	f2c0 0340 	movt	r3, #64	; 0x40
  401468:	4798      	blx	r3
	{
		/* If this is the first call to malloc then the heap will require
		initialisation to setup the list of free blocks. */
		if( pxEnd == NULL )
  40146a:	f24a 4068 	movw	r0, #42088	; 0xa468
  40146e:	f2c2 0000 	movt	r0, #8192	; 0x2000
  401472:	6801      	ldr	r1, [r0, #0]
  401474:	bb21      	cbnz	r1, 4014c0 <pvPortMalloc+0x64>
	/* Ensure the start of the heap is aligned. */
	configASSERT( ( ( ( unsigned long ) xHeap.ucHeap ) & ( ( unsigned long ) portBYTE_ALIGNMENT_MASK ) ) == 0UL );

	/* xStart is used to hold a pointer to the first item in the list of free
	blocks.  The void cast is used to prevent compiler warnings. */
	xStart.pxNextFreeBlock = ( void * ) xHeap.ucHeap;
  401476:	f24a 426c 	movw	r2, #42092	; 0xa46c
  40147a:	f2c2 0200 	movt	r2, #8192	; 0x2000
  40147e:	f240 4368 	movw	r3, #1128	; 0x468
  401482:	f2c2 0300 	movt	r3, #8192	; 0x2000
  401486:	6013      	str	r3, [r2, #0]
	xStart.xBlockSize = ( size_t ) 0;
  401488:	f04f 0100 	mov.w	r1, #0
  40148c:	6051      	str	r1, [r2, #4]

	/* pxEnd is used to mark the end of the list of free blocks and is inserted
	at the end of the heap space. */
	pucHeapEnd = xHeap.ucHeap + xTotalHeapSize;
	pucHeapEnd -= heapSTRUCT_SIZE;
	pxEnd = ( void * ) pucHeapEnd;
  40148e:	f503 421f 	add.w	r2, r3, #40704	; 0x9f00
  401492:	f102 00f0 	add.w	r0, r2, #240	; 0xf0
  401496:	f24a 4568 	movw	r5, #42088	; 0xa468
  40149a:	f2c2 0500 	movt	r5, #8192	; 0x2000
  40149e:	6028      	str	r0, [r5, #0]
	configASSERT( ( ( ( unsigned long ) pxEnd ) & ( ( unsigned long ) portBYTE_ALIGNMENT_MASK ) ) == 0UL );
	pxEnd->xBlockSize = 0;
  4014a0:	f8c2 10f4 	str.w	r1, [r2, #244]	; 0xf4
	pxEnd->pxNextFreeBlock = NULL;
  4014a4:	f8c2 10f0 	str.w	r1, [r2, #240]	; 0xf0

	/* To start with there is a single free block that is sized to take up the
	entire heap space, minus the space taken by pxEnd. */
	pxFirstFreeBlock = ( void * ) xHeap.ucHeap;
	pxFirstFreeBlock->xBlockSize = xTotalHeapSize - heapSTRUCT_SIZE;
  4014a8:	f649 71f0 	movw	r1, #40944	; 0x9ff0
  4014ac:	6059      	str	r1, [r3, #4]
	pxFirstFreeBlock->pxNextFreeBlock = pxEnd;
  4014ae:	6018      	str	r0, [r3, #0]

	/* The heap now contains pxEnd. */
	xFreeBytesRemaining -= heapSTRUCT_SIZE;
  4014b0:	f240 0304 	movw	r3, #4
  4014b4:	f2c2 0300 	movt	r3, #8192	; 0x2000
  4014b8:	681a      	ldr	r2, [r3, #0]
  4014ba:	f1a2 0210 	sub.w	r2, r2, #16
  4014be:	601a      	str	r2, [r3, #0]
			prvHeapInit();
		}

		/* The wanted size is increased so it can contain a xBlockLink
		structure in addition to the requested amount of bytes. */
		if( xWantedSize > 0 )
  4014c0:	2c00      	cmp	r4, #0
  4014c2:	d047      	beq.n	401554 <pvPortMalloc+0xf8>
		{
			xWantedSize += heapSTRUCT_SIZE;
  4014c4:	f104 0210 	add.w	r2, r4, #16

			/* Ensure that blocks are always aligned to the required number of 
			bytes. */
			if( xWantedSize & portBYTE_ALIGNMENT_MASK )
  4014c8:	f012 0f07 	tst.w	r2, #7
			{
				/* Byte alignment required. */
				xWantedSize += ( portBYTE_ALIGNMENT - ( xWantedSize & portBYTE_ALIGNMENT_MASK ) );
  4014cc:	bf1c      	itt	ne
  4014ce:	f022 0207 	bicne.w	r2, r2, #7
  4014d2:	3208      	addne	r2, #8
			}
		}

		if( ( xWantedSize > 0 ) && ( xWantedSize < xTotalHeapSize ) )
  4014d4:	f102 30ff 	add.w	r0, r2, #4294967295
  4014d8:	f649 75fe 	movw	r5, #40958	; 0x9ffe
  4014dc:	42a8      	cmp	r0, r5
  4014de:	d839      	bhi.n	401554 <pvPortMalloc+0xf8>
		{
			/* Traverse the list from the start	(lowest address) block until one
			of adequate size is found. */
			pxPreviousBlock = &xStart;
			pxBlock = xStart.pxNextFreeBlock;
  4014e0:	f24a 416c 	movw	r1, #42092	; 0xa46c
  4014e4:	f2c2 0100 	movt	r1, #8192	; 0x2000
  4014e8:	680c      	ldr	r4, [r1, #0]
			while( ( pxBlock->xBlockSize < xWantedSize ) && ( pxBlock->pxNextFreeBlock != NULL ) )
  4014ea:	e001      	b.n	4014f0 <pvPortMalloc+0x94>
  4014ec:	4621      	mov	r1, r4
			{
				pxPreviousBlock = pxBlock;
				pxBlock = pxBlock->pxNextFreeBlock;
  4014ee:	4604      	mov	r4, r0
		{
			/* Traverse the list from the start	(lowest address) block until one
			of adequate size is found. */
			pxPreviousBlock = &xStart;
			pxBlock = xStart.pxNextFreeBlock;
			while( ( pxBlock->xBlockSize < xWantedSize ) && ( pxBlock->pxNextFreeBlock != NULL ) )
  4014f0:	6863      	ldr	r3, [r4, #4]
  4014f2:	429a      	cmp	r2, r3
  4014f4:	d902      	bls.n	4014fc <pvPortMalloc+0xa0>
  4014f6:	6820      	ldr	r0, [r4, #0]
  4014f8:	2800      	cmp	r0, #0
  4014fa:	d1f7      	bne.n	4014ec <pvPortMalloc+0x90>
				pxBlock = pxBlock->pxNextFreeBlock;
			}

			/* If the end marker was reached then a block of adequate size was
			not found. */
			if( pxBlock != pxEnd )
  4014fc:	f24a 4568 	movw	r5, #42088	; 0xa468
  401500:	f2c2 0500 	movt	r5, #8192	; 0x2000
  401504:	682b      	ldr	r3, [r5, #0]
  401506:	429c      	cmp	r4, r3
  401508:	d024      	beq.n	401554 <pvPortMalloc+0xf8>
			{
				/* Return the memory space - jumping over the xBlockLink structure
				at its start. */
				pvReturn = ( void * ) ( ( ( unsigned char * ) pxPreviousBlock->pxNextFreeBlock ) + heapSTRUCT_SIZE );
  40150a:	680d      	ldr	r5, [r1, #0]
  40150c:	f105 0510 	add.w	r5, r5, #16

				/* This block is being returned for use so must be taken out of
				the	list of free blocks. */
				pxPreviousBlock->pxNextFreeBlock = pxBlock->pxNextFreeBlock;
  401510:	6820      	ldr	r0, [r4, #0]
  401512:	6008      	str	r0, [r1, #0]

				/* If the block is larger than required it can be split into two. */
				if( ( pxBlock->xBlockSize - xWantedSize ) > heapMINIMUM_BLOCK_SIZE )
  401514:	6863      	ldr	r3, [r4, #4]
  401516:	1a99      	subs	r1, r3, r2
  401518:	2920      	cmp	r1, #32
  40151a:	d907      	bls.n	40152c <pvPortMalloc+0xd0>
				{
					/* This block is to be split into two.  Create a new block
					following the number of bytes requested. The void cast is
					used to prevent byte alignment warnings from the compiler. */
					pxNewBlockLink = ( void * ) ( ( ( unsigned char * ) pxBlock ) + xWantedSize );
  40151c:	18a0      	adds	r0, r4, r2

					/* Calculate the sizes of two blocks split from the single
					block. */
					pxNewBlockLink->xBlockSize = pxBlock->xBlockSize - xWantedSize;
  40151e:	6041      	str	r1, [r0, #4]
					pxBlock->xBlockSize = xWantedSize;
  401520:	6062      	str	r2, [r4, #4]

					/* Insert the new block into the list of free blocks. */
					prvInsertBlockIntoFreeList( ( pxNewBlockLink ) );
  401522:	f241 4201 	movw	r2, #5121	; 0x1401
  401526:	f2c0 0240 	movt	r2, #64	; 0x40
  40152a:	4790      	blx	r2
				}

				xFreeBytesRemaining -= pxBlock->xBlockSize;
  40152c:	f240 0004 	movw	r0, #4
  401530:	f2c2 0000 	movt	r0, #8192	; 0x2000
  401534:	6803      	ldr	r3, [r0, #0]
  401536:	6861      	ldr	r1, [r4, #4]
  401538:	1a5a      	subs	r2, r3, r1
  40153a:	6002      	str	r2, [r0, #0]
			}
		}
	}
	xTaskResumeAll();
  40153c:	f242 4059 	movw	r0, #9305	; 0x2459
  401540:	f2c0 0040 	movt	r0, #64	; 0x40
  401544:	4780      	blx	r0

	#if( configUSE_MALLOC_FAILED_HOOK == 1 )
	{
		if( pvReturn == NULL )
  401546:	b96d      	cbnz	r5, 401564 <pvPortMalloc+0x108>
		{
			extern void vApplicationMallocFailedHook( void );
			vApplicationMallocFailedHook();
  401548:	f643 5325 	movw	r3, #15653	; 0x3d25
  40154c:	f2c0 0340 	movt	r3, #64	; 0x40
  401550:	4798      	blx	r3
  401552:	e007      	b.n	401564 <pvPortMalloc+0x108>

				xFreeBytesRemaining -= pxBlock->xBlockSize;
			}
		}
	}
	xTaskResumeAll();
  401554:	f242 4159 	movw	r1, #9305	; 0x2459
  401558:	f2c0 0140 	movt	r1, #64	; 0x40
  40155c:	4788      	blx	r1
  40155e:	f04f 0500 	mov.w	r5, #0
  401562:	e7f1      	b.n	401548 <pvPortMalloc+0xec>
		}
	}
	#endif

	return pvReturn;
}
  401564:	4628      	mov	r0, r5
  401566:	bd38      	pop	{r3, r4, r5, pc}

00401568 <vPortFree>:
/*-----------------------------------------------------------*/

void vPortFree( void *pv )
{
  401568:	b510      	push	{r4, lr}
unsigned char *puc = ( unsigned char * ) pv;
xBlockLink *pxLink;

	if( pv != NULL )
  40156a:	4604      	mov	r4, r0
  40156c:	b1c8      	cbz	r0, 4015a2 <vPortFree+0x3a>
		puc -= heapSTRUCT_SIZE;

		/* This casting is to keep the compiler from issuing warnings. */
		pxLink = ( void * ) puc;

		vTaskSuspendAll();
  40156e:	f242 2391 	movw	r3, #8849	; 0x2291
  401572:	f2c0 0340 	movt	r3, #64	; 0x40
  401576:	4798      	blx	r3
		{
			/* Add this block to the list of free blocks. */
			xFreeBytesRemaining += pxLink->xBlockSize;
  401578:	f240 0004 	movw	r0, #4
  40157c:	f2c2 0000 	movt	r0, #8192	; 0x2000
  401580:	6801      	ldr	r1, [r0, #0]
  401582:	f854 2c0c 	ldr.w	r2, [r4, #-12]
  401586:	188b      	adds	r3, r1, r2
  401588:	6003      	str	r3, [r0, #0]
			prvInsertBlockIntoFreeList( ( ( xBlockLink * ) pxLink ) );			
  40158a:	f1a4 0010 	sub.w	r0, r4, #16
  40158e:	f241 4101 	movw	r1, #5121	; 0x1401
  401592:	f2c0 0140 	movt	r1, #64	; 0x40
  401596:	4788      	blx	r1
		}
		xTaskResumeAll();
  401598:	f242 4059 	movw	r0, #9305	; 0x2459
  40159c:	f2c0 0040 	movt	r0, #64	; 0x40
  4015a0:	4780      	blx	r0
  4015a2:	bd10      	pop	{r4, pc}

004015a4 <prvUnlockQueue>:
	}
}
/*-----------------------------------------------------------*/

static void prvUnlockQueue( xQueueHandle pxQueue )
{
  4015a4:	b5f8      	push	{r3, r4, r5, r6, r7, lr}
  4015a6:	4604      	mov	r4, r0

	/* The lock counts contains the number of extra data items placed or
	removed from the queue while the queue was locked.  When a queue is
	locked items can be added or removed, but the event lists cannot be
	updated. */
	taskENTER_CRITICAL();
  4015a8:	f241 23e1 	movw	r3, #4833	; 0x12e1
  4015ac:	f2c0 0340 	movt	r3, #64	; 0x40
  4015b0:	4798      	blx	r3
	{
		/* See if data was added to the queue while it was locked. */
		while( pxQueue->xTxLock > queueLOCKED_UNMODIFIED )
  4015b2:	6ca0      	ldr	r0, [r4, #72]	; 0x48
  4015b4:	2800      	cmp	r0, #0
  4015b6:	dd1a      	ble.n	4015ee <prvUnlockQueue+0x4a>
		{
			/* Data was posted while the queue was locked.  Are any tasks
			blocked waiting for data to become available? */
			if( listLIST_IS_EMPTY( &( pxQueue->xTasksWaitingToReceive ) ) == pdFALSE )
  4015b8:	6a61      	ldr	r1, [r4, #36]	; 0x24
  4015ba:	b919      	cbnz	r1, 4015c4 <prvUnlockQueue+0x20>
  4015bc:	e017      	b.n	4015ee <prvUnlockQueue+0x4a>
  4015be:	6a61      	ldr	r1, [r4, #36]	; 0x24
  4015c0:	b951      	cbnz	r1, 4015d8 <prvUnlockQueue+0x34>
  4015c2:	e014      	b.n	4015ee <prvUnlockQueue+0x4a>
			{
				/* Tasks that are removed from the event list will get added to
				the pending ready list as the scheduler is still suspended. */
				if( xTaskRemoveFromEventList( &( pxQueue->xTasksWaitingToReceive ) ) != pdFALSE )
  4015c4:	f104 0624 	add.w	r6, r4, #36	; 0x24
  4015c8:	f642 05e5 	movw	r5, #10469	; 0x28e5
  4015cc:	f2c0 0540 	movt	r5, #64	; 0x40
				{
					/* The task waiting has a higher priority so record that a
					context	switch is required. */
					vTaskMissedYield();
  4015d0:	f642 2769 	movw	r7, #10857	; 0x2a69
  4015d4:	f2c0 0740 	movt	r7, #64	; 0x40
			blocked waiting for data to become available? */
			if( listLIST_IS_EMPTY( &( pxQueue->xTasksWaitingToReceive ) ) == pdFALSE )
			{
				/* Tasks that are removed from the event list will get added to
				the pending ready list as the scheduler is still suspended. */
				if( xTaskRemoveFromEventList( &( pxQueue->xTasksWaitingToReceive ) ) != pdFALSE )
  4015d8:	4630      	mov	r0, r6
  4015da:	47a8      	blx	r5
  4015dc:	b100      	cbz	r0, 4015e0 <prvUnlockQueue+0x3c>
				{
					/* The task waiting has a higher priority so record that a
					context	switch is required. */
					vTaskMissedYield();
  4015de:	47b8      	blx	r7
				}

				--( pxQueue->xTxLock );
  4015e0:	6ca2      	ldr	r2, [r4, #72]	; 0x48
  4015e2:	f102 33ff 	add.w	r3, r2, #4294967295
  4015e6:	64a3      	str	r3, [r4, #72]	; 0x48
	locked items can be added or removed, but the event lists cannot be
	updated. */
	taskENTER_CRITICAL();
	{
		/* See if data was added to the queue while it was locked. */
		while( pxQueue->xTxLock > queueLOCKED_UNMODIFIED )
  4015e8:	6ca0      	ldr	r0, [r4, #72]	; 0x48
  4015ea:	2800      	cmp	r0, #0
  4015ec:	dce7      	bgt.n	4015be <prvUnlockQueue+0x1a>
			{
				break;
			}
		}

		pxQueue->xTxLock = queueUNLOCKED;
  4015ee:	f04f 32ff 	mov.w	r2, #4294967295
  4015f2:	64a2      	str	r2, [r4, #72]	; 0x48
	}
	taskEXIT_CRITICAL();
  4015f4:	f241 3309 	movw	r3, #4873	; 0x1309
  4015f8:	f2c0 0340 	movt	r3, #64	; 0x40
  4015fc:	4798      	blx	r3

	/* Do the same for the Rx lock. */
	taskENTER_CRITICAL();
  4015fe:	f241 20e1 	movw	r0, #4833	; 0x12e1
  401602:	f2c0 0040 	movt	r0, #64	; 0x40
  401606:	4780      	blx	r0
	{
		while( pxQueue->xRxLock > queueLOCKED_UNMODIFIED )
  401608:	6c61      	ldr	r1, [r4, #68]	; 0x44
  40160a:	2900      	cmp	r1, #0
  40160c:	dd1a      	ble.n	401644 <prvUnlockQueue+0xa0>
		{
			if( listLIST_IS_EMPTY( &( pxQueue->xTasksWaitingToSend ) ) == pdFALSE )
  40160e:	6922      	ldr	r2, [r4, #16]
  401610:	b91a      	cbnz	r2, 40161a <prvUnlockQueue+0x76>
  401612:	e017      	b.n	401644 <prvUnlockQueue+0xa0>
  401614:	6922      	ldr	r2, [r4, #16]
  401616:	b952      	cbnz	r2, 40162e <prvUnlockQueue+0x8a>
  401618:	e014      	b.n	401644 <prvUnlockQueue+0xa0>
			{
				if( xTaskRemoveFromEventList( &( pxQueue->xTasksWaitingToSend ) ) != pdFALSE )
  40161a:	f104 0610 	add.w	r6, r4, #16
  40161e:	f642 05e5 	movw	r5, #10469	; 0x28e5
  401622:	f2c0 0540 	movt	r5, #64	; 0x40
				{
					vTaskMissedYield();
  401626:	f642 2769 	movw	r7, #10857	; 0x2a69
  40162a:	f2c0 0740 	movt	r7, #64	; 0x40
	{
		while( pxQueue->xRxLock > queueLOCKED_UNMODIFIED )
		{
			if( listLIST_IS_EMPTY( &( pxQueue->xTasksWaitingToSend ) ) == pdFALSE )
			{
				if( xTaskRemoveFromEventList( &( pxQueue->xTasksWaitingToSend ) ) != pdFALSE )
  40162e:	4630      	mov	r0, r6
  401630:	47a8      	blx	r5
  401632:	b100      	cbz	r0, 401636 <prvUnlockQueue+0x92>
				{
					vTaskMissedYield();
  401634:	47b8      	blx	r7
				}

				--( pxQueue->xRxLock );
  401636:	6c63      	ldr	r3, [r4, #68]	; 0x44
  401638:	f103 30ff 	add.w	r0, r3, #4294967295
  40163c:	6460      	str	r0, [r4, #68]	; 0x44
	taskEXIT_CRITICAL();

	/* Do the same for the Rx lock. */
	taskENTER_CRITICAL();
	{
		while( pxQueue->xRxLock > queueLOCKED_UNMODIFIED )
  40163e:	6c61      	ldr	r1, [r4, #68]	; 0x44
  401640:	2900      	cmp	r1, #0
  401642:	dce7      	bgt.n	401614 <prvUnlockQueue+0x70>
			{
				break;
			}
		}

		pxQueue->xRxLock = queueUNLOCKED;
  401644:	f04f 33ff 	mov.w	r3, #4294967295
  401648:	6463      	str	r3, [r4, #68]	; 0x44
	}
	taskEXIT_CRITICAL();
  40164a:	f241 3009 	movw	r0, #4873	; 0x1309
  40164e:	f2c0 0040 	movt	r0, #64	; 0x40
  401652:	4780      	blx	r0
  401654:	bdf8      	pop	{r3, r4, r5, r6, r7, pc}
  401656:	bf00      	nop

00401658 <prvCopyDataFromQueue>:
	++( pxQueue->uxMessagesWaiting );
}
/*-----------------------------------------------------------*/

static void prvCopyDataFromQueue( xQUEUE * const pxQueue, const void *pvBuffer )
{
  401658:	b538      	push	{r3, r4, r5, lr}
  40165a:	4603      	mov	r3, r0
	if( pxQueue->uxQueueType != queueQUEUE_IS_MUTEX )
  40165c:	6805      	ldr	r5, [r0, #0]
  40165e:	b175      	cbz	r5, 40167e <prvCopyDataFromQueue+0x26>
	{
		pxQueue->pcReadFrom += pxQueue->uxItemSize;
  401660:	6c02      	ldr	r2, [r0, #64]	; 0x40
  401662:	68c4      	ldr	r4, [r0, #12]
  401664:	18a4      	adds	r4, r4, r2
  401666:	60c4      	str	r4, [r0, #12]
		if( pxQueue->pcReadFrom >= pxQueue->pcTail )
  401668:	6840      	ldr	r0, [r0, #4]
  40166a:	4284      	cmp	r4, r0
		{
			pxQueue->pcReadFrom = pxQueue->pcHead;
  40166c:	bf28      	it	cs
  40166e:	60dd      	strcs	r5, [r3, #12]
		}
		memcpy( ( void * ) pvBuffer, ( void * ) pxQueue->pcReadFrom, ( unsigned ) pxQueue->uxItemSize );
  401670:	4608      	mov	r0, r1
  401672:	68d9      	ldr	r1, [r3, #12]
  401674:	f244 63bd 	movw	r3, #18109	; 0x46bd
  401678:	f2c0 0340 	movt	r3, #64	; 0x40
  40167c:	4798      	blx	r3
  40167e:	bd38      	pop	{r3, r4, r5, pc}

00401680 <prvCopyDataToQueue>:

#endif
/*-----------------------------------------------------------*/

static void prvCopyDataToQueue( xQUEUE *pxQueue, const void *pvItemToQueue, portBASE_TYPE xPosition )
{
  401680:	b510      	push	{r4, lr}
  401682:	4604      	mov	r4, r0
	if( pxQueue->uxItemSize == ( unsigned portBASE_TYPE ) 0 )
  401684:	6c03      	ldr	r3, [r0, #64]	; 0x40
  401686:	b963      	cbnz	r3, 4016a2 <prvCopyDataToQueue+0x22>
	{
		#if ( configUSE_MUTEXES == 1 )
		{
			if( pxQueue->uxQueueType == queueQUEUE_IS_MUTEX )
  401688:	6801      	ldr	r1, [r0, #0]
  40168a:	2900      	cmp	r1, #0
  40168c:	d12e      	bne.n	4016ec <prvCopyDataToQueue+0x6c>
			{
				/* The mutex is no longer being held. */
				vTaskPriorityDisinherit( ( void * ) pxQueue->pxMutexHolder );
  40168e:	6840      	ldr	r0, [r0, #4]
  401690:	f642 3355 	movw	r3, #11093	; 0x2b55
  401694:	f2c0 0340 	movt	r3, #64	; 0x40
  401698:	4798      	blx	r3
				pxQueue->pxMutexHolder = NULL;
  40169a:	f04f 0000 	mov.w	r0, #0
  40169e:	6060      	str	r0, [r4, #4]
  4016a0:	e024      	b.n	4016ec <prvCopyDataToQueue+0x6c>
			}
		}
		#endif
	}
	else if( xPosition == queueSEND_TO_BACK )
  4016a2:	b982      	cbnz	r2, 4016c6 <prvCopyDataToQueue+0x46>
	{
		memcpy( ( void * ) pxQueue->pcWriteTo, pvItemToQueue, ( unsigned ) pxQueue->uxItemSize );
  4016a4:	6880      	ldr	r0, [r0, #8]
  4016a6:	461a      	mov	r2, r3
  4016a8:	f244 63bd 	movw	r3, #18109	; 0x46bd
  4016ac:	f2c0 0340 	movt	r3, #64	; 0x40
  4016b0:	4798      	blx	r3
		pxQueue->pcWriteTo += pxQueue->uxItemSize;
  4016b2:	68a2      	ldr	r2, [r4, #8]
  4016b4:	6c21      	ldr	r1, [r4, #64]	; 0x40
  4016b6:	1850      	adds	r0, r2, r1
  4016b8:	60a0      	str	r0, [r4, #8]
		if( pxQueue->pcWriteTo >= pxQueue->pcTail )
  4016ba:	6863      	ldr	r3, [r4, #4]
  4016bc:	4298      	cmp	r0, r3
  4016be:	d315      	bcc.n	4016ec <prvCopyDataToQueue+0x6c>
		{
			pxQueue->pcWriteTo = pxQueue->pcHead;
  4016c0:	6822      	ldr	r2, [r4, #0]
  4016c2:	60a2      	str	r2, [r4, #8]
  4016c4:	e012      	b.n	4016ec <prvCopyDataToQueue+0x6c>
		}
	}
	else
	{
		memcpy( ( void * ) pxQueue->pcReadFrom, pvItemToQueue, ( unsigned ) pxQueue->uxItemSize );
  4016c6:	68c0      	ldr	r0, [r0, #12]
  4016c8:	461a      	mov	r2, r3
  4016ca:	f244 63bd 	movw	r3, #18109	; 0x46bd
  4016ce:	f2c0 0340 	movt	r3, #64	; 0x40
  4016d2:	4798      	blx	r3
		pxQueue->pcReadFrom -= pxQueue->uxItemSize;
  4016d4:	6c22      	ldr	r2, [r4, #64]	; 0x40
  4016d6:	f1c2 0000 	rsb	r0, r2, #0
  4016da:	68e1      	ldr	r1, [r4, #12]
  4016dc:	180b      	adds	r3, r1, r0
  4016de:	60e3      	str	r3, [r4, #12]
		if( pxQueue->pcReadFrom < pxQueue->pcHead )
  4016e0:	6822      	ldr	r2, [r4, #0]
  4016e2:	4293      	cmp	r3, r2
  4016e4:	d202      	bcs.n	4016ec <prvCopyDataToQueue+0x6c>
		{
			pxQueue->pcReadFrom = ( pxQueue->pcTail - pxQueue->uxItemSize );
  4016e6:	6861      	ldr	r1, [r4, #4]
  4016e8:	1808      	adds	r0, r1, r0
  4016ea:	60e0      	str	r0, [r4, #12]
		}
	}

	++( pxQueue->uxMessagesWaiting );
  4016ec:	6ba2      	ldr	r2, [r4, #56]	; 0x38
  4016ee:	f102 0201 	add.w	r2, r2, #1
  4016f2:	63a2      	str	r2, [r4, #56]	; 0x38
  4016f4:	bd10      	pop	{r4, pc}
  4016f6:	bf00      	nop

004016f8 <xQueueGenericReset>:
/*-----------------------------------------------------------
 * PUBLIC QUEUE MANAGEMENT API documented in queue.h
 *----------------------------------------------------------*/

portBASE_TYPE xQueueGenericReset( xQueueHandle pxQueue, portBASE_TYPE xNewQueue )
{
  4016f8:	b538      	push	{r3, r4, r5, lr}
  4016fa:	460d      	mov	r5, r1
	configASSERT( pxQueue );
  4016fc:	4604      	mov	r4, r0
  4016fe:	b930      	cbnz	r0, 40170e <xQueueGenericReset+0x16>
  401700:	f241 24cd 	movw	r4, #4813	; 0x12cd
  401704:	f2c0 0440 	movt	r4, #64	; 0x40
  401708:	47a0      	blx	r4
  40170a:	bf00      	nop
  40170c:	e7fd      	b.n	40170a <xQueueGenericReset+0x12>

	taskENTER_CRITICAL();
  40170e:	f241 23e1 	movw	r3, #4833	; 0x12e1
  401712:	f2c0 0340 	movt	r3, #64	; 0x40
  401716:	4798      	blx	r3
	{
		pxQueue->pcTail = pxQueue->pcHead + ( pxQueue->uxLength * pxQueue->uxItemSize );
  401718:	6823      	ldr	r3, [r4, #0]
  40171a:	6be0      	ldr	r0, [r4, #60]	; 0x3c
  40171c:	6c22      	ldr	r2, [r4, #64]	; 0x40
  40171e:	fb00 3102 	mla	r1, r0, r2, r3
  401722:	6061      	str	r1, [r4, #4]
		pxQueue->uxMessagesWaiting = ( unsigned portBASE_TYPE ) 0U;
  401724:	f04f 0100 	mov.w	r1, #0
  401728:	63a1      	str	r1, [r4, #56]	; 0x38
		pxQueue->pcWriteTo = pxQueue->pcHead;
  40172a:	60a3      	str	r3, [r4, #8]
		pxQueue->pcReadFrom = pxQueue->pcHead + ( ( pxQueue->uxLength - ( unsigned portBASE_TYPE ) 1U ) * pxQueue->uxItemSize );
  40172c:	f100 30ff 	add.w	r0, r0, #4294967295
  401730:	fb02 3300 	mla	r3, r2, r0, r3
  401734:	60e3      	str	r3, [r4, #12]
		pxQueue->xRxLock = queueUNLOCKED;
  401736:	f04f 32ff 	mov.w	r2, #4294967295
  40173a:	6462      	str	r2, [r4, #68]	; 0x44
		pxQueue->xTxLock = queueUNLOCKED;
  40173c:	64a2      	str	r2, [r4, #72]	; 0x48

		if( xNewQueue == pdFALSE )
  40173e:	b985      	cbnz	r5, 401762 <xQueueGenericReset+0x6a>
			/* If there are tasks blocked waiting to read from the queue, then
			the tasks will remain blocked as after this function exits the queue
			will still be empty.  If there are tasks blocked waiting to	write to
			the queue, then one should be unblocked as after this function exits
			it will be possible to write to it. */
			if( listLIST_IS_EMPTY( &( pxQueue->xTasksWaitingToSend ) ) == pdFALSE )
  401740:	6921      	ldr	r1, [r4, #16]
  401742:	b1c1      	cbz	r1, 401776 <xQueueGenericReset+0x7e>
			{
				if( xTaskRemoveFromEventList( &( pxQueue->xTasksWaitingToSend ) ) == pdTRUE )
  401744:	f104 0010 	add.w	r0, r4, #16
  401748:	f642 03e5 	movw	r3, #10469	; 0x28e5
  40174c:	f2c0 0340 	movt	r3, #64	; 0x40
  401750:	4798      	blx	r3
  401752:	2801      	cmp	r0, #1
  401754:	d10f      	bne.n	401776 <xQueueGenericReset+0x7e>
				{
					portYIELD_WITHIN_API();
  401756:	f241 20bd 	movw	r0, #4797	; 0x12bd
  40175a:	f2c0 0040 	movt	r0, #64	; 0x40
  40175e:	4780      	blx	r0
  401760:	e009      	b.n	401776 <xQueueGenericReset+0x7e>
			}
		}
		else
		{
			/* Ensure the event queues start in the correct state. */
			vListInitialise( &( pxQueue->xTasksWaitingToSend ) );
  401762:	f104 0010 	add.w	r0, r4, #16
  401766:	f241 15c1 	movw	r5, #4545	; 0x11c1
  40176a:	f2c0 0540 	movt	r5, #64	; 0x40
  40176e:	47a8      	blx	r5
			vListInitialise( &( pxQueue->xTasksWaitingToReceive ) );
  401770:	f104 0024 	add.w	r0, r4, #36	; 0x24
  401774:	47a8      	blx	r5
		}
	}
	taskEXIT_CRITICAL();
  401776:	f241 3209 	movw	r2, #4873	; 0x1309
  40177a:	f2c0 0240 	movt	r2, #64	; 0x40
  40177e:	4790      	blx	r2

	/* A value is returned for calling semantic consistency with previous
	versions. */
	return pdPASS;
}
  401780:	f04f 0001 	mov.w	r0, #1
  401784:	bd38      	pop	{r3, r4, r5, pc}
  401786:	bf00      	nop

00401788 <xQueueGenericCreate>:
/*-----------------------------------------------------------*/

xQueueHandle xQueueGenericCreate( unsigned portBASE_TYPE uxQueueLength, unsigned portBASE_TYPE uxItemSize, unsigned char ucQueueType )
{
  401788:	b5f8      	push	{r3, r4, r5, r6, r7, lr}
  40178a:	460d      	mov	r5, r1
  40178c:	4617      	mov	r7, r2
	/* Remove compiler warnings about unused parameters should
	configUSE_TRACE_FACILITY not be set to 1. */
	( void ) ucQueueType;

	/* Allocate the new queue structure. */
	if( uxQueueLength > ( unsigned portBASE_TYPE ) 0 )
  40178e:	4606      	mov	r6, r0
  401790:	b1e0      	cbz	r0, 4017cc <xQueueGenericCreate+0x44>
	{
		pxNewQueue = ( xQUEUE * ) pvPortMalloc( sizeof( xQUEUE ) );
  401792:	f04f 0050 	mov.w	r0, #80	; 0x50
  401796:	f241 435d 	movw	r3, #5213	; 0x145d
  40179a:	f2c0 0340 	movt	r3, #64	; 0x40
  40179e:	4798      	blx	r3
		if( pxNewQueue != NULL )
  4017a0:	4604      	mov	r4, r0
  4017a2:	b198      	cbz	r0, 4017cc <xQueueGenericCreate+0x44>
		{
			/* Create the list of pointers to queue items.  The queue is one byte
			longer than asked for to make wrap checking easier/faster. */
			xQueueSizeInBytes = ( size_t ) ( uxQueueLength * uxItemSize ) + ( size_t ) 1;
  4017a4:	fb06 f005 	mul.w	r0, r6, r5

			pxNewQueue->pcHead = ( signed char * ) pvPortMalloc( xQueueSizeInBytes );
  4017a8:	f100 0001 	add.w	r0, r0, #1
  4017ac:	f241 415d 	movw	r1, #5213	; 0x145d
  4017b0:	f2c0 0140 	movt	r1, #64	; 0x40
  4017b4:	4788      	blx	r1
  4017b6:	6020      	str	r0, [r4, #0]
			if( pxNewQueue->pcHead != NULL )
  4017b8:	b970      	cbnz	r0, 4017d8 <xQueueGenericCreate+0x50>
				xReturn = pxNewQueue;
			}
			else
			{
				traceQUEUE_CREATE_FAILED( ucQueueType );
				vPortFree( pxNewQueue );
  4017ba:	4620      	mov	r0, r4
  4017bc:	f241 5269 	movw	r2, #5481	; 0x1569
  4017c0:	f2c0 0240 	movt	r2, #64	; 0x40
  4017c4:	4790      	blx	r2
  4017c6:	e001      	b.n	4017cc <xQueueGenericCreate+0x44>
			}
		}
	}

	configASSERT( xReturn );
  4017c8:	bf00      	nop
  4017ca:	e7fd      	b.n	4017c8 <xQueueGenericCreate+0x40>
  4017cc:	f241 20cd 	movw	r0, #4813	; 0x12cd
  4017d0:	f2c0 0040 	movt	r0, #64	; 0x40
  4017d4:	4780      	blx	r0
  4017d6:	e7f7      	b.n	4017c8 <xQueueGenericCreate+0x40>
			pxNewQueue->pcHead = ( signed char * ) pvPortMalloc( xQueueSizeInBytes );
			if( pxNewQueue->pcHead != NULL )
			{
				/* Initialise the queue members as described above where the
				queue type is defined. */
				pxNewQueue->uxLength = uxQueueLength;
  4017d8:	63e6      	str	r6, [r4, #60]	; 0x3c
				pxNewQueue->uxItemSize = uxItemSize;
  4017da:	6425      	str	r5, [r4, #64]	; 0x40
				xQueueGenericReset( pxNewQueue, pdTRUE );
  4017dc:	4620      	mov	r0, r4
  4017de:	f04f 0101 	mov.w	r1, #1
  4017e2:	f241 63f9 	movw	r3, #5881	; 0x16f9
  4017e6:	f2c0 0340 	movt	r3, #64	; 0x40
  4017ea:	4798      	blx	r3
				#if ( configUSE_TRACE_FACILITY == 1 )
				{
					pxNewQueue->ucQueueType = ucQueueType;
  4017ec:	f884 704d 	strb.w	r7, [r4, #77]	; 0x4d
	}

	configASSERT( xReturn );

	return xReturn;
}
  4017f0:	4620      	mov	r0, r4
  4017f2:	bdf8      	pop	{r3, r4, r5, r6, r7, pc}

004017f4 <xQueueGenericSend>:

#endif /* configUSE_COUNTING_SEMAPHORES */
/*-----------------------------------------------------------*/

signed portBASE_TYPE xQueueGenericSend( xQueueHandle pxQueue, const void * const pvItemToQueue, portTickType xTicksToWait, portBASE_TYPE xCopyPosition )
{
  4017f4:	e92d 4ff0 	stmdb	sp!, {r4, r5, r6, r7, r8, r9, sl, fp, lr}
  4017f8:	b085      	sub	sp, #20
  4017fa:	468a      	mov	sl, r1
  4017fc:	9201      	str	r2, [sp, #4]
  4017fe:	9300      	str	r3, [sp, #0]
signed portBASE_TYPE xEntryTimeSet = pdFALSE;
xTimeOutType xTimeOut;

	configASSERT( pxQueue );
  401800:	4604      	mov	r4, r0
  401802:	b930      	cbnz	r0, 401812 <xQueueGenericSend+0x1e>
  401804:	f241 24cd 	movw	r4, #4813	; 0x12cd
  401808:	f2c0 0440 	movt	r4, #64	; 0x40
  40180c:	47a0      	blx	r4
  40180e:	bf00      	nop
  401810:	e7fd      	b.n	40180e <xQueueGenericSend+0x1a>
	configASSERT( !( ( pvItemToQueue == NULL ) && ( pxQueue->uxItemSize != ( unsigned portBASE_TYPE ) 0U ) ) );
  401812:	b941      	cbnz	r1, 401826 <xQueueGenericSend+0x32>
  401814:	6c03      	ldr	r3, [r0, #64]	; 0x40
  401816:	b14b      	cbz	r3, 40182c <xQueueGenericSend+0x38>
  401818:	f241 20cd 	movw	r0, #4813	; 0x12cd
  40181c:	f2c0 0040 	movt	r0, #64	; 0x40
  401820:	4780      	blx	r0
  401822:	bf00      	nop
  401824:	e7fd      	b.n	401822 <xQueueGenericSend+0x2e>
  401826:	f04f 0700 	mov.w	r7, #0
  40182a:	e001      	b.n	401830 <xQueueGenericSend+0x3c>
  40182c:	f04f 0700 	mov.w	r7, #0
	/* This function relaxes the coding standard somewhat to allow return
	statements within the function itself.  This is done in the interest
	of execution time efficiency. */
	for( ;; )
	{
		taskENTER_CRITICAL();
  401830:	f241 26e1 	movw	r6, #4833	; 0x12e1
  401834:	f2c0 0640 	movt	r6, #64	; 0x40
				}
				else if( xEntryTimeSet == pdFALSE )
				{
					/* The queue was full and a block time was specified so
					configure the timeout structure. */
					vTaskSetTimeOutState( &xTimeOut );
  401838:	f642 1b8d 	movw	fp, #10637	; 0x298d
  40183c:	f2c0 0b40 	movt	fp, #64	; 0x40
					xEntryTimeSet = pdTRUE;
				}
			}
		}
		taskEXIT_CRITICAL();
  401840:	f241 3509 	movw	r5, #4873	; 0x1309
  401844:	f2c0 0540 	movt	r5, #64	; 0x40
	/* This function relaxes the coding standard somewhat to allow return
	statements within the function itself.  This is done in the interest
	of execution time efficiency. */
	for( ;; )
	{
		taskENTER_CRITICAL();
  401848:	47b0      	blx	r6
		{
			/* Is there room on the queue now?  To be running we must be
			the highest priority task wanting to access the queue. */
			if( pxQueue->uxMessagesWaiting < pxQueue->uxLength )
  40184a:	6ba2      	ldr	r2, [r4, #56]	; 0x38
  40184c:	6be1      	ldr	r1, [r4, #60]	; 0x3c
  40184e:	428a      	cmp	r2, r1
  401850:	d21f      	bcs.n	401892 <xQueueGenericSend+0x9e>
			{
				traceQUEUE_SEND( pxQueue );
				prvCopyDataToQueue( pxQueue, pvItemToQueue, xCopyPosition );
  401852:	4620      	mov	r0, r4
  401854:	4651      	mov	r1, sl
  401856:	9a00      	ldr	r2, [sp, #0]
  401858:	f241 6381 	movw	r3, #5761	; 0x1681
  40185c:	f2c0 0340 	movt	r3, #64	; 0x40
  401860:	4798      	blx	r3

				/* If there was a task waiting for data to arrive on the
				queue then unblock it now. */
				if( listLIST_IS_EMPTY( &( pxQueue->xTasksWaitingToReceive ) ) == pdFALSE )
  401862:	6a61      	ldr	r1, [r4, #36]	; 0x24
  401864:	b169      	cbz	r1, 401882 <xQueueGenericSend+0x8e>
				{
					if( xTaskRemoveFromEventList( &( pxQueue->xTasksWaitingToReceive ) ) == pdTRUE )
  401866:	f104 0024 	add.w	r0, r4, #36	; 0x24
  40186a:	f642 02e5 	movw	r2, #10469	; 0x28e5
  40186e:	f2c0 0240 	movt	r2, #64	; 0x40
  401872:	4790      	blx	r2
  401874:	2801      	cmp	r0, #1
  401876:	d104      	bne.n	401882 <xQueueGenericSend+0x8e>
					{
						/* The unblocked task has a priority higher than
						our own so yield immediately.  Yes it is ok to do
						this from within the critical section - the kernel
						takes care of that. */
						portYIELD_WITHIN_API();
  401878:	f241 20bd 	movw	r0, #4797	; 0x12bd
  40187c:	f2c0 0040 	movt	r0, #64	; 0x40
  401880:	4780      	blx	r0
					}
				}

				taskEXIT_CRITICAL();
  401882:	f241 3309 	movw	r3, #4873	; 0x1309
  401886:	f2c0 0340 	movt	r3, #64	; 0x40
  40188a:	4798      	blx	r3

				/* Return to the original privilege level before exiting the
				function. */
				return pdPASS;
  40188c:	f04f 0001 	mov.w	r0, #1
  401890:	e066      	b.n	401960 <xQueueGenericSend+0x16c>
			}
			else
			{
				if( xTicksToWait == ( portTickType ) 0 )
  401892:	9b01      	ldr	r3, [sp, #4]
  401894:	b93b      	cbnz	r3, 4018a6 <xQueueGenericSend+0xb2>
				{
					/* The queue was full and no block time is specified (or
					the block time has expired) so leave now. */
					taskEXIT_CRITICAL();
  401896:	f241 3209 	movw	r2, #4873	; 0x1309
  40189a:	f2c0 0240 	movt	r2, #64	; 0x40
  40189e:	4790      	blx	r2

					/* Return to the original privilege level before exiting
					the function. */
					traceQUEUE_SEND_FAILED( pxQueue );
					return errQUEUE_FULL;
  4018a0:	f04f 0000 	mov.w	r0, #0
  4018a4:	e05c      	b.n	401960 <xQueueGenericSend+0x16c>
				}
				else if( xEntryTimeSet == pdFALSE )
  4018a6:	b91f      	cbnz	r7, 4018b0 <xQueueGenericSend+0xbc>
				{
					/* The queue was full and a block time was specified so
					configure the timeout structure. */
					vTaskSetTimeOutState( &xTimeOut );
  4018a8:	a802      	add	r0, sp, #8
  4018aa:	47d8      	blx	fp
					xEntryTimeSet = pdTRUE;
  4018ac:	f04f 0701 	mov.w	r7, #1
				}
			}
		}
		taskEXIT_CRITICAL();
  4018b0:	47a8      	blx	r5

		/* Interrupts and other tasks can send to and receive from the queue
		now the critical section has been exited. */

		vTaskSuspendAll();
  4018b2:	f242 2091 	movw	r0, #8849	; 0x2291
  4018b6:	f2c0 0040 	movt	r0, #64	; 0x40
  4018ba:	4780      	blx	r0
		prvLockQueue( pxQueue );
  4018bc:	47b0      	blx	r6
  4018be:	6c62      	ldr	r2, [r4, #68]	; 0x44
  4018c0:	f1b2 3fff 	cmp.w	r2, #4294967295
  4018c4:	bf04      	itt	eq
  4018c6:	2200      	moveq	r2, #0
  4018c8:	6462      	streq	r2, [r4, #68]	; 0x44
  4018ca:	6ca1      	ldr	r1, [r4, #72]	; 0x48
  4018cc:	f1b1 3fff 	cmp.w	r1, #4294967295
  4018d0:	bf04      	itt	eq
  4018d2:	2100      	moveq	r1, #0
  4018d4:	64a1      	streq	r1, [r4, #72]	; 0x48
  4018d6:	47a8      	blx	r5

		/* Update the timeout state to see if it has expired yet. */
		if( xTaskCheckForTimeOut( &xTimeOut, &xTicksToWait ) == pdFALSE )
  4018d8:	a802      	add	r0, sp, #8
  4018da:	a901      	add	r1, sp, #4
  4018dc:	f642 13bd 	movw	r3, #10685	; 0x29bd
  4018e0:	f2c0 0340 	movt	r3, #64	; 0x40
  4018e4:	4798      	blx	r3
  4018e6:	bb70      	cbnz	r0, 401946 <xQueueGenericSend+0x152>

static signed portBASE_TYPE prvIsQueueFull( const xQueueHandle pxQueue )
{
signed portBASE_TYPE xReturn;

	taskENTER_CRITICAL();
  4018e8:	47b0      	blx	r6
		xReturn = ( pxQueue->uxMessagesWaiting == pxQueue->uxLength );
  4018ea:	f8d4 9038 	ldr.w	r9, [r4, #56]	; 0x38
  4018ee:	f8d4 803c 	ldr.w	r8, [r4, #60]	; 0x3c
	taskEXIT_CRITICAL();
  4018f2:	47a8      	blx	r5
		prvLockQueue( pxQueue );

		/* Update the timeout state to see if it has expired yet. */
		if( xTaskCheckForTimeOut( &xTimeOut, &xTicksToWait ) == pdFALSE )
		{
			if( prvIsQueueFull( pxQueue ) != pdFALSE )
  4018f4:	45c1      	cmp	r9, r8
  4018f6:	d11a      	bne.n	40192e <xQueueGenericSend+0x13a>
			{
				traceBLOCKING_ON_QUEUE_SEND( pxQueue );
				vTaskPlaceOnEventList( &( pxQueue->xTasksWaitingToSend ), xTicksToWait );
  4018f8:	f104 0010 	add.w	r0, r4, #16
  4018fc:	9901      	ldr	r1, [sp, #4]
  4018fe:	f642 021d 	movw	r2, #10269	; 0x281d
  401902:	f2c0 0240 	movt	r2, #64	; 0x40
  401906:	4790      	blx	r2
				/* Unlocking the queue means queue events can effect the
				event list.  It is possible	that interrupts occurring now
				remove this task from the event	list again - but as the
				scheduler is suspended the task will go onto the pending
				ready last instead of the actual ready list. */
				prvUnlockQueue( pxQueue );
  401908:	4620      	mov	r0, r4
  40190a:	f241 51a5 	movw	r1, #5541	; 0x15a5
  40190e:	f2c0 0140 	movt	r1, #64	; 0x40
  401912:	4788      	blx	r1
				/* Resuming the scheduler will move tasks from the pending
				ready list into the ready list - so it is feasible that this
				task is already in a ready list before it yields - in which
				case the yield will not cause a context switch unless there
				is also a higher priority task in the pending ready list. */
				if( xTaskResumeAll() == pdFALSE )
  401914:	f242 4059 	movw	r0, #9305	; 0x2459
  401918:	f2c0 0040 	movt	r0, #64	; 0x40
  40191c:	4780      	blx	r0
  40191e:	2800      	cmp	r0, #0
  401920:	d192      	bne.n	401848 <xQueueGenericSend+0x54>
				{
					portYIELD_WITHIN_API();
  401922:	f241 23bd 	movw	r3, #4797	; 0x12bd
  401926:	f2c0 0340 	movt	r3, #64	; 0x40
  40192a:	4798      	blx	r3
  40192c:	e78c      	b.n	401848 <xQueueGenericSend+0x54>
				}
			}
			else
			{
				/* Try again. */
				prvUnlockQueue( pxQueue );
  40192e:	4620      	mov	r0, r4
  401930:	f241 51a5 	movw	r1, #5541	; 0x15a5
  401934:	f2c0 0140 	movt	r1, #64	; 0x40
  401938:	4788      	blx	r1
				( void ) xTaskResumeAll();
  40193a:	f242 4359 	movw	r3, #9305	; 0x2459
  40193e:	f2c0 0340 	movt	r3, #64	; 0x40
  401942:	4798      	blx	r3
  401944:	e780      	b.n	401848 <xQueueGenericSend+0x54>
			}
		}
		else
		{
			/* The timeout has expired. */
			prvUnlockQueue( pxQueue );
  401946:	4620      	mov	r0, r4
  401948:	f241 52a5 	movw	r2, #5541	; 0x15a5
  40194c:	f2c0 0240 	movt	r2, #64	; 0x40
  401950:	4790      	blx	r2
			( void ) xTaskResumeAll();
  401952:	f242 4059 	movw	r0, #9305	; 0x2459
  401956:	f2c0 0040 	movt	r0, #64	; 0x40
  40195a:	4780      	blx	r0

			/* Return to the original privilege level before exiting the
			function. */
			traceQUEUE_SEND_FAILED( pxQueue );
			return errQUEUE_FULL;
  40195c:	f04f 0000 	mov.w	r0, #0
		}
	}
}
  401960:	b005      	add	sp, #20
  401962:	e8bd 8ff0 	ldmia.w	sp!, {r4, r5, r6, r7, r8, r9, sl, fp, pc}
  401966:	bf00      	nop

00401968 <xQueueGenericSendFromISR>:

#endif /* configUSE_ALTERNATIVE_API */
/*-----------------------------------------------------------*/

signed portBASE_TYPE xQueueGenericSendFromISR( xQueueHandle pxQueue, const void * const pvItemToQueue, signed portBASE_TYPE *pxHigherPriorityTaskWoken, portBASE_TYPE xCopyPosition )
{
  401968:	e92d 41f0 	stmdb	sp!, {r4, r5, r6, r7, r8, lr}
  40196c:	460e      	mov	r6, r1
  40196e:	4615      	mov	r5, r2
  401970:	4698      	mov	r8, r3
signed portBASE_TYPE xReturn;
unsigned portBASE_TYPE uxSavedInterruptStatus;

	configASSERT( pxQueue );
  401972:	4604      	mov	r4, r0
  401974:	b930      	cbnz	r0, 401984 <xQueueGenericSendFromISR+0x1c>
  401976:	f241 25cd 	movw	r5, #4813	; 0x12cd
  40197a:	f2c0 0540 	movt	r5, #64	; 0x40
  40197e:	47a8      	blx	r5
  401980:	bf00      	nop
  401982:	e7fd      	b.n	401980 <xQueueGenericSendFromISR+0x18>
	configASSERT( !( ( pvItemToQueue == NULL ) && ( pxQueue->uxItemSize != ( unsigned portBASE_TYPE ) 0U ) ) );
  401984:	b941      	cbnz	r1, 401998 <xQueueGenericSendFromISR+0x30>
  401986:	6c03      	ldr	r3, [r0, #64]	; 0x40
  401988:	b133      	cbz	r3, 401998 <xQueueGenericSendFromISR+0x30>
  40198a:	f241 20cd 	movw	r0, #4813	; 0x12cd
  40198e:	f2c0 0040 	movt	r0, #64	; 0x40
  401992:	4780      	blx	r0
  401994:	bf00      	nop
  401996:	e7fd      	b.n	401994 <xQueueGenericSendFromISR+0x2c>
	/* Similar to xQueueGenericSend, except we don't block if there is no room
	in the queue.  Also we don't directly wake a task that was blocked on a
	queue read, instead we return a flag to say whether a context switch is
	required or not (i.e. has a task with a higher priority than us been woken
	by this	post). */
	uxSavedInterruptStatus = portSET_INTERRUPT_MASK_FROM_ISR();
  401998:	f241 21cd 	movw	r1, #4813	; 0x12cd
  40199c:	f2c0 0140 	movt	r1, #64	; 0x40
  4019a0:	4788      	blx	r1
  4019a2:	4607      	mov	r7, r0
	{
		if( pxQueue->uxMessagesWaiting < pxQueue->uxLength )
  4019a4:	6ba2      	ldr	r2, [r4, #56]	; 0x38
  4019a6:	6be3      	ldr	r3, [r4, #60]	; 0x3c
  4019a8:	429a      	cmp	r2, r3
  4019aa:	d221      	bcs.n	4019f0 <xQueueGenericSendFromISR+0x88>
		{
			traceQUEUE_SEND_FROM_ISR( pxQueue );

			prvCopyDataToQueue( pxQueue, pvItemToQueue, xCopyPosition );
  4019ac:	4620      	mov	r0, r4
  4019ae:	4631      	mov	r1, r6
  4019b0:	4642      	mov	r2, r8
  4019b2:	f241 6381 	movw	r3, #5761	; 0x1681
  4019b6:	f2c0 0340 	movt	r3, #64	; 0x40
  4019ba:	4798      	blx	r3

			/* If the queue is locked we do not alter the event list.  This will
			be done when the queue is unlocked later. */
			if( pxQueue->xTxLock == queueUNLOCKED )
  4019bc:	6ca0      	ldr	r0, [r4, #72]	; 0x48
  4019be:	f1b0 3fff 	cmp.w	r0, #4294967295
  4019c2:	d10e      	bne.n	4019e2 <xQueueGenericSendFromISR+0x7a>
			{
				if( listLIST_IS_EMPTY( &( pxQueue->xTasksWaitingToReceive ) ) == pdFALSE )
  4019c4:	6a62      	ldr	r2, [r4, #36]	; 0x24
  4019c6:	b1b2      	cbz	r2, 4019f6 <xQueueGenericSendFromISR+0x8e>
				{
					if( xTaskRemoveFromEventList( &( pxQueue->xTasksWaitingToReceive ) ) != pdFALSE )
  4019c8:	f104 0024 	add.w	r0, r4, #36	; 0x24
  4019cc:	f642 04e5 	movw	r4, #10469	; 0x28e5
  4019d0:	f2c0 0440 	movt	r4, #64	; 0x40
  4019d4:	47a0      	blx	r4
  4019d6:	b188      	cbz	r0, 4019fc <xQueueGenericSendFromISR+0x94>
					{
						/* The task waiting has a higher priority so record that a
						context	switch is required. */
						if( pxHigherPriorityTaskWoken != NULL )
  4019d8:	b19d      	cbz	r5, 401a02 <xQueueGenericSendFromISR+0x9a>
						{
							*pxHigherPriorityTaskWoken = pdTRUE;
  4019da:	f04f 0401 	mov.w	r4, #1
  4019de:	602c      	str	r4, [r5, #0]
  4019e0:	e011      	b.n	401a06 <xQueueGenericSendFromISR+0x9e>
			}
			else
			{
				/* Increment the lock count so the task that unlocks the queue
				knows that data was posted while it was locked. */
				++( pxQueue->xTxLock );
  4019e2:	6ca1      	ldr	r1, [r4, #72]	; 0x48
  4019e4:	f101 0101 	add.w	r1, r1, #1
  4019e8:	64a1      	str	r1, [r4, #72]	; 0x48
			}

			xReturn = pdPASS;
  4019ea:	f04f 0401 	mov.w	r4, #1
  4019ee:	e00a      	b.n	401a06 <xQueueGenericSendFromISR+0x9e>
		}
		else
		{
			traceQUEUE_SEND_FROM_ISR_FAILED( pxQueue );
			xReturn = errQUEUE_FULL;
  4019f0:	f04f 0400 	mov.w	r4, #0
  4019f4:	e007      	b.n	401a06 <xQueueGenericSendFromISR+0x9e>
				/* Increment the lock count so the task that unlocks the queue
				knows that data was posted while it was locked. */
				++( pxQueue->xTxLock );
			}

			xReturn = pdPASS;
  4019f6:	f04f 0401 	mov.w	r4, #1
  4019fa:	e004      	b.n	401a06 <xQueueGenericSendFromISR+0x9e>
  4019fc:	f04f 0401 	mov.w	r4, #1
  401a00:	e001      	b.n	401a06 <xQueueGenericSendFromISR+0x9e>
  401a02:	f04f 0401 	mov.w	r4, #1
		{
			traceQUEUE_SEND_FROM_ISR_FAILED( pxQueue );
			xReturn = errQUEUE_FULL;
		}
	}
	portCLEAR_INTERRUPT_MASK_FROM_ISR( uxSavedInterruptStatus );
  401a06:	4638      	mov	r0, r7
  401a08:	f241 3301 	movw	r3, #4865	; 0x1301
  401a0c:	f2c0 0340 	movt	r3, #64	; 0x40
  401a10:	4798      	blx	r3

	return xReturn;
}
  401a12:	4620      	mov	r0, r4
  401a14:	e8bd 81f0 	ldmia.w	sp!, {r4, r5, r6, r7, r8, pc}

00401a18 <xQueueGenericReceive>:
/*-----------------------------------------------------------*/

signed portBASE_TYPE xQueueGenericReceive( xQueueHandle pxQueue, void * const pvBuffer, portTickType xTicksToWait, portBASE_TYPE xJustPeeking )
{
  401a18:	e92d 4ff0 	stmdb	sp!, {r4, r5, r6, r7, r8, r9, sl, fp, lr}
  401a1c:	b085      	sub	sp, #20
  401a1e:	4689      	mov	r9, r1
  401a20:	9201      	str	r2, [sp, #4]
  401a22:	469a      	mov	sl, r3
signed portBASE_TYPE xEntryTimeSet = pdFALSE;
xTimeOutType xTimeOut;
signed char *pcOriginalReadPosition;

	configASSERT( pxQueue );
  401a24:	4604      	mov	r4, r0
  401a26:	b930      	cbnz	r0, 401a36 <xQueueGenericReceive+0x1e>
  401a28:	f241 24cd 	movw	r4, #4813	; 0x12cd
  401a2c:	f2c0 0440 	movt	r4, #64	; 0x40
  401a30:	47a0      	blx	r4
  401a32:	bf00      	nop
  401a34:	e7fd      	b.n	401a32 <xQueueGenericReceive+0x1a>
	configASSERT( !( ( pvBuffer == NULL ) && ( pxQueue->uxItemSize != ( unsigned portBASE_TYPE ) 0U ) ) );
  401a36:	b941      	cbnz	r1, 401a4a <xQueueGenericReceive+0x32>
  401a38:	6c03      	ldr	r3, [r0, #64]	; 0x40
  401a3a:	b14b      	cbz	r3, 401a50 <xQueueGenericReceive+0x38>
  401a3c:	f241 20cd 	movw	r0, #4813	; 0x12cd
  401a40:	f2c0 0040 	movt	r0, #64	; 0x40
  401a44:	4780      	blx	r0
  401a46:	bf00      	nop
  401a48:	e7fd      	b.n	401a46 <xQueueGenericReceive+0x2e>
  401a4a:	f04f 0700 	mov.w	r7, #0
  401a4e:	e001      	b.n	401a54 <xQueueGenericReceive+0x3c>
  401a50:	f04f 0700 	mov.w	r7, #0
	statements within the function itself.  This is done in the interest
	of execution time efficiency. */

	for( ;; )
	{
		taskENTER_CRITICAL();
  401a54:	f241 26e1 	movw	r6, #4833	; 0x12e1
  401a58:	f2c0 0640 	movt	r6, #64	; 0x40
				}
				else if( xEntryTimeSet == pdFALSE )
				{
					/* The queue was empty and a block time was specified so
					configure the timeout structure. */
					vTaskSetTimeOutState( &xTimeOut );
  401a5c:	f642 1b8d 	movw	fp, #10637	; 0x298d
  401a60:	f2c0 0b40 	movt	fp, #64	; 0x40
					xEntryTimeSet = pdTRUE;
				}
			}
		}
		taskEXIT_CRITICAL();
  401a64:	f241 3509 	movw	r5, #4873	; 0x1309
  401a68:	f2c0 0540 	movt	r5, #64	; 0x40
	statements within the function itself.  This is done in the interest
	of execution time efficiency. */

	for( ;; )
	{
		taskENTER_CRITICAL();
  401a6c:	47b0      	blx	r6
		{
			/* Is there data in the queue now?  To be running we must be
			the highest priority task wanting to access the queue. */
			if( pxQueue->uxMessagesWaiting > ( unsigned portBASE_TYPE ) 0 )
  401a6e:	6ba1      	ldr	r1, [r4, #56]	; 0x38
  401a70:	2900      	cmp	r1, #0
  401a72:	d03f      	beq.n	401af4 <xQueueGenericReceive+0xdc>
			{
				/* Remember our read position in case we are just peeking. */
				pcOriginalReadPosition = pxQueue->pcReadFrom;
  401a74:	68e5      	ldr	r5, [r4, #12]

				prvCopyDataFromQueue( pxQueue, pvBuffer );
  401a76:	4620      	mov	r0, r4
  401a78:	4649      	mov	r1, r9
  401a7a:	f241 6359 	movw	r3, #5721	; 0x1659
  401a7e:	f2c0 0340 	movt	r3, #64	; 0x40
  401a82:	4798      	blx	r3

				if( xJustPeeking == pdFALSE )
  401a84:	f1ba 0f00 	cmp.w	sl, #0
  401a88:	d11c      	bne.n	401ac4 <xQueueGenericReceive+0xac>
				{
					traceQUEUE_RECEIVE( pxQueue );

					/* We are actually removing data. */
					--( pxQueue->uxMessagesWaiting );
  401a8a:	6ba3      	ldr	r3, [r4, #56]	; 0x38
  401a8c:	f103 30ff 	add.w	r0, r3, #4294967295
  401a90:	63a0      	str	r0, [r4, #56]	; 0x38

					#if ( configUSE_MUTEXES == 1 )
					{
						if( pxQueue->uxQueueType == queueQUEUE_IS_MUTEX )
  401a92:	6821      	ldr	r1, [r4, #0]
  401a94:	b929      	cbnz	r1, 401aa2 <xQueueGenericReceive+0x8a>
						{
							/* Record the information required to implement
							priority inheritance should it become necessary. */
							pxQueue->pxMutexHolder = xTaskGetCurrentTaskHandle();
  401a96:	f642 2279 	movw	r2, #10873	; 0x2a79
  401a9a:	f2c0 0240 	movt	r2, #64	; 0x40
  401a9e:	4790      	blx	r2
  401aa0:	6060      	str	r0, [r4, #4]
						}
					}
					#endif

					if( listLIST_IS_EMPTY( &( pxQueue->xTasksWaitingToSend ) ) == pdFALSE )
  401aa2:	6923      	ldr	r3, [r4, #16]
  401aa4:	b1f3      	cbz	r3, 401ae4 <xQueueGenericReceive+0xcc>
					{
						if( xTaskRemoveFromEventList( &( pxQueue->xTasksWaitingToSend ) ) == pdTRUE )
  401aa6:	f104 0010 	add.w	r0, r4, #16
  401aaa:	f642 01e5 	movw	r1, #10469	; 0x28e5
  401aae:	f2c0 0140 	movt	r1, #64	; 0x40
  401ab2:	4788      	blx	r1
  401ab4:	2801      	cmp	r0, #1
  401ab6:	d115      	bne.n	401ae4 <xQueueGenericReceive+0xcc>
						{
							portYIELD_WITHIN_API();
  401ab8:	f241 20bd 	movw	r0, #4797	; 0x12bd
  401abc:	f2c0 0040 	movt	r0, #64	; 0x40
  401ac0:	4780      	blx	r0
  401ac2:	e00f      	b.n	401ae4 <xQueueGenericReceive+0xcc>
				{
					traceQUEUE_PEEK( pxQueue );

					/* We are not removing the data, so reset our read
					pointer. */
					pxQueue->pcReadFrom = pcOriginalReadPosition;
  401ac4:	60e5      	str	r5, [r4, #12]

					/* The data is being left in the queue, so see if there are
					any other tasks waiting for the data. */
					if( listLIST_IS_EMPTY( &( pxQueue->xTasksWaitingToReceive ) ) == pdFALSE )
  401ac6:	6a60      	ldr	r0, [r4, #36]	; 0x24
  401ac8:	b160      	cbz	r0, 401ae4 <xQueueGenericReceive+0xcc>
					{
						/* Tasks that are removed from the event list will get added to
						the pending ready list as the scheduler is still suspended. */
						if( xTaskRemoveFromEventList( &( pxQueue->xTasksWaitingToReceive ) ) != pdFALSE )
  401aca:	f104 0024 	add.w	r0, r4, #36	; 0x24
  401ace:	f642 01e5 	movw	r1, #10469	; 0x28e5
  401ad2:	f2c0 0140 	movt	r1, #64	; 0x40
  401ad6:	4788      	blx	r1
  401ad8:	b120      	cbz	r0, 401ae4 <xQueueGenericReceive+0xcc>
						{
							/* The task waiting has a higher priority than this task. */
							portYIELD_WITHIN_API();
  401ada:	f241 22bd 	movw	r2, #4797	; 0x12bd
  401ade:	f2c0 0240 	movt	r2, #64	; 0x40
  401ae2:	4790      	blx	r2
						}
					}
				}

				taskEXIT_CRITICAL();
  401ae4:	f241 3209 	movw	r2, #4873	; 0x1309
  401ae8:	f2c0 0240 	movt	r2, #64	; 0x40
  401aec:	4790      	blx	r2
				return pdPASS;
  401aee:	f04f 0001 	mov.w	r0, #1
  401af2:	e071      	b.n	401bd8 <xQueueGenericReceive+0x1c0>
			}
			else
			{
				if( xTicksToWait == ( portTickType ) 0 )
  401af4:	9a01      	ldr	r2, [sp, #4]
  401af6:	b93a      	cbnz	r2, 401b08 <xQueueGenericReceive+0xf0>
				{
					/* The queue was empty and no block time is specified (or
					the block time has expired) so leave now. */
					taskEXIT_CRITICAL();
  401af8:	f241 3209 	movw	r2, #4873	; 0x1309
  401afc:	f2c0 0240 	movt	r2, #64	; 0x40
  401b00:	4790      	blx	r2
					traceQUEUE_RECEIVE_FAILED( pxQueue );
					return errQUEUE_EMPTY;
  401b02:	f04f 0000 	mov.w	r0, #0
  401b06:	e067      	b.n	401bd8 <xQueueGenericReceive+0x1c0>
				}
				else if( xEntryTimeSet == pdFALSE )
  401b08:	b91f      	cbnz	r7, 401b12 <xQueueGenericReceive+0xfa>
				{
					/* The queue was empty and a block time was specified so
					configure the timeout structure. */
					vTaskSetTimeOutState( &xTimeOut );
  401b0a:	a802      	add	r0, sp, #8
  401b0c:	47d8      	blx	fp
					xEntryTimeSet = pdTRUE;
  401b0e:	f04f 0701 	mov.w	r7, #1
				}
			}
		}
		taskEXIT_CRITICAL();
  401b12:	47a8      	blx	r5

		/* Interrupts and other tasks can send to and receive from the queue
		now the critical section has been exited. */

		vTaskSuspendAll();
  401b14:	f242 2391 	movw	r3, #8849	; 0x2291
  401b18:	f2c0 0340 	movt	r3, #64	; 0x40
  401b1c:	4798      	blx	r3
		prvLockQueue( pxQueue );
  401b1e:	47b0      	blx	r6
  401b20:	6c60      	ldr	r0, [r4, #68]	; 0x44
  401b22:	f1b0 3fff 	cmp.w	r0, #4294967295
  401b26:	bf04      	itt	eq
  401b28:	2000      	moveq	r0, #0
  401b2a:	6460      	streq	r0, [r4, #68]	; 0x44
  401b2c:	6ca1      	ldr	r1, [r4, #72]	; 0x48
  401b2e:	f1b1 3fff 	cmp.w	r1, #4294967295
  401b32:	bf04      	itt	eq
  401b34:	2100      	moveq	r1, #0
  401b36:	64a1      	streq	r1, [r4, #72]	; 0x48
  401b38:	47a8      	blx	r5

		/* Update the timeout state to see if it has expired yet. */
		if( xTaskCheckForTimeOut( &xTimeOut, &xTicksToWait ) == pdFALSE )
  401b3a:	a802      	add	r0, sp, #8
  401b3c:	a901      	add	r1, sp, #4
  401b3e:	f642 12bd 	movw	r2, #10685	; 0x29bd
  401b42:	f2c0 0240 	movt	r2, #64	; 0x40
  401b46:	4790      	blx	r2
  401b48:	2800      	cmp	r0, #0
  401b4a:	d138      	bne.n	401bbe <xQueueGenericReceive+0x1a6>

static signed portBASE_TYPE prvIsQueueEmpty( const xQueueHandle pxQueue )
{
signed portBASE_TYPE xReturn;

	taskENTER_CRITICAL();
  401b4c:	47b0      	blx	r6
		xReturn = ( pxQueue->uxMessagesWaiting == ( unsigned portBASE_TYPE ) 0 );
  401b4e:	f8d4 8038 	ldr.w	r8, [r4, #56]	; 0x38
	taskEXIT_CRITICAL();
  401b52:	47a8      	blx	r5
		prvLockQueue( pxQueue );

		/* Update the timeout state to see if it has expired yet. */
		if( xTaskCheckForTimeOut( &xTimeOut, &xTicksToWait ) == pdFALSE )
		{
			if( prvIsQueueEmpty( pxQueue ) != pdFALSE )
  401b54:	f1b8 0f00 	cmp.w	r8, #0
  401b58:	d125      	bne.n	401ba6 <xQueueGenericReceive+0x18e>
			{
				traceBLOCKING_ON_QUEUE_RECEIVE( pxQueue );

				#if ( configUSE_MUTEXES == 1 )
				{
					if( pxQueue->uxQueueType == queueQUEUE_IS_MUTEX )
  401b5a:	6823      	ldr	r3, [r4, #0]
  401b5c:	b93b      	cbnz	r3, 401b6e <xQueueGenericReceive+0x156>
					{
						portENTER_CRITICAL();
  401b5e:	47b0      	blx	r6
						{
							vTaskPriorityInherit( ( void * ) pxQueue->pxMutexHolder );
  401b60:	6860      	ldr	r0, [r4, #4]
  401b62:	f642 21ad 	movw	r1, #10925	; 0x2aad
  401b66:	f2c0 0140 	movt	r1, #64	; 0x40
  401b6a:	4788      	blx	r1
						}
						portEXIT_CRITICAL();
  401b6c:	47a8      	blx	r5
					}
				}
				#endif

				vTaskPlaceOnEventList( &( pxQueue->xTasksWaitingToReceive ), xTicksToWait );
  401b6e:	f104 0024 	add.w	r0, r4, #36	; 0x24
  401b72:	9901      	ldr	r1, [sp, #4]
  401b74:	f642 021d 	movw	r2, #10269	; 0x281d
  401b78:	f2c0 0240 	movt	r2, #64	; 0x40
  401b7c:	4790      	blx	r2
				prvUnlockQueue( pxQueue );
  401b7e:	4620      	mov	r0, r4
  401b80:	f241 53a5 	movw	r3, #5541	; 0x15a5
  401b84:	f2c0 0340 	movt	r3, #64	; 0x40
  401b88:	4798      	blx	r3
				if( xTaskResumeAll() == pdFALSE )
  401b8a:	f242 4059 	movw	r0, #9305	; 0x2459
  401b8e:	f2c0 0040 	movt	r0, #64	; 0x40
  401b92:	4780      	blx	r0
  401b94:	2800      	cmp	r0, #0
  401b96:	f47f af69 	bne.w	401a6c <xQueueGenericReceive+0x54>
				{
					portYIELD_WITHIN_API();
  401b9a:	f241 21bd 	movw	r1, #4797	; 0x12bd
  401b9e:	f2c0 0140 	movt	r1, #64	; 0x40
  401ba2:	4788      	blx	r1
  401ba4:	e762      	b.n	401a6c <xQueueGenericReceive+0x54>
				}
			}
			else
			{
				/* Try again. */
				prvUnlockQueue( pxQueue );
  401ba6:	4620      	mov	r0, r4
  401ba8:	f241 51a5 	movw	r1, #5541	; 0x15a5
  401bac:	f2c0 0140 	movt	r1, #64	; 0x40
  401bb0:	4788      	blx	r1
				( void ) xTaskResumeAll();
  401bb2:	f242 4259 	movw	r2, #9305	; 0x2459
  401bb6:	f2c0 0240 	movt	r2, #64	; 0x40
  401bba:	4790      	blx	r2
  401bbc:	e756      	b.n	401a6c <xQueueGenericReceive+0x54>
			}
		}
		else
		{
			prvUnlockQueue( pxQueue );
  401bbe:	4620      	mov	r0, r4
  401bc0:	f241 53a5 	movw	r3, #5541	; 0x15a5
  401bc4:	f2c0 0340 	movt	r3, #64	; 0x40
  401bc8:	4798      	blx	r3
			( void ) xTaskResumeAll();
  401bca:	f242 4059 	movw	r0, #9305	; 0x2459
  401bce:	f2c0 0040 	movt	r0, #64	; 0x40
  401bd2:	4780      	blx	r0
			traceQUEUE_RECEIVE_FAILED( pxQueue );
			return errQUEUE_EMPTY;
  401bd4:	f04f 0000 	mov.w	r0, #0
		}
	}
}
  401bd8:	b005      	add	sp, #20
  401bda:	e8bd 8ff0 	ldmia.w	sp!, {r4, r5, r6, r7, r8, r9, sl, fp, pc}
  401bde:	bf00      	nop

00401be0 <xQueueReceiveFromISR>:
/*-----------------------------------------------------------*/

signed portBASE_TYPE xQueueReceiveFromISR( xQueueHandle pxQueue, void * const pvBuffer, signed portBASE_TYPE *pxHigherPriorityTaskWoken )
{
  401be0:	b5f8      	push	{r3, r4, r5, r6, r7, lr}
  401be2:	460e      	mov	r6, r1
  401be4:	4615      	mov	r5, r2
signed portBASE_TYPE xReturn;
unsigned portBASE_TYPE uxSavedInterruptStatus;

	configASSERT( pxQueue );
  401be6:	4604      	mov	r4, r0
  401be8:	b930      	cbnz	r0, 401bf8 <xQueueReceiveFromISR+0x18>
  401bea:	f241 25cd 	movw	r5, #4813	; 0x12cd
  401bee:	f2c0 0540 	movt	r5, #64	; 0x40
  401bf2:	47a8      	blx	r5
  401bf4:	bf00      	nop
  401bf6:	e7fd      	b.n	401bf4 <xQueueReceiveFromISR+0x14>
	configASSERT( !( ( pvBuffer == NULL ) && ( pxQueue->uxItemSize != ( unsigned portBASE_TYPE ) 0U ) ) );
  401bf8:	b941      	cbnz	r1, 401c0c <xQueueReceiveFromISR+0x2c>
  401bfa:	6c03      	ldr	r3, [r0, #64]	; 0x40
  401bfc:	b133      	cbz	r3, 401c0c <xQueueReceiveFromISR+0x2c>
  401bfe:	f241 20cd 	movw	r0, #4813	; 0x12cd
  401c02:	f2c0 0040 	movt	r0, #64	; 0x40
  401c06:	4780      	blx	r0
  401c08:	bf00      	nop
  401c0a:	e7fd      	b.n	401c08 <xQueueReceiveFromISR+0x28>

	uxSavedInterruptStatus = portSET_INTERRUPT_MASK_FROM_ISR();
  401c0c:	f241 21cd 	movw	r1, #4813	; 0x12cd
  401c10:	f2c0 0140 	movt	r1, #64	; 0x40
  401c14:	4788      	blx	r1
  401c16:	4607      	mov	r7, r0
	{
		/* We cannot block from an ISR, so check there is data available. */
		if( pxQueue->uxMessagesWaiting > ( unsigned portBASE_TYPE ) 0 )
  401c18:	6ba2      	ldr	r2, [r4, #56]	; 0x38
  401c1a:	b322      	cbz	r2, 401c66 <xQueueReceiveFromISR+0x86>
		{
			traceQUEUE_RECEIVE_FROM_ISR( pxQueue );

			prvCopyDataFromQueue( pxQueue, pvBuffer );
  401c1c:	4620      	mov	r0, r4
  401c1e:	4631      	mov	r1, r6
  401c20:	f241 6359 	movw	r3, #5721	; 0x1659
  401c24:	f2c0 0340 	movt	r3, #64	; 0x40
  401c28:	4798      	blx	r3
			--( pxQueue->uxMessagesWaiting );
  401c2a:	6ba0      	ldr	r0, [r4, #56]	; 0x38
  401c2c:	f100 31ff 	add.w	r1, r0, #4294967295
  401c30:	63a1      	str	r1, [r4, #56]	; 0x38

			/* If the queue is locked we will not modify the event list.  Instead
			we update the lock count so the task that unlocks the queue will know
			that an ISR has removed data while the queue was locked. */
			if( pxQueue->xRxLock == queueUNLOCKED )
  401c32:	6c62      	ldr	r2, [r4, #68]	; 0x44
  401c34:	f1b2 3fff 	cmp.w	r2, #4294967295
  401c38:	d10e      	bne.n	401c58 <xQueueReceiveFromISR+0x78>
			{
				if( listLIST_IS_EMPTY( &( pxQueue->xTasksWaitingToSend ) ) == pdFALSE )
  401c3a:	6920      	ldr	r0, [r4, #16]
  401c3c:	b1b0      	cbz	r0, 401c6c <xQueueReceiveFromISR+0x8c>
				{
					if( xTaskRemoveFromEventList( &( pxQueue->xTasksWaitingToSend ) ) != pdFALSE )
  401c3e:	f104 0010 	add.w	r0, r4, #16
  401c42:	f642 04e5 	movw	r4, #10469	; 0x28e5
  401c46:	f2c0 0440 	movt	r4, #64	; 0x40
  401c4a:	47a0      	blx	r4
  401c4c:	b188      	cbz	r0, 401c72 <xQueueReceiveFromISR+0x92>
					{
						/* The task waiting has a higher priority than us so
						force a context switch. */
						if( pxHigherPriorityTaskWoken != NULL )
  401c4e:	b19d      	cbz	r5, 401c78 <xQueueReceiveFromISR+0x98>
						{
							*pxHigherPriorityTaskWoken = pdTRUE;
  401c50:	f04f 0401 	mov.w	r4, #1
  401c54:	602c      	str	r4, [r5, #0]
  401c56:	e011      	b.n	401c7c <xQueueReceiveFromISR+0x9c>
			}
			else
			{
				/* Increment the lock count so the task that unlocks the queue
				knows that data was removed while it was locked. */
				++( pxQueue->xRxLock );
  401c58:	6c63      	ldr	r3, [r4, #68]	; 0x44
  401c5a:	f103 0301 	add.w	r3, r3, #1
  401c5e:	6463      	str	r3, [r4, #68]	; 0x44
			}

			xReturn = pdPASS;
  401c60:	f04f 0401 	mov.w	r4, #1
  401c64:	e00a      	b.n	401c7c <xQueueReceiveFromISR+0x9c>
		}
		else
		{
			xReturn = pdFAIL;
  401c66:	f04f 0400 	mov.w	r4, #0
  401c6a:	e007      	b.n	401c7c <xQueueReceiveFromISR+0x9c>
				/* Increment the lock count so the task that unlocks the queue
				knows that data was removed while it was locked. */
				++( pxQueue->xRxLock );
			}

			xReturn = pdPASS;
  401c6c:	f04f 0401 	mov.w	r4, #1
  401c70:	e004      	b.n	401c7c <xQueueReceiveFromISR+0x9c>
  401c72:	f04f 0401 	mov.w	r4, #1
  401c76:	e001      	b.n	401c7c <xQueueReceiveFromISR+0x9c>
  401c78:	f04f 0401 	mov.w	r4, #1
		{
			xReturn = pdFAIL;
			traceQUEUE_RECEIVE_FROM_ISR_FAILED( pxQueue );
		}
	}
	portCLEAR_INTERRUPT_MASK_FROM_ISR( uxSavedInterruptStatus );
  401c7c:	4638      	mov	r0, r7
  401c7e:	f241 3101 	movw	r1, #4865	; 0x1301
  401c82:	f2c0 0140 	movt	r1, #64	; 0x40
  401c86:	4788      	blx	r1

	return xReturn;
}
  401c88:	4620      	mov	r0, r4
  401c8a:	bdf8      	pop	{r3, r4, r5, r6, r7, pc}

00401c8c <vQueueWaitForMessageRestricted>:
/*-----------------------------------------------------------*/

#if configUSE_TIMERS == 1

	void vQueueWaitForMessageRestricted( xQueueHandle pxQueue, portTickType xTicksToWait )
	{
  401c8c:	b538      	push	{r3, r4, r5, lr}
  401c8e:	4604      	mov	r4, r0
  401c90:	460d      	mov	r5, r1
		will not actually cause the task to block, just place it on a blocked
		list.  It will not block until the scheduler is unlocked - at which
		time a yield will be performed.  If an item is added to the queue while
		the queue is locked, and the calling task blocks on the queue, then the
		calling task will be immediately unblocked when the queue is unlocked. */
		prvLockQueue( pxQueue );
  401c92:	f241 23e1 	movw	r3, #4833	; 0x12e1
  401c96:	f2c0 0340 	movt	r3, #64	; 0x40
  401c9a:	4798      	blx	r3
  401c9c:	6c60      	ldr	r0, [r4, #68]	; 0x44
  401c9e:	f1b0 3fff 	cmp.w	r0, #4294967295
  401ca2:	bf04      	itt	eq
  401ca4:	2000      	moveq	r0, #0
  401ca6:	6460      	streq	r0, [r4, #68]	; 0x44
  401ca8:	6ca1      	ldr	r1, [r4, #72]	; 0x48
  401caa:	f1b1 3fff 	cmp.w	r1, #4294967295
  401cae:	bf04      	itt	eq
  401cb0:	2100      	moveq	r1, #0
  401cb2:	64a1      	streq	r1, [r4, #72]	; 0x48
  401cb4:	f241 3209 	movw	r2, #4873	; 0x1309
  401cb8:	f2c0 0240 	movt	r2, #64	; 0x40
  401cbc:	4790      	blx	r2
		if( pxQueue->uxMessagesWaiting == ( unsigned portBASE_TYPE ) 0U )
  401cbe:	6ba3      	ldr	r3, [r4, #56]	; 0x38
  401cc0:	b93b      	cbnz	r3, 401cd2 <vQueueWaitForMessageRestricted+0x46>
		{
			/* There is nothing in the queue, block for the specified period. */
			vTaskPlaceOnEventListRestricted( &( pxQueue->xTasksWaitingToReceive ), xTicksToWait );
  401cc2:	f104 0024 	add.w	r0, r4, #36	; 0x24
  401cc6:	4629      	mov	r1, r5
  401cc8:	f642 0291 	movw	r2, #10385	; 0x2891
  401ccc:	f2c0 0240 	movt	r2, #64	; 0x40
  401cd0:	4790      	blx	r2
		}
		prvUnlockQueue( pxQueue );
  401cd2:	4620      	mov	r0, r4
  401cd4:	f241 51a5 	movw	r1, #5541	; 0x15a5
  401cd8:	f2c0 0140 	movt	r1, #64	; 0x40
  401cdc:	4788      	blx	r1
  401cde:	bd38      	pop	{r3, r4, r5, pc}

00401ce0 <prvAddCurrentTaskToDelayedList>:
	#endif
}
/*-----------------------------------------------------------*/

static void prvAddCurrentTaskToDelayedList( portTickType xTimeToWake )
{
  401ce0:	b510      	push	{r4, lr}
  401ce2:	4604      	mov	r4, r0
	/* The list item will be inserted in wake time order. */
	listSET_LIST_ITEM_VALUE( &( pxCurrentTCB->xGenericListItem ), xTimeToWake );
  401ce4:	f24a 532c 	movw	r3, #42284	; 0xa52c
  401ce8:	f2c2 0300 	movt	r3, #8192	; 0x2000
  401cec:	6818      	ldr	r0, [r3, #0]
  401cee:	6044      	str	r4, [r0, #4]

	if( xTimeToWake < xTickCount )
  401cf0:	f24a 5148 	movw	r1, #42312	; 0xa548
  401cf4:	f2c2 0100 	movt	r1, #8192	; 0x2000
  401cf8:	680a      	ldr	r2, [r1, #0]
  401cfa:	4294      	cmp	r4, r2
  401cfc:	d211      	bcs.n	401d22 <prvAddCurrentTaskToDelayedList+0x42>
	{
		/* Wake time has overflowed.  Place this item in the overflow list. */
		vListInsert( ( xList * ) pxOverflowDelayedTaskList, ( xListItem * ) &( pxCurrentTCB->xGenericListItem ) );
  401cfe:	f24a 524c 	movw	r2, #42316	; 0xa54c
  401d02:	f2c2 0200 	movt	r2, #8192	; 0x2000
  401d06:	6810      	ldr	r0, [r2, #0]
  401d08:	f24a 532c 	movw	r3, #42284	; 0xa52c
  401d0c:	f2c2 0300 	movt	r3, #8192	; 0x2000
  401d10:	6819      	ldr	r1, [r3, #0]
  401d12:	f101 0104 	add.w	r1, r1, #4
  401d16:	f241 2201 	movw	r2, #4609	; 0x1201
  401d1a:	f2c0 0240 	movt	r2, #64	; 0x40
  401d1e:	4790      	blx	r2
  401d20:	bd10      	pop	{r4, pc}
	}
	else
	{
		/* The wake time has not overflowed, so we can use the current block list. */
		vListInsert( ( xList * ) pxDelayedTaskList, ( xListItem * ) &( pxCurrentTCB->xGenericListItem ) );
  401d22:	f24a 438c 	movw	r3, #42124	; 0xa48c
  401d26:	f2c2 0300 	movt	r3, #8192	; 0x2000
  401d2a:	6818      	ldr	r0, [r3, #0]
  401d2c:	f24a 512c 	movw	r1, #42284	; 0xa52c
  401d30:	f2c2 0100 	movt	r1, #8192	; 0x2000
  401d34:	6809      	ldr	r1, [r1, #0]
  401d36:	f101 0104 	add.w	r1, r1, #4
  401d3a:	f241 2201 	movw	r2, #4609	; 0x1201
  401d3e:	f2c0 0240 	movt	r2, #64	; 0x40
  401d42:	4790      	blx	r2

		/* If the task entering the blocked state was placed at the head of the
		list of blocked tasks then xNextTaskUnblockTime needs to be updated
		too. */
		if( xTimeToWake < xNextTaskUnblockTime )
  401d44:	f240 0008 	movw	r0, #8
  401d48:	f2c2 0000 	movt	r0, #8192	; 0x2000
  401d4c:	6803      	ldr	r3, [r0, #0]
  401d4e:	429c      	cmp	r4, r3
  401d50:	d204      	bcs.n	401d5c <prvAddCurrentTaskToDelayedList+0x7c>
		{
			xNextTaskUnblockTime = xTimeToWake;
  401d52:	f240 0108 	movw	r1, #8
  401d56:	f2c2 0100 	movt	r1, #8192	; 0x2000
  401d5a:	600c      	str	r4, [r1, #0]
  401d5c:	bd10      	pop	{r4, pc}
  401d5e:	bf00      	nop

00401d60 <xTaskGenericCreate>:
/*-----------------------------------------------------------
 * TASK CREATION API documented in task.h
 *----------------------------------------------------------*/

signed portBASE_TYPE xTaskGenericCreate( pdTASK_CODE pxTaskCode, const signed char * const pcName, unsigned short usStackDepth, void *pvParameters, unsigned portBASE_TYPE uxPriority, xTaskHandle *pxCreatedTask, portSTACK_TYPE *puxStackBuffer, const xMemoryRegion * const xRegions )
{
  401d60:	e92d 4ff8 	stmdb	sp!, {r3, r4, r5, r6, r7, r8, r9, sl, fp, lr}
  401d64:	460f      	mov	r7, r1
  401d66:	4690      	mov	r8, r2
  401d68:	469a      	mov	sl, r3
  401d6a:	9d0a      	ldr	r5, [sp, #40]	; 0x28
  401d6c:	9e0c      	ldr	r6, [sp, #48]	; 0x30
signed portBASE_TYPE xReturn;
tskTCB * pxNewTCB;

	configASSERT( pxTaskCode );
  401d6e:	4681      	mov	r9, r0
  401d70:	b930      	cbnz	r0, 401d80 <xTaskGenericCreate+0x20>
  401d72:	f241 27cd 	movw	r7, #4813	; 0x12cd
  401d76:	f2c0 0740 	movt	r7, #64	; 0x40
  401d7a:	47b8      	blx	r7
  401d7c:	bf00      	nop
  401d7e:	e7fd      	b.n	401d7c <xTaskGenericCreate+0x1c>
	configASSERT( ( ( uxPriority & ( ~portPRIVILEGE_BIT ) ) < configMAX_PRIORITIES ) );
  401d80:	2d04      	cmp	r5, #4
  401d82:	d906      	bls.n	401d92 <xTaskGenericCreate+0x32>
  401d84:	f241 25cd 	movw	r5, #4813	; 0x12cd
  401d88:	f2c0 0540 	movt	r5, #64	; 0x40
  401d8c:	47a8      	blx	r5
  401d8e:	bf00      	nop
  401d90:	e7fd      	b.n	401d8e <xTaskGenericCreate+0x2e>
{
tskTCB *pxNewTCB;

	/* Allocate space for the TCB.  Where the memory comes from depends on
	the implementation of the port malloc function. */
	pxNewTCB = ( tskTCB * ) pvPortMalloc( sizeof( tskTCB ) );
  401d92:	f04f 004c 	mov.w	r0, #76	; 0x4c
  401d96:	f241 435d 	movw	r3, #5213	; 0x145d
  401d9a:	f2c0 0340 	movt	r3, #64	; 0x40
  401d9e:	4798      	blx	r3

	if( pxNewTCB != NULL )
  401da0:	4604      	mov	r4, r0
  401da2:	2800      	cmp	r0, #0
  401da4:	f000 8127 	beq.w	401ff6 <xTaskGenericCreate+0x296>
	{
		/* Allocate space for the stack used by the task being created.
		The base of the stack memory stored in the TCB so the task can
		be deleted later if required. */
		pxNewTCB->pxStack = ( portSTACK_TYPE * ) pvPortMallocAligned( ( ( ( size_t )usStackDepth ) * sizeof( portSTACK_TYPE ) ), puxStackBuffer );
  401da8:	2e00      	cmp	r6, #0
  401daa:	f040 8122 	bne.w	401ff2 <xTaskGenericCreate+0x292>
  401dae:	ea4f 0088 	mov.w	r0, r8, lsl #2
  401db2:	f241 415d 	movw	r1, #5213	; 0x145d
  401db6:	f2c0 0140 	movt	r1, #64	; 0x40
  401dba:	4788      	blx	r1
  401dbc:	4606      	mov	r6, r0
  401dbe:	6320      	str	r0, [r4, #48]	; 0x30

		if( pxNewTCB->pxStack == NULL )
  401dc0:	b930      	cbnz	r0, 401dd0 <xTaskGenericCreate+0x70>
		{
			/* Could not allocate the stack.  Delete the allocated TCB. */
			vPortFree( pxNewTCB );
  401dc2:	4620      	mov	r0, r4
  401dc4:	f241 5269 	movw	r2, #5481	; 0x1569
  401dc8:	f2c0 0240 	movt	r2, #64	; 0x40
  401dcc:	4790      	blx	r2
  401dce:	e112      	b.n	401ff6 <xTaskGenericCreate+0x296>
			pxNewTCB = NULL;
		}
		else
		{
			/* Just to help debugging. */
			memset( pxNewTCB->pxStack, ( int ) tskSTACK_FILL_BYTE, ( size_t ) usStackDepth * sizeof( portSTACK_TYPE ) );
  401dd0:	4630      	mov	r0, r6
  401dd2:	f04f 01a5 	mov.w	r1, #165	; 0xa5
  401dd6:	ea4f 0288 	mov.w	r2, r8, lsl #2
  401dda:	f244 66cf 	movw	r6, #18127	; 0x46cf
  401dde:	f2c0 0640 	movt	r6, #64	; 0x40
  401de2:	47b0      	blx	r6
		stack grows from high memory to low (as per the 80x86) or visa versa.
		portSTACK_GROWTH is used to make the result positive or negative as
		required by the port. */
		#if( portSTACK_GROWTH < 0 )
		{
			pxTopOfStack = pxNewTCB->pxStack + ( usStackDepth - ( unsigned short ) 1 );
  401de4:	f108 38ff 	add.w	r8, r8, #4294967295
  401de8:	6b20      	ldr	r0, [r4, #48]	; 0x30
  401dea:	eb00 0288 	add.w	r2, r0, r8, lsl #2
			pxTopOfStack = ( portSTACK_TYPE * ) ( ( ( portPOINTER_SIZE_TYPE ) pxTopOfStack ) & ( ( portPOINTER_SIZE_TYPE ) ~portBYTE_ALIGNMENT_MASK  ) );
  401dee:	f022 0b07 	bic.w	fp, r2, #7
{
	/* Store the function name in the TCB. */
	#if configMAX_TASK_NAME_LEN > 1
	{
		/* Don't bring strncpy into the build unnecessarily. */
		strncpy( ( char * ) pxTCB->pcTaskName, ( const char * ) pcName, ( unsigned short ) configMAX_TASK_NAME_LEN );
  401df2:	f104 0034 	add.w	r0, r4, #52	; 0x34
  401df6:	4639      	mov	r1, r7
  401df8:	f04f 020a 	mov.w	r2, #10
  401dfc:	f244 67df 	movw	r7, #18143	; 0x46df
  401e00:	f2c0 0740 	movt	r7, #64	; 0x40
  401e04:	47b8      	blx	r7
	}
	#endif
	pxTCB->pcTaskName[ ( unsigned short ) configMAX_TASK_NAME_LEN - ( unsigned short ) 1 ] = ( signed char ) '\0';
  401e06:	f04f 0300 	mov.w	r3, #0
  401e0a:	f884 303d 	strb.w	r3, [r4, #61]	; 0x3d
  401e0e:	2d04      	cmp	r5, #4
  401e10:	bf34      	ite	cc
  401e12:	462e      	movcc	r6, r5
  401e14:	2604      	movcs	r6, #4
	if( uxPriority >= configMAX_PRIORITIES )
	{
		uxPriority = configMAX_PRIORITIES - ( unsigned portBASE_TYPE ) 1U;
	}

	pxTCB->uxPriority = uxPriority;
  401e16:	62e6      	str	r6, [r4, #44]	; 0x2c
	#if ( configUSE_MUTEXES == 1 )
	{
		pxTCB->uxBasePriority = uxPriority;
  401e18:	64a6      	str	r6, [r4, #72]	; 0x48
	}
	#endif

	vListInitialiseItem( &( pxTCB->xGenericListItem ) );
  401e1a:	f104 0704 	add.w	r7, r4, #4
  401e1e:	4638      	mov	r0, r7
  401e20:	f241 18d9 	movw	r8, #4569	; 0x11d9
  401e24:	f2c0 0840 	movt	r8, #64	; 0x40
  401e28:	47c0      	blx	r8
	vListInitialiseItem( &( pxTCB->xEventListItem ) );
  401e2a:	f104 0018 	add.w	r0, r4, #24
  401e2e:	47c0      	blx	r8

	/* Set the pxTCB as a link back from the xListItem.  This is so we can get
	back to	the containing TCB from a generic item in a list. */
	listSET_LIST_ITEM_OWNER( &( pxTCB->xGenericListItem ), pxTCB );
  401e30:	6124      	str	r4, [r4, #16]

	/* Event lists are always in priority order. */
	listSET_LIST_ITEM_VALUE( &( pxTCB->xEventListItem ), configMAX_PRIORITIES - ( portTickType ) uxPriority );
  401e32:	f1c6 0605 	rsb	r6, r6, #5
  401e36:	61a6      	str	r6, [r4, #24]
	listSET_LIST_ITEM_OWNER( &( pxTCB->xEventListItem ), pxTCB );
  401e38:	6264      	str	r4, [r4, #36]	; 0x24
		{
			pxNewTCB->pxTopOfStack = pxPortInitialiseStack( pxTopOfStack, pxTaskCode, pvParameters, xRunPrivileged );
		}
		#else
		{
			pxNewTCB->pxTopOfStack = pxPortInitialiseStack( pxTopOfStack, pxTaskCode, pvParameters );
  401e3a:	4658      	mov	r0, fp
  401e3c:	4649      	mov	r1, r9
  401e3e:	4652      	mov	r2, sl
  401e40:	f241 237d 	movw	r3, #4733	; 0x127d
  401e44:	f2c0 0340 	movt	r3, #64	; 0x40
  401e48:	4798      	blx	r3
  401e4a:	6020      	str	r0, [r4, #0]
		}
		#endif

		/* Check the alignment of the initialised stack. */
		portALIGNMENT_ASSERT_pxCurrentTCB( ( ( ( unsigned long ) pxNewTCB->pxTopOfStack & ( unsigned long ) portBYTE_ALIGNMENT_MASK ) == 0UL ) );
  401e4c:	f010 0f07 	tst.w	r0, #7
  401e50:	d006      	beq.n	401e60 <xTaskGenericCreate+0x100>
  401e52:	f241 24cd 	movw	r4, #4813	; 0x12cd
  401e56:	f2c0 0440 	movt	r4, #64	; 0x40
  401e5a:	47a0      	blx	r4
  401e5c:	bf00      	nop
  401e5e:	e7fd      	b.n	401e5c <xTaskGenericCreate+0xfc>

		if( ( void * ) pxCreatedTask != NULL )
  401e60:	990b      	ldr	r1, [sp, #44]	; 0x2c
  401e62:	b101      	cbz	r1, 401e66 <xTaskGenericCreate+0x106>
		{
			/* Pass the TCB out - in an anonymous way.  The calling function/
			task can use this as a handle to delete the task later if
			required.*/
			*pxCreatedTask = ( xTaskHandle ) pxNewTCB;
  401e64:	600c      	str	r4, [r1, #0]
		}

		/* We are going to manipulate the task queues to add this task to a
		ready list, so must make sure no interrupts occur. */
		taskENTER_CRITICAL();
  401e66:	f241 20e1 	movw	r0, #4833	; 0x12e1
  401e6a:	f2c0 0040 	movt	r0, #64	; 0x40
  401e6e:	4780      	blx	r0
		{
			uxCurrentNumberOfTasks++;
  401e70:	f24a 536c 	movw	r3, #42348	; 0xa56c
  401e74:	f2c2 0300 	movt	r3, #8192	; 0x2000
  401e78:	681a      	ldr	r2, [r3, #0]
  401e7a:	f102 0201 	add.w	r2, r2, #1
  401e7e:	601a      	str	r2, [r3, #0]
			if( pxCurrentTCB == NULL )
  401e80:	f24a 512c 	movw	r1, #42284	; 0xa52c
  401e84:	f2c2 0100 	movt	r1, #8192	; 0x2000
  401e88:	6808      	ldr	r0, [r1, #0]
  401e8a:	2800      	cmp	r0, #0
  401e8c:	d149      	bne.n	401f22 <xTaskGenericCreate+0x1c2>
			{
				/* There are no other tasks, or all the other tasks are in
				the suspended state - make this the current task. */
				pxCurrentTCB =  pxNewTCB;
  401e8e:	f24a 512c 	movw	r1, #42284	; 0xa52c
  401e92:	f2c2 0100 	movt	r1, #8192	; 0x2000
  401e96:	600c      	str	r4, [r1, #0]

				if( uxCurrentNumberOfTasks == ( unsigned portBASE_TYPE ) 1 )
  401e98:	f24a 506c 	movw	r0, #42348	; 0xa56c
  401e9c:	f2c2 0000 	movt	r0, #8192	; 0x2000
  401ea0:	6803      	ldr	r3, [r0, #0]
  401ea2:	2b01      	cmp	r3, #1
  401ea4:	d150      	bne.n	401f48 <xTaskGenericCreate+0x1e8>
{
unsigned portBASE_TYPE uxPriority;

	for( uxPriority = ( unsigned portBASE_TYPE ) 0U; uxPriority < configMAX_PRIORITIES; uxPriority++ )
	{
		vListInitialise( ( xList * ) &( pxReadyTasksLists[ uxPriority ] ) );
  401ea6:	f24a 49c4 	movw	r9, #42180	; 0xa4c4
  401eaa:	f2c2 0900 	movt	r9, #8192	; 0x2000
  401eae:	4648      	mov	r0, r9
  401eb0:	f241 16c1 	movw	r6, #4545	; 0x11c1
  401eb4:	f2c0 0640 	movt	r6, #64	; 0x40
  401eb8:	47b0      	blx	r6
  401eba:	f109 0014 	add.w	r0, r9, #20
  401ebe:	47b0      	blx	r6
  401ec0:	f109 0028 	add.w	r0, r9, #40	; 0x28
  401ec4:	47b0      	blx	r6
  401ec6:	f109 003c 	add.w	r0, r9, #60	; 0x3c
  401eca:	47b0      	blx	r6
  401ecc:	f109 0050 	add.w	r0, r9, #80	; 0x50
  401ed0:	47b0      	blx	r6
	}

	vListInitialise( ( xList * ) &xDelayedTaskList1 );
  401ed2:	f24a 5954 	movw	r9, #42324	; 0xa554
  401ed6:	f2c2 0900 	movt	r9, #8192	; 0x2000
  401eda:	4648      	mov	r0, r9
  401edc:	47b0      	blx	r6
	vListInitialise( ( xList * ) &xDelayedTaskList2 );
  401ede:	f24a 48ac 	movw	r8, #42156	; 0xa4ac
  401ee2:	f2c2 0800 	movt	r8, #8192	; 0x2000
  401ee6:	4640      	mov	r0, r8
  401ee8:	47b0      	blx	r6
	vListInitialise( ( xList * ) &xPendingReadyList );
  401eea:	f24a 5030 	movw	r0, #42288	; 0xa530
  401eee:	f2c2 0000 	movt	r0, #8192	; 0x2000
  401ef2:	47b0      	blx	r6

	#if ( INCLUDE_vTaskDelete == 1 )
	{
		vListInitialise( ( xList * ) &xTasksWaitingTermination );
  401ef4:	f24a 4098 	movw	r0, #42136	; 0xa498
  401ef8:	f2c2 0000 	movt	r0, #8192	; 0x2000
  401efc:	47b0      	blx	r6
	}
	#endif

	#if ( INCLUDE_vTaskSuspend == 1 )
	{
		vListInitialise( ( xList * ) &xSuspendedTaskList );
  401efe:	f24a 4078 	movw	r0, #42104	; 0xa478
  401f02:	f2c2 0000 	movt	r0, #8192	; 0x2000
  401f06:	47b0      	blx	r6
	}
	#endif

	/* Start with pxDelayedTaskList using list1 and the pxOverflowDelayedTaskList
	using list2. */
	pxDelayedTaskList = &xDelayedTaskList1;
  401f08:	f24a 428c 	movw	r2, #42124	; 0xa48c
  401f0c:	f2c2 0200 	movt	r2, #8192	; 0x2000
  401f10:	f8c2 9000 	str.w	r9, [r2]
	pxOverflowDelayedTaskList = &xDelayedTaskList2;
  401f14:	f24a 514c 	movw	r1, #42316	; 0xa54c
  401f18:	f2c2 0100 	movt	r1, #8192	; 0x2000
  401f1c:	f8c1 8000 	str.w	r8, [r1]
  401f20:	e012      	b.n	401f48 <xTaskGenericCreate+0x1e8>
			else
			{
				/* If the scheduler is not already running, make this task the
				current task if it is the highest priority task to be created
				so far. */
				if( xSchedulerRunning == pdFALSE )
  401f22:	f24a 4390 	movw	r3, #42128	; 0xa490
  401f26:	f2c2 0300 	movt	r3, #8192	; 0x2000
  401f2a:	681a      	ldr	r2, [r3, #0]
  401f2c:	b962      	cbnz	r2, 401f48 <xTaskGenericCreate+0x1e8>
				{
					if( pxCurrentTCB->uxPriority <= uxPriority )
  401f2e:	f24a 512c 	movw	r1, #42284	; 0xa52c
  401f32:	f2c2 0100 	movt	r1, #8192	; 0x2000
  401f36:	6808      	ldr	r0, [r1, #0]
  401f38:	6ac3      	ldr	r3, [r0, #44]	; 0x2c
  401f3a:	429d      	cmp	r5, r3
  401f3c:	d304      	bcc.n	401f48 <xTaskGenericCreate+0x1e8>
					{
						pxCurrentTCB = pxNewTCB;
  401f3e:	f24a 522c 	movw	r2, #42284	; 0xa52c
  401f42:	f2c2 0200 	movt	r2, #8192	; 0x2000
  401f46:	6014      	str	r4, [r2, #0]
				}
			}

			/* Remember the top priority to make context switching faster.  Use
			the priority in pxNewTCB as this has been capped to a valid value. */
			if( pxNewTCB->uxPriority > uxTopUsedPriority )
  401f48:	6ae0      	ldr	r0, [r4, #44]	; 0x2c
  401f4a:	f24a 5370 	movw	r3, #42352	; 0xa570
  401f4e:	f2c2 0300 	movt	r3, #8192	; 0x2000
  401f52:	681a      	ldr	r2, [r3, #0]
  401f54:	4290      	cmp	r0, r2
  401f56:	d904      	bls.n	401f62 <xTaskGenericCreate+0x202>
			{
				uxTopUsedPriority = pxNewTCB->uxPriority;
  401f58:	f24a 5170 	movw	r1, #42352	; 0xa570
  401f5c:	f2c2 0100 	movt	r1, #8192	; 0x2000
  401f60:	6008      	str	r0, [r1, #0]
			}

			#if ( configUSE_TRACE_FACILITY == 1 )
			{
				/* Add a counter into the TCB for tracing only. */
				pxNewTCB->uxTCBNumber = uxTaskNumber;
  401f62:	f24a 5350 	movw	r3, #42320	; 0xa550
  401f66:	f2c2 0300 	movt	r3, #8192	; 0x2000
  401f6a:	681a      	ldr	r2, [r3, #0]
  401f6c:	6422      	str	r2, [r4, #64]	; 0x40
			}
			#endif
			uxTaskNumber++;
  401f6e:	f102 0201 	add.w	r2, r2, #1
  401f72:	601a      	str	r2, [r3, #0]

			prvAddTaskToReadyQueue( pxNewTCB );
  401f74:	f24a 41c0 	movw	r1, #42176	; 0xa4c0
  401f78:	f2c2 0100 	movt	r1, #8192	; 0x2000
  401f7c:	680b      	ldr	r3, [r1, #0]
  401f7e:	4298      	cmp	r0, r3
  401f80:	d904      	bls.n	401f8c <xTaskGenericCreate+0x22c>
  401f82:	f24a 42c0 	movw	r2, #42176	; 0xa4c0
  401f86:	f2c2 0200 	movt	r2, #8192	; 0x2000
  401f8a:	6010      	str	r0, [r2, #0]
  401f8c:	eb00 0180 	add.w	r1, r0, r0, lsl #2
  401f90:	f24a 40c4 	movw	r0, #42180	; 0xa4c4
  401f94:	4603      	mov	r3, r0
  401f96:	f2c2 0300 	movt	r3, #8192	; 0x2000
  401f9a:	eb03 0081 	add.w	r0, r3, r1, lsl #2
  401f9e:	4639      	mov	r1, r7
  401fa0:	f241 12e1 	movw	r2, #4577	; 0x11e1
  401fa4:	f2c0 0240 	movt	r2, #64	; 0x40
  401fa8:	4790      	blx	r2

			xReturn = pdPASS;
			portSETUP_TCB( pxNewTCB );
			traceTASK_CREATE( pxNewTCB );
		}
		taskEXIT_CRITICAL();
  401faa:	f241 3109 	movw	r1, #4873	; 0x1309
  401fae:	f2c0 0140 	movt	r1, #64	; 0x40
  401fb2:	4788      	blx	r1
		traceTASK_CREATE_FAILED();
	}

	if( xReturn == pdPASS )
	{
		if( xSchedulerRunning != pdFALSE )
  401fb4:	f24a 4090 	movw	r0, #42128	; 0xa490
  401fb8:	f2c2 0000 	movt	r0, #8192	; 0x2000
  401fbc:	6803      	ldr	r3, [r0, #0]
  401fbe:	b183      	cbz	r3, 401fe2 <xTaskGenericCreate+0x282>
		{
			/* If the created task is of a higher priority than the current task
			then it should run now. */
			if( pxCurrentTCB->uxPriority < uxPriority )
  401fc0:	f24a 522c 	movw	r2, #42284	; 0xa52c
  401fc4:	f2c2 0200 	movt	r2, #8192	; 0x2000
  401fc8:	6811      	ldr	r1, [r2, #0]
  401fca:	6ac8      	ldr	r0, [r1, #44]	; 0x2c
  401fcc:	4285      	cmp	r5, r0
  401fce:	d90c      	bls.n	401fea <xTaskGenericCreate+0x28a>
			{
				portYIELD_WITHIN_API();
  401fd0:	f241 23bd 	movw	r3, #4797	; 0x12bd
  401fd4:	f2c0 0340 	movt	r3, #64	; 0x40
  401fd8:	4798      	blx	r3
			#endif
			uxTaskNumber++;

			prvAddTaskToReadyQueue( pxNewTCB );

			xReturn = pdPASS;
  401fda:	f04f 0001 	mov.w	r0, #1
  401fde:	e8bd 8ff8 	ldmia.w	sp!, {r3, r4, r5, r6, r7, r8, r9, sl, fp, pc}
  401fe2:	f04f 0001 	mov.w	r0, #1
  401fe6:	e8bd 8ff8 	ldmia.w	sp!, {r3, r4, r5, r6, r7, r8, r9, sl, fp, pc}
  401fea:	f04f 0001 	mov.w	r0, #1
  401fee:	e8bd 8ff8 	ldmia.w	sp!, {r3, r4, r5, r6, r7, r8, r9, sl, fp, pc}
	if( pxNewTCB != NULL )
	{
		/* Allocate space for the stack used by the task being created.
		The base of the stack memory stored in the TCB so the task can
		be deleted later if required. */
		pxNewTCB->pxStack = ( portSTACK_TYPE * ) pvPortMallocAligned( ( ( ( size_t )usStackDepth ) * sizeof( portSTACK_TYPE ) ), puxStackBuffer );
  401ff2:	6306      	str	r6, [r0, #48]	; 0x30
  401ff4:	e6ec      	b.n	401dd0 <xTaskGenericCreate+0x70>
		}
		taskEXIT_CRITICAL();
	}
	else
	{
		xReturn = errCOULD_NOT_ALLOCATE_REQUIRED_MEMORY;
  401ff6:	f04f 30ff 	mov.w	r0, #4294967295
			}
		}
	}

	return xReturn;
}
  401ffa:	e8bd 8ff8 	ldmia.w	sp!, {r3, r4, r5, r6, r7, r8, r9, sl, fp, pc}
  401ffe:	bf00      	nop

00402000 <uxTaskPriorityGet>:
/*-----------------------------------------------------------*/

#if ( INCLUDE_uxTaskPriorityGet == 1 )

	unsigned portBASE_TYPE uxTaskPriorityGet( xTaskHandle pxTask )
	{
  402000:	b510      	push	{r4, lr}
  402002:	4604      	mov	r4, r0
	tskTCB *pxTCB;
	unsigned portBASE_TYPE uxReturn;

		taskENTER_CRITICAL();
  402004:	f241 23e1 	movw	r3, #4833	; 0x12e1
  402008:	f2c0 0340 	movt	r3, #64	; 0x40
  40200c:	4798      	blx	r3
		{
			/* If null is passed in here then we are changing the
			priority of the calling function. */
			pxTCB = prvGetTCBFromHandle( pxTask );
  40200e:	b924      	cbnz	r4, 40201a <uxTaskPriorityGet+0x1a>
  402010:	f24a 502c 	movw	r0, #42284	; 0xa52c
  402014:	f2c2 0000 	movt	r0, #8192	; 0x2000
  402018:	6804      	ldr	r4, [r0, #0]
			uxReturn = pxTCB->uxPriority;
  40201a:	6ae4      	ldr	r4, [r4, #44]	; 0x2c
		}
		taskEXIT_CRITICAL();
  40201c:	f241 3109 	movw	r1, #4873	; 0x1309
  402020:	f2c0 0140 	movt	r1, #64	; 0x40
  402024:	4788      	blx	r1

		return uxReturn;
	}
  402026:	4620      	mov	r0, r4
  402028:	bd10      	pop	{r4, pc}
  40202a:	bf00      	nop

0040202c <vTaskPrioritySet>:
/*-----------------------------------------------------------*/

#if ( INCLUDE_vTaskPrioritySet == 1 )

	void vTaskPrioritySet( xTaskHandle pxTask, unsigned portBASE_TYPE uxNewPriority )
	{
  40202c:	b570      	push	{r4, r5, r6, lr}
  40202e:	4605      	mov	r5, r0
	tskTCB *pxTCB;
	unsigned portBASE_TYPE uxCurrentPriority, uxPriorityUsedOnEntry;
	portBASE_TYPE xYieldRequired = pdFALSE;

		configASSERT( ( uxNewPriority < configMAX_PRIORITIES ) );
  402030:	2904      	cmp	r1, #4
  402032:	d906      	bls.n	402042 <vTaskPrioritySet+0x16>
  402034:	f241 24cd 	movw	r4, #4813	; 0x12cd
  402038:	f2c0 0440 	movt	r4, #64	; 0x40
  40203c:	47a0      	blx	r4
  40203e:	bf00      	nop
  402040:	e7fd      	b.n	40203e <vTaskPrioritySet+0x12>
  402042:	2904      	cmp	r1, #4
  402044:	bf34      	ite	cc
  402046:	460e      	movcc	r6, r1
  402048:	2604      	movcs	r6, #4
		if( uxNewPriority >= configMAX_PRIORITIES )
		{
			uxNewPriority = configMAX_PRIORITIES - ( unsigned portBASE_TYPE ) 1U;
		}

		taskENTER_CRITICAL();
  40204a:	f241 23e1 	movw	r3, #4833	; 0x12e1
  40204e:	f2c0 0340 	movt	r3, #64	; 0x40
  402052:	4798      	blx	r3
		{
			if( pxTask == pxCurrentTCB )
  402054:	f24a 502c 	movw	r0, #42284	; 0xa52c
  402058:	f2c2 0000 	movt	r0, #8192	; 0x2000
  40205c:	6801      	ldr	r1, [r0, #0]
  40205e:	428d      	cmp	r5, r1
  402060:	d001      	beq.n	402066 <vTaskPrioritySet+0x3a>
				pxTask = NULL;
			}

			/* If null is passed in here then we are changing the
			priority of the calling function. */
			pxTCB = prvGetTCBFromHandle( pxTask );
  402062:	b945      	cbnz	r5, 402076 <vTaskPrioritySet+0x4a>
  402064:	e001      	b.n	40206a <vTaskPrioritySet+0x3e>

		taskENTER_CRITICAL();
		{
			if( pxTask == pxCurrentTCB )
			{
				pxTask = NULL;
  402066:	f04f 0500 	mov.w	r5, #0
			}

			/* If null is passed in here then we are changing the
			priority of the calling function. */
			pxTCB = prvGetTCBFromHandle( pxTask );
  40206a:	f24a 522c 	movw	r2, #42284	; 0xa52c
  40206e:	f2c2 0200 	movt	r2, #8192	; 0x2000
  402072:	6814      	ldr	r4, [r2, #0]
  402074:	e000      	b.n	402078 <vTaskPrioritySet+0x4c>
  402076:	462c      	mov	r4, r5

			traceTASK_PRIORITY_SET( pxTCB, uxNewPriority );

			#if ( configUSE_MUTEXES == 1 )
			{
				uxCurrentPriority = pxTCB->uxBasePriority;
  402078:	6ca3      	ldr	r3, [r4, #72]	; 0x48
			{
				uxCurrentPriority = pxTCB->uxPriority;
			}
			#endif

			if( uxCurrentPriority != uxNewPriority )
  40207a:	42b3      	cmp	r3, r6
  40207c:	d045      	beq.n	40210a <vTaskPrioritySet+0xde>
			{
				/* The priority change may have readied a task of higher
				priority than the calling task. */
				if( uxNewPriority > uxCurrentPriority )
  40207e:	d203      	bcs.n	402088 <vTaskPrioritySet+0x5c>
				{
					if( pxTask != NULL )
  402080:	3500      	adds	r5, #0
  402082:	bf18      	it	ne
  402084:	2501      	movne	r5, #1
  402086:	e003      	b.n	402090 <vTaskPrioritySet+0x64>
						there would be no need to switch as it must have already
						been the highest priority task. */
						xYieldRequired = pdTRUE;
					}
				}
				else if( pxTask == NULL )
  402088:	f1d5 0501 	rsbs	r5, r5, #1
  40208c:	bf38      	it	cc
  40208e:	2500      	movcc	r5, #0

				#if ( configUSE_MUTEXES == 1 )
				{
					/* Only change the priority being used if the task is not
					currently using an inherited priority. */
					if( pxTCB->uxBasePriority == pxTCB->uxPriority )
  402090:	6ae0      	ldr	r0, [r4, #44]	; 0x2c
  402092:	4283      	cmp	r3, r0
					{
