S01A0000524F424F545F4C4F43414C495A4154494F4E2E737265639C
S21440000048D60020C9384000C5384000C5384000B2
S214400010C5384000C5384000C538400000000000E4
S2144000200000000000000000000000009D1240009C
S214400030C5384000000000002D1340006913400002
S214400040C5384000C5384000C5384000C538400077
S214400050C5384000C5384000C5384000C538400067
S214400060C5384000D910400000000000A5364000CA
S214400070C1364000DD364000C5384000C538400037
S2144000800000000000000000C5384000C5384000B1
S214400090C5384000C5384000C5384000DD0F400038
S2144000A0C5384000C5384000C5384000C538400017
S2144000B0C5384000C5384000C5384000C538400007
S2144000C0C5384000C5384000C538400008B505482A
S2144000D0054B191A062900D808BD044A002AFBD049
S2144000E09047F9E7944740009747400000000000DB
S2144000F008B50748074B191A8A1002EBD2735910F5
S21440010000D108BD044A002AFBD09047F9E700BF5B
S21440011094474000944740000000000010B5064C4D
S214400120237843B9FFF7D2FF044810B10448AFF331
S21440013000800121217010BD400400200000000016
S2144001409447400008B5084B1BB108480849AFF330
S21440015000800848016811B1074A02B19047BDE8DF
S2144001600840FFF7C5BF00BF0000000094474000AE
S214400170440400209447400000000000F0B589B0D9
S21440018004460F464FF00003019305934FF00100DD
S214400190029006AA03924FF00C018DF814104FF00F
S2144001A00A058DF8045004908DF818004FF4004569
S2144001B0C4F2010540F2FD76C0F24006284601A989
S2144001C0B0470028FAD14FF46060C4F20E00C36B0B
S2144001D013F4001FFBD04FF003028DF804204FF0BD
S2144001E0060104914FF40045C4F2010540F24576FD
S2144001F0C0F24006284601A9B0470028FAD107F0C9
S2144002004000C3B243B39DF819509DF818604FEABA
S214400210961242EA85018DF818104FEA95108DF82F
S21440022019004FF0000641F2F575C0F24005204631
S21440023006A932463346A8470028F8D04FF00006B5
S21440024041F2F575C0F2400520460DF119013246DF
S2144002503346A8470028F7D017F0800F29D09DF8DE
S2144002601B309DF81A204FEA921141EA83008DF820
S2144002701A004FEA93168DF81B604FF0000641F2C5
S214400280F575C0F2400520460DF11A013246334658
S214400290A8470028F7D04FF0000641F2F575C0F2A7
S2144002A0400520460DF11B0132463346A84700283C
S2144002B0F7D017F0010F28D09DF81D309DF81C2070
S2144002C04FEA921141EA83008DF81C004FEA9316DC
S2144002D08DF81D604FF0000641F2F575C0F24005FE
S2144002E0204607A932463346A8470028F8D04FF0A4
S2144002F0000641F2F575C0F2400520460DF11D019D
S21440030032463346A8470028F7D009B0F0BD00BFB4
S21440031030B587B04FF00003009304934FF00A00C7
S2144003208DF800004FF0010101910DF11702029285
S21440033003914FF038048DF810404FF002058DF8C9
S21440034017504FF40044C4F2010440F2FD75C0F269
S214400350400520466946A8470028FAD142F2456340
S214400360C0F24003984707B030BD00BF70B586B0B6
S214400370064640F21133C0F2400398474FF0000063
S214400380009004904FF014018DF800104FF00104D7
S21440039001940DF11702029203944FF038058DF840
S2144003A010504FF40044C4F2010440F24575C0F2C8
S2144003B0400520466946A8470028FAD19DF81730E0
S2144003C023F01F0006438DF817604FF40044C4F234
S2144003D0010440F2FD75C0F2400520466946A84734
S2144003E00028FAD106B070BDF0B589B004460F4675
S2144003F04FF00003019305934FF00100029006A9C9
S21440040003914FF038028DF814204FF002058DF816
S21440041004504FF0060604964FF40045C4F201051A
S21440042040F24576C0F24006284601A9B04700286B
S214400430FAD117F0010F28D09DF819309DF8180012
S2144004404FEA901141EA83028DF818204FEA93153F
S2144004508DF819504FF0000641F2F575C0F2400590
S214400460204606A932463346A8470028F8D04FF023
S214400470000641F2F575C0F2400520460DF119011F
S21440048032463346A8470028F7D007F00203D8B2D2
S21440049048B39DF81B109DF81A204FEA921646EA7C
S2144004A081058DF81A504FEA91138DF81B304FF0A6
S2144004B0000641F2F575C0F2400520460DF11A01DE
S2144004C032463346A8470028F7D04FF0000641F2A0
S2144004D0F575C0F2400520460DF11B013246334605
S2144004E0A8470028F7D007F00407FFB247B39DF8A7
S2144004F01D009DF81C104FEA911242EA80038DF8C9
S2144005001C304FEA90168DF81D604FF0000641F201
S214400510F575C0F24005204607A932463346A8473F
S2144005200028F8D04FF0000641F2F575C0F24005BD
S21440053020460DF11D0132463346A8470028F7D025
S21440054009B0F0BD10B44FEA811143184FF00204D1
S21440055044504FF0FF309862196A5A6010BC70479A
S2144005604FEA81114FF005034350704700EB81116D
S214400570CA61704700EB81114A62704700EB8111F7
S214400580086A704770B487B04FF0020401944FF089
S214400590080502954FF0200403944FF0800504951B
S2144005A00A9C4FEAD43405944FEA5145B0EB510FBC
S2144005B03ED8A84251D24FF00806B1FBF6F54FEAB6
S2144005C01546A84237D8B0421ED24FF02005B1FBA0
S2144005D0F5F54FEA1546A84230D8B04217D24FF04C
S2144005E08006B1FBF6F54FEA1546A84229D8B04238
S2144005F010D2B1FBF4F14FEA1144814224D3844235
S21440060098BF04212BD922E04FF0010127E04FF09C
S214400610020124E04FF0030121E006AC04EB810028
S21440062050F8140C1060ABB119604FF0010019E09F
S2144006304FF0000016E04FF0000013E04FF00000CF
S21440064010E04FF000000DE04FF000000AE04FF0E1
S214400650000007E04FF0010004E04FF00001002AE0
S214400660DBD1E0E707B070BC704700BF0A4659B11F
S21440067003780129C4BF417841EA0323022A05DDF5
S214400680807840EA032301E04FF0000318467047A5
S2144006904FF0080303604FF0200101604FF0040262
S2144006A0026070474FF4D453C0F20603994245D8CF
S2144006B04FEA4101B2FBF1F2A2F10402FF2A2ED921
S2144006C04FEA5202FF2A18D94FEA5202FF2A17D998
S2144006D04FEA5202FF2A16D94FEA5202FF2A15D98C
S2144006E04FEA5202FF2A14D94FEA5202FF2A13D980
S2144006F04FEA52024FF0070313E04FF0010310E0B9
S2144007004FF002030DE04FF003030AE04FF00403FE
S21440071007E04FF0050304E04FF0060301E04FF01A
S21440072000034FEA02614FEA034343EA1141D2B263
S21440073041EA020303614FF0000070474FF00100AA
S214400740704700BF70B50546CC688E68002C47D011
S2144007504FF0000343604A684FEA022000F44072BC
S21440076042F48052087C4FEA004000F4FE00024308
S2144007706A60EB600846496840F26D63C0F2400329
S2144007809847E860012C05D14FF0030028604FF0F1
S21440079001022EE04FF0010129604FF0000228E0F0
S2144007A02B6A13F4807F04D01DE04FF002004FF018
S2144007B00101012C02D10AB928600A4613F0020F43
S2144007C004D02B6B06F8013B04F1FF34002CE7D134
S2144007D02A6A12F0010FFBD02B6A4FF0000070BD62
S2144007E04FF0010070BD4FF0050070BD4FF00500A2
S2144007F070BD2B6A13F4807FD7D0F7E770B50446F8
S214400800CD688E68002D3DD04FF000034360087CD5
S2144008104FEA004202F4FE004A684FEA022202F41F
S214400820407210436060E3600846496840F26D637A
S214400830C0F240039847E0600BE0226A12F4807FE3
S21440084023D112F0040FF8D016F8010B6063013D77
S21440085007D0216A11F4807F1AD111F0040FECD032
S214400860F2E7236A13F4807F15D113F0040FF8D013
S2144008704FF002012160226A12F0010FFBD04FF0C8
S214400880000070BD4FF0010070BD4FF0050070BD18
S2144008904FF0050070BD4FF0050070BD4FF080036F
S2144008A00360036B704700BF38B504460D464FF0F3
S2144008B0FF338362036A40F69D01C0F240018847D9
S2144008C0204640F29162C0F2400290472046696856
S2144008D02A6840F2A563C0F240039847012814BF37
S2144008E000200120697A012904BF4021216038BDDB
S2144008F010B44FF0AC0303600A684C68B2FBF4F3E4
S2144009004FEA131303F1FF344FF6FE7294420CD8AD
S21440091003628968416040F20223C0F820314FF0FC
S214400920500202604FF0000001E04FF0010010BCA2
S214400930704700BF4FF04003036070474FF010030E
S2144009400360704781607047C160704700697047B8
S21440095040697047436913F0020F03D0C1614FF0FE
S214400960000070474FF00100704700BF436913F026
S214400970010F04D0806908704FF0000070474FF0B8
S21440098001007047F8B54AF24065C2F2000541F6EC
S2144009901924C0F2400440F25C47C2F200074AF213
S2144009A02066C2F2000628684FF000014FF6FF723C
S2144009B00B46A047012811D13868317840F2E93318
S2144009C0C0F240039847317821F03F01727838688A
S2144009D0114340F27D13C0F2400398474AF22C6020
S2144009E0C2F20000006842F20101C0F240018847AE
S2144009F00128D8D14AF23C62C2F2000210684FF099
S214400A0000010A460B4641F2F57CC0F2400CE04736
S214400A104FF00000014642F22D03C0F240039847D3
S214400A20C1E700BF000000002DE9F04F89B041F259
S214400A306906C0F240064AF22863C2F200030393F6
S214400A404FF46068C0F227784FF000000DF11F01A8
S214400A504FF6FF72B047002839D0039800684FF031
S214400A6000014FF6FF720B4641F61924C0F24004CF
S214400A70A047012809D14AF23461C2F20001086851
S214400A8042F25D72C0F2400290474AF23C65C2F2C2
S214400A90000528684FF000014FF6FF720B4641F6FE
S214400AA01927C0F24007B847012809D14AF23063F7
S214400AB0C2F20003186842F25D74C0F24004A047D8
S214400AC09DF81F004AF22061C2F20001087040F211
S214400AD05C47C2F200074FF0000541F2F964C0F2ED
S214400AE0400438682946A0470028FAD040F2113220
S214400AF0C0F2400290474FF000000DF11F014FF644
S214400B00FF72B04730B19DF81F004AF22063C2F230
S214400B10000358704FF000000DF11F014FF6FF72B2
S214400B20B04730B19DF81F104AF22067C2F2000766
S214400B30B9704FF000000DF11F014FF6FF72B0473D
S214400B4030B19DF81F504AF22064C2F20004E570AE
S214400B504FF000000DF11F014FF6FF72B04730B165
S214400B609DF81F204AF22060C2F2000002714AF24D
S214400B702067C2F2000797F803B04AF23869C2F21B
S214400B80000939794FEA1B1343F6D97AC0F2400A76
S214400B9003EB0110D04704460D460BF00F00D0473C
S214400BA043A3D3E9002344F2A50CC0F2400CE0472F
S214400BB002460B462046294643F64154C0F24004BE
S214400BC0A04744F2C942C0F240029047C9F800002C
S214400BD04FF000004FF0030142F22D05C0F24005F1
S214400BE0A8474AF23464C2F2000420684FF002017B
S214400BF0A8474AF2306BC2F2000BDBF800004FF019
S214400C000201A847206842F25D14C0F24004A047A3
S214400C10DBF80000A047B87800F01F0040F26D37C0
S214400C20C0F24007B847D9F8000044F26951C0F214
S214400C30400188470746CDF80080414605AA06ABE6
S214400C4040F28554C0F24004A0474FF00004C4F27E
S214400C50010420464FF00001069B43F4804240F2D8
S214400C604553C0F240039847059AB8FBF2F3204636
S214400C704FF00001B3FBF7F240F26D57C0F2400769
S214400C80B84720464FF000014FF0100240F275532F
S214400C90C0F24003984720464FF0000140F26154AE
S214400CA0C0F24004A0474FF000000146A847CBE6FC
S214400CB09A9999999999B93F2DE9F04186B04FF0A4
S214400CC000044AF22065C2F2000540F25C47C2F2D8
S214400CD0000741F61926C0F240062FE0A046687885
S214400CE0297841EA002343FA04F313F0010F1FD09A
S214400CF038680DF117014FF6FF724FF00003B0470A
S214400D0030B106AA02EB44009DF8171000F8141CF8
S214400D1038680DF117014FF6FF724FF00003B047E9
S214400D2030B106AB03EB480C9DF817200CF8132C9B
S214400D3004F10104E4B201E04FF00004082CCDD9E0
S214400D409DF8053003F00202D0B218B163F00301FB
S214400D508DF805109DF8074004F00203DAB21AB188
S214400D6064F003008DF807009DF8091001F00204B6
S214400D70E3B21BB161F003028DF809204FF0000882
S214400D8041F28D04C0F2400440469DF904104246AC
S214400D90A0470028F8D04FF0000841F28D04C0F27A
S214400DA0400440469DF905104246A0470028F8D02A
S214400DB04FF0000841F28D04C0F2400440469DF9D1
S214400DC006104246A0470028F8D04FF0000841F2EF
S214400DD08D04C0F2400440469DF907104246A047A5
S214400DE00028F8D04AF22C60C2F20000006842F2B6
S214400DF00101C0F24001884701289DD14AF228638C
S214400E00C2F2000318684FF000010A460B4641F252
S214400E10F574C0F24004A0474FF00000014642F28D
S214400E202D02C0F2400290474FF0000486E700BF14
S214400E30F0B585B04AF22063C2F200034FF00004DA
S214400E401C705C709C70DC701C714FF480700146A6
S214400E5041F23102C0F2400290474FF480704FF0AA
S214400E600101224641F28975C0F24005A84740F28A
S214400E705C41C2F2000108604FF0010021464FF08D
S214400E800302A8474AF24066C2F20006306038B114
S214400E9021462246234641F2F577C0F24007B8473E
S214400EA04FF001004FF000014FF0030241F289730A
S214400EB0C0F2400398474AF22864C2F20004206019
S214400EC040B14FF000010A460B4641F2F575C0F2BC
S214400ED04005A8474FF001004FF000014FF00302D5
S214400EE041F28976C0F24006B0474AF23C62C2F20E
S214400EF00002106040B14FF000010A460B4641F236
S214400F00F577C0F24007B8474FF0000400944AF225
S214400F103467C2F2000701970294039440F6B94042
S214400F20C0F2400044F22871C0F240014FF0820205
S214400F30234641F66155C0F24005A8474FF00100F0
S214400F4000904AF22C61C2F200010191029403948F
S214400F5040F62920C0F2400044F23071C0F2400111
S214400F604FF082022346A84700944AF23066C2F207
S214400F70000601960294039440F68510C0F24000A5
S214400F8044F23871C0F240014FF082022346A8472F
S214400F90386842F25D75C0F24005A8473068A847F9
S214400FA04AF22863C2F200031868214622462346C6
S214400FB041F2F575C0F24005A8474AF23C62C2F2DB
S214400FC000021068214622462346A84742F20920DE
S214400FD0C0F24000804705B0F0BD00BFF0B583B01A
S214400FE04FF0000102AC44F8041D0846C4F201006C
S214400FF040F27D53C0F2400398474AF24067C2F23F
S21440100000074FF0000641F66915C0F24005386803
S214401010314622463346A8470028F8D0019820B1EA
S21440102041F2BD21C0F24001884703B0F0BD00BF89
S21440103038B50D464FF001014FF0000241F2897479
S214401040C0F24004A04740F26443C2F20003186076
S21440105028464FF001014FF00002A04740F26041A1
S214401060C2F20001086038BD10B540F26443C2F2D7
S214401070000318684FF0000341F61924C0F24004FC
S214401080A047003018BF012010BD00BF10B582B089
S21440109002AB03F8011D40F26041C2F2000108684D
S2144010A019464FF0000341F2F574C0F24004A047E1
S2144010B001280DD14FF40060C4F20E004FF002013B
S2144010C040F64512C0F2400290474FF0010001E062
S2144010D04FF0000002B010BD30B585B04FF00003B1
S2144010E003934FF40064C4F20E04204640F65111B8
S2144010F0C0F2400188470546204640F64D12C0F2F1
S2144011004002904700EA050414F0020F25D040F252
S2144011106040C2F2000000680DF10B0103AA41F6E0
S214401120E133C0F24003984701280BD14FF40060EA
S214401130C4F20E009DF80B1040F65513C0F2400363
S21440114098470AE04FF40060C4F20E004FF00201E8
S21440115040F64912C0F24002904714F0010F26D0E4
S2144011604AF22C64C2F2000420684FF0010142F2B9
S2144011702D02C0F2400290474FF40060C4F20E00C9
S21440118001A940F66D13C0F24003984704A90198A0
S21440119001F8050D40F26444C2F20004206803AA38
S2144011A04FF0000341F66914C0F24004A04703998B
S2144011B021B141F2BD22C0F24002904705B030BD99
S2144011C000F1080343604FF0FF328260C360036162
S2144011D04FF00001016070474FF000030361704715
S2144011E043685A684A6042688A605A6891605960A3
S2144011F041600861016801F101010160704700BF6C
S21440120010B40C68B4F1FF3F01D103690AE000F165
S2144012100803C2681268944204D35B685A6812682E
S2144012209442FAD25A684A6091608B60596008616D
S214401230016801F10101016010BC70474368826893
S2144012409A60816843684B6001694A68824204BF7D
S21440125082684A604FF000030361086800F1FF327D
S2144012600A600868704700BF03480068006880F35B
S214401270088862B600DF00BF08ED00E04FF08073DC
S21440128040F8043C40F8081C4FF0000140F80C1CA5
S21440129040F8202CA0F14000704700BF064B19686C
S2144012A00868B0E8F00F80F309884FF0000080F33C
S2144012B011884EF00D0E70472CA500204EF60453B4
S2144012C0CEF200034FF080521A607047EFF3118061
S2144012D04FF0A00181F3118870474FF0000000BF27
S2144012E008B541F2CD23C0F24003984740F20000D3
S2144012F0C2F20000026802F10102026008BD00BFAF
S21440130080F31188704700BF08B540F20002C2F271
S2144013100002136803F1FF30106030B94FF0000050
S21440132041F20131C0F24001884708BDEFF3098021
S2144013300C4B1A6820E9F00F10602DE908404FF07A
S214401340A00080F3118801F0A9F94FF0000080F367
S2144013501188BDE8084019680868B0E8F00F80F3C7
S214401360098870472CA5002008B54EF60453CEF2E7
S21440137000034FF080521A6041F2CD20C0F2400088
S214401380804742F2C921C0F2400188474FF0000032
S21440139041F20133C0F24003984708BD4EF21403B1
S2144013A0CEF2000345F2FF22C0F207021A604EF268
S2144013B01000CEF200004FF007010160704700BFFA
S2144013C010B54EF62053CEF200031A6842F4700071
S2144013D01860196841F070441C6041F29D33C0F2B9
S2144013E0400398474FF0000440F20002C2F2000269
S2144013F0146041F26920C0F240008047204610BD8C
S21440140030B44AF26C42C2F2000200E01A46136858
S2144014108342FBD3114654681519854203D1686848
S21440142004195460104642688418A3420FD14AF209
S2144014306844C2F2000424689C4206D05B689A184E
S21440144042600B681A68026002E0036000E00360D6
S214401450814218BF086030BC704700BF38B50446AC
S21440146042F29123C0F2400398474AF26840C2F2E3
S2144014700000016821BB4AF26C42C2F2000240F210
S2144014806843C2F2000313604FF00001516003F559
S2144014901F4202F1F0004AF26845C2F20005286099
S2144014A0C2F8F410C2F8F01049F6F07159601860AE
S2144014B040F20403C2F200031A68A2F110021A6056
S2144014C0002C47D004F1100212F0070F1CBF22F088
S2144014D00702083202F1FF3049F6FE75A84239D8B5
S2144014E04AF26C41C2F200010C6801E02146044613
S2144014F063689A4202D920680028F7D14AF26845C4
S214401500C2F200052B689C4224D00D6805F11005F8
S214401510206808606368991A202907D9A018416096
S214401520626041F20142C0F24002904740F204003D
S214401530C2F20000036861685A1A026042F25940DB
S214401540C0F2400080476DB943F62553C0F24003D1
S214401550984707E042F25941C0F2400188474FF0B1
S2144015600005F1E7284638BD10B50446C8B142F23A
S2144015709123C0F24003984740F20400C2F20000B4
S214401580016854F80C2C8B180360A4F1100041F24B
S2144015900141C0F24001884742F25940C0F2400043
S2144015A0804710BDF8B5044641F2E123C0F240033F
S2144015B09847A06C00281ADD616A19B917E0616A7D
S2144015C051B914E004F1240642F6E505C0F24005A0
S2144015D042F66927C0F240073046A84700B1B847F0
S2144015E0A26C02F1FF33A364A06C0028E7DC4FF046
S2144015F0FF32A26441F20933C0F24003984741F2F9
S214401600E120C0F240008047616C00291ADD226963
S2144016101AB917E0226952B914E004F1100642F6EE
S214401620E505C0F2400542F66927C0F2400730465D
S214401630A84700B1B847636C03F1FF306064616C43
S2144016400029E7DC4FF0FF33636441F20930C0F213
S21440165040008047F8BD00BF38B50346056875B101
S214401660026CC468A418C4604068844228BFDD6029
S2144016700846D96844F2BD63C0F24003984738BD77
S21440168010B50446036C63B9016800292ED1406842
S21440169042F65533C0F2400398474FF00000606072
S2144016A024E082B980681A4644F2BD63C0F2400323
S2144016B09847A268216C5018A0606368984215D37A
S2144016C02268A26012E0C0681A4644F2BD63C0F2C7
S2144016D040039847226CC2F10000E1680B18E360B3
S2144016E02268934202D261680818E060A26B02F159
S2144016F00102A26310BD00BF38B50D46044630B99E
S21440170041F2CD24C0F24004A04700BFFDE741F2BD
S214401710E123C0F2400398472368E06B226C00FB4D
S214401720023161604FF00001A163A36000F1FF3019
S21440173002FB0033E3604FF0FF326264A26485B977
S2144017402169C1B104F1100042F6E503C0F240033E
S214401750984701280FD141F2BD20C0F24000804793
S21440176009E004F1100041F2C115C0F24005A84757
S21440177004F12400A84741F20932C0F240029047E3
S2144017804FF0010038BD00BFF8B50D461746064677
S214401790E0B14FF0500041F25D43C0F2400398473D
S2144017A0044698B106FB05F000F1010041F25D41A8
S2144017B0C0F240018847206070B9204641F2695225
S2144017C0C0F24002904701E000BFFDE741F2CD2065
S2144017D0C0F240008047F7E7E663256420464FF0B6
S2144017E0010141F2F963C0F24003984784F84D7016
S2144017F02046F8BD2DE9F04F85B08A460192009309
S214401800044630B941F2CD24C0F24004A04700BFA0
S214401810FDE741B9036C4BB141F2CD20C0F2400028
S214401820804700BFFDE74FF0000701E04FF000079C
S21440183041F2E126C0F2400642F68D1BC0F2400B54
S21440184041F20935C0F24005B047A26BE16B8A42CF
S2144018501FD220465146009A41F28163C0F24003AF
S2144018609847616A69B104F1240042F6E502C0F285
S21440187040029047012804D141F2BD20C0F240000A
S214401880804741F20933C0F2400398474FF00100C9
S21440189066E0019B3BB941F20932C0F240029047F4
S2144018A04FF000005CE01FB902A8D8474FF0010790
S2144018B0A84742F29120C0F240008047B047626C91
S2144018C0B2F1FF3F04BF00226264A16CB1F1FF3F5A
S2144018D004BF0021A164A84702A801A942F6BD138F
S2144018E0C0F24003984770BBB047D4F83890D4F85D
S2144018F03C80A847C1451AD104F11000019942F630
S2144019001D02C0F240029047204641F2A551C0F267
S2144019104001884742F25940C0F2400080470028C4
S21440192092D141F2BD23C0F2400398478CE720464F
S21440193041F2A551C0F24001884742F25943C0F2F5
S2144019404003984780E7204641F2A552C0F2400245
S214401950904742F25940C0F2400080474FF00000A6
S21440196005B0BDE8F08F00BF2DE9F0410E461546A4
S2144019709846044630B941F2CD25C0F24005A84706
S21440198000BFFDE741B9036C33B141F2CD20C0F250
S2144019904000804700BFFDE741F2CD21C0F2400144
S2144019A088470746A26BE36B9A4221D220463146CF
S2144019B0424641F28163C0F240039847A06CB0F1C2
S2144019C0FF3F0ED1626AB2B104F1240042F6E5044C
S2144019D0C0F24004A04788B19DB14FF001042C608E
S2144019E011E0A16C01F10101A1644FF001040AE08D
S2144019F04FF0000407E04FF0010404E04FF001040C
S214401A0001E04FF00104384641F20133C0F2400392
S214401A1098472046BDE8F0812DE9F04F85B08946CD
S214401A2001929A46044630B941F2CD24C0F24004B1
S214401A30A04700BFFDE741B9036C4BB141F2CD2052
S214401A40C0F24000804700BFFDE74FF0000701E0CE
S214401A504FF0000741F2E126C0F2400642F68D1BE9
S214401A60C0F2400B41F20935C0F24005B047A16BC9
S214401A7000293FD0E5682046494641F25963C0F206
S214401A8040039847BAF1000F1CD1A36B03F1FF3017
S214401A90A063216829B942F67922C0F240029047F5
S214401AA060602369F3B104F1100042F6E501C0F22C
S214401AB040018847012815D141F2BD20C0F24000C0
S214401AC080470FE0E560606A60B104F1240042F6AA
S214401AD0E501C0F24001884720B141F2BD22C0F284
S214401AE04002904741F20932C0F2400290474FF020
S214401AF0010071E0019A3AB941F20932C0F240025F
S214401B0090474FF0000067E01FB902A8D8474FF053
S214401B100107A84742F29123C0F240039847B047D6
S214401B20606CB0F1FF3F04BF00206064A16CB1F16F
S214401B30FF3F04BF0021A164A84702A801A942F6BE
S214401B40BD12C0F240029047002838D1B047D4F8C2
S214401B503880A847B8F1000F25D123683BB9B04775
S214401B60606842F6AD21C0F240018847A84704F1BC
S214401B702400019942F61D02C0F2400290472046DA
S214401B8041F2A553C0F24003984742F25940C0F292
S214401B904000804700287FF469AF41F2BD21C0F283
S214401BA04001884762E7204641F2A551C0F2400115
S214401BB0884742F25942C0F24002904756E72046D4
S214401BC041F2A553C0F24003984742F25940C0F252
S214401BD0400080474FF0000005B0BDE8F08F00BFE2
S214401BE0F8B50E461546044630B941F2CD25C0F24A
S214401BF04005A84700BFFDE741B9036C33B141F249
S214401C00CD20C0F24000804700BFFDE741F2CD2125
S214401C10C0F2400188470746A26B22B320463146B1
S214401C2041F25963C0F240039847A06B00F1FF3180
S214401C30A163626CB2F1FF3F0ED12069B0B104F1EE
S214401C40100042F6E504C0F24004A04788B19DB1BA
S214401C504FF001042C6011E0636C03F101036364F0
S214401C604FF001040AE04FF0000407E04FF0010493
S214401C7004E04FF0010401E04FF00104384641F221
S214401C800131C0F2400188472046F8BD38B50446C9
S214401C900D4641F2E123C0F240039847606CB0F134
S214401CA0FF3F04BF00206064A16CB1F1FF3F04BF5A
S214401CB00021A16441F20932C0F240029047A36B72
S214401CC03BB904F12400294642F69102C0F2400294
S214401CD09047204641F2A551C0F24001884738BDA2
S214401CE010B504464AF22C53C2F20003186844600A
S214401CF04AF24851C2F200010A68944211D24AF2AE
S214401D004C52C2F2000210684AF22C53C2F2000350
S214401D10196801F1040141F20122C0F240029047E5
S214401D2010BD4AF28C43C2F2000318684AF22C51A6
S214401D30C2F20001096801F1040141F20122C0F239
S214401D404002904740F20800C2F2000003689C42FE
S214401D5004D240F20801C2F200010C6010BD00BF80
S214401D602DE9F84F0F4690469A460A9D0C9E8146AE
S214401D7030B941F2CD27C0F24007B84700BFFDE773
S214401D80042D06D941F2CD25C0F24005A84700BF34
S214401D90FDE74FF04C0041F25D43C0F240039847E8
S214401DA00446002800F02781002E40F022814FEAAA
S214401DB0880041F25D41C0F24001884706462063F4
S214401DC030B9204641F26952C0F24002904712E1D3
S214401DD030464FF0A5014FEA880244F2CF66C0F283
S214401DE04006B04708F1FF38206B00EB880222F02F
S214401DF0070B04F1340039464FF00A0244F2DF671D
S214401E00C0F24007B8474FF0000384F83D30042D39
S214401E1034BF2E460426E662A66404F1040738461C
S214401E2041F2D918C0F24008C04704F11800C04734
S214401E302461C6F10506A661646258464946524684
S214401E4041F27D23C0F240039847206010F0070F10
S214401E5006D041F2CD24C0F24004A04700BFFDE7C3
S214401E600B9901B10C6041F2E120C0F2400080477E
S214401E704AF26C53C2F200031A6802F101021A6079
S214401E804AF22C51C2F200010868002849D14AF2B1
S214401E902C51C2F200010C604AF26C50C2F20000B3
S214401EA00368012B50D14AF2C449C2F200094846A1
S214401EB041F2C116C0F24006B04709F11400B047DF
S214401EC009F12800B04709F13C00B04709F150003D
S214401ED0B0474AF25459C2F200094846B0474AF25F
S214401EE0AC48C2F200084046B0474AF23050C2F210
S214401EF00000B0474AF29840C2F20000B0474AF2AB
S214401F007840C2F20000B0474AF28C42C2F2000269
S214401F10C2F800904AF24C51C2F20001C1F800806B
S214401F2012E04AF29043C2F200031A6862B94AF2DB
S214401F302C51C2F200010868C36A9D4204D34AF29B
S214401F402C52C2F200021460E06A4AF27053C2F2A7
S214401F5000031A68904204D94AF27051C2F2000156
S214401F6008604AF25053C2F200031A68226402F133
S214401F7001021A604AF2C041C2F200010B68984260
S214401F8004D94AF2C042C2F20002106000EB80015F
S214401F904AF2C4400346C2F2000303EB81003946CE
S214401FA041F2E112C0F24002904741F20931C0F2DC
S214401FB0400188474AF29040C2F20000036883B16D
S214401FC04AF22C52C2F200021168C86A85420CD905
S214401FD041F2BD23C0F2400398474FF00100BDE8F0
S214401FE0F88F4FF00100BDE8F88F4FF00100BDE8D4
S214401FF0F88F0663ECE64FF0FF30BDE8F88F00BF81
S21440200010B5044641F2E123C0F24003984724B994
S2144020104AF22C50C2F200000468E46A41F20931E8
S214402020C0F240018847204610BD00BF70B5054647
S214402030042906D941F2CD24C0F24004A04700BF8F
S214402040FDE7042934BF0E46042641F2E123C0F2E0
S214402050400398474AF22C50C2F2000001688D4275
S21440206001D045B901E04FF000054AF22C52C2F2C9
S2144020700002146800E02C46A36CB34245D003D25D
S214402080003518BF012503E0D5F1010538BF00250E
S214402090E06A834208BFE662A664C6F10506A6610A
S2144020A003EB83014AF2C442C2F2000202EB810013
S2144020B06369834223D104F10406304641F23D2150
S2144020C0C0F240018847E06A4AF2C042C2F20002CB
S2144020D01368984204D94AF2C041C2F2000108602F
S2144020E000EB80034AF2C4400246C2F2000202EB12
S2144020F08300314641F2E113C0F24003984725B1D0
S21440210041F2BD21C0F24001884741F20930C0F299
S2144021104000804770BD00BF08B530B941F2CD22BF
S214402120C0F24002904700BFFDE742694AF278415C
S214402130C2F200018A420BD1806A4AF23053C2F2A0
S2144021400003984207D0D0F1010038BF002008BDF8
S2144021504FF0000008BD4FF0000008BD38B50446FB
S21440216030B941F2CD24C0F24004A04700BFFDE79D
S2144021704AF22C53C2F200031868844243D041F21C
S214402180E121C0F240018847204642F21912C0F2CF
S21440219040029047012831D104F10405284641F217
S2144021A03D23C0F240039847E06A4AF2C041C2F27B
S2144021B000010A68904204D94AF2C043C2F20003C2
S2144021C0186000EB80014AF2C4400246C2F20002A8
S2144021D002EB8100294641F2E113C0F240039847E2
S2144021E04AF22C51C2F200010868E26AC36A9A4277
S2144021F004D341F2BD21C0F24001884741F2093084
S214402200C0F24000804738BD10B584B04FF00003A0
S214402210009301930293039342F2A550C0F240000C
S21440222044F25471C0F240014FF0820241F66154CC
S214402230C0F24004A04701281FD142F69143C0F2A5
S21440224040039847012818D141F2CD21C0F2400101
S21440225088474AF29043C2F200034FF001021A60E8
S2144022604AF24850C2F200004FF00001016041F2CD
S214402270C133C0F24003984707E030B941F2CD2061
S214402280C0F24000804700BFFDE704B010BD00BF6D
S2144022904AF22853C2F200031A6802F101021A6099
S2144022A0704700BF10B541F2E123C0F240039847A3
S2144022B04AF24850C2F20000046841F20931C0F2C6
S2144022C040018847204610BD2DE9F84F4AF2285372
S2144022D0C2F200031868002840F0B3804AF2485320
S2144022E0C2F20003186800F101001860196800295E
S2144022F039D14AF28C42C2F200021368186830B1F3
S21440230041F2CD25C0F24005A84700BFFDE74AF29E
S2144023108C43C2F2000319684AF24C52C2F20002E1
S2144023201068186011604AF24452C2F20002116806
S21440233001F1010111601B68186838B940F20803C2
S214402340C2F200034FF0FF3018600CE04AF28C42B5
S214402350C2F200021168CB68D868426840F20801B1
S214402360C2F200010A604AF24852C2F20002116804
S21440237040F20803C2F200031868814269D34AF269
S2144023808C42C2F2000211680B687BB14AF28C4460
S214402390C2F200042068C268D46863684AF24851B2
S2144023A0C2F20001086883421AD912E040F20803DC
S2144023B0C2F200034FF0FF301860BDE8F88F346873
S2144023C0E268D46863684846C2F2000001688B42FF
S2144023D01CD940F20802C2F200021360BDE8F88F32
S2144023E041F23D27C0F240074AF2C048C2F2000818
S2144023F04AF2C44BC2F2000B41F2E11AC0F2400A64
S2144024004AF28C46C2F200064AF2485904F10405E4
S2144024102846B847A36A13B104F11800B847E16AE2
S214402420D8F80020914288BFC8F8001001EB810020
S2144024300BEB80002946D047336819680029BED187
S214402440B4E74AF27441C2F200010A6802F101029E
S2144024500A60BDE8F88F00BF2DE9F0474AF22853DE
S214402460C2F20003186830B941F2CD25C0F24005EB
S214402470A84700BFFDE741F2E121C0F2400188478E
S2144024804AF22854C2F20004226802F1FF33236065
S2144024902068002878D14AF26C51C2F200010C68DC
S2144024A04CBB4FF0000474E0D8F80C20D46804F11C
S2144024B01800B84704F104094846B847E36A30684C
S2144024C0834288BF33605146C2F2000103EB830269
S2144024D001EB8200494641F2E113C0F240039847BF
S2144024E04AF22C50C2F200000168E46ACA6A94427A
S2144024F028BF01250FE04FF000054AF23058C2F2DF
S214402500000841F23D27C0F240074AF2C046C2F2F8
S21440251000064AF2C44AD8F80020002AC4D14AF23B
S2144025207443C2F200031868B0B14AF27442C2F271
S21440253000021368CBB142F2C925C0F240054AF208
S2144025407444C2F20004A847206800F1FF312160BD
S2144025502268002AF7D108E0012D06D04AF26851D9
S214402560C2F200010C68012C11D14AF26853C2F243
S21440257000034FF000041C6041F2BD20C0F2400052
S21440258080474FF0010404E04FF0000401E04FF0B4
S214402590000441F20931C0F2400188472046BDE8B8
S2144025A0F08700BF2DE9F8434AF29445C2F2000591
S2144025B042F29128C0F240084AF29846C2F200061B
S2144025C042F259472DE0C04734683B46C0F24003CC
S2144025D0984734B341F2E120C0F240008047F168AA
S2144025E0CC6804F1040041F23D22C0F2400290471C
S2144025F04AF26C53C2F20003186800F1FF311960CA
S2144026002A6802F1FF332B6041F20930C0F24000E5
S2144026108047206B41F26959C0F24009C8472046BE
S214402620C8472B68002BCED14AF2C440C2F2000005
S21440263001680129F5D941F2BD22C0F24002904717
S214402640EFE700BF10B5044610B342F29123C0F244
S214402650400398474AF24850C2F2000001686418A6
S2144026604AF22C52C2F20002106800F1040041F215
S2144026703D23C0F240039847204641F6E141C0F270
S2144026804001884742F25940C0F24000804720B996
S21440269041F2BD22C0F24002904710BD08B54AF252
S2144026A02853C2F200031868A8B94AF2C041C2F2E1
S2144026B000010A6802EB82034FEA83004AF2C441F3
S2144026C0C2F200010A5852BB4AF2C043C2F20003AB
S2144026D0186888B909E04AF26851C2F200014FF022
S2144026E00100086008BD1A6872B941F2CD23C0F2F5
S2144026F04003984700BFFDE74AF2C043C2F20003DA
S2144027004AF2C441C2F200011A6802F1FF30186072
S2144027101A6802EB820051F82020002AE3D04AF2E1
S214402720C043C2F20003196801EB81004AF2C4427A
S214402730C2F2000202EB800359684868586003F111
S2144027400802904204BF406858605B68D9684AF205
S2144027502C50C2F20000016008BD00BF70B50446B0
S21440276041F2E123C0F2400398474AF22C50C2F2AD
S214402770000001688C4202D0254644B901E04FF083
S21440278000044AF22C52C2F200021568FFE705F137
S2144027900406304641F23D23C0F240039847A86AFB
S2144027A030B105F1180041F23D21C0F240018847A2
S2144027B04AF27840C2F20000314641F2E112C0F2DD
S2144027C04002904741F20933C0F24003984724BB89
S2144027D04AF29040C2F20000016829B141F2BD21A0
S2144027E0C0F24001884770BD4AF27842C2F2000209
S2144027F010684AF26C53C2F200031968884207D147
S2144028004AF22C50C2F200004FF00003036070BD45
S21440281042F29D62C0F24002904770BD38B50C4609
S21440282030B941F2CD24C0F24004A04700BFFDE7D6
S2144028304AF22C55C2F20005296801F1180141F20E
S2144028400122C0F240029047286800F1040041F29D
S2144028503D21C0F240018847B4F1FF3F0CD12968C2
S2144028604AF27840C2F2000001F1040141F2E1135D
S214402870C0F24003984738BD4AF24850C2F20000C2
S2144028800368E01841F6E142C0F24002904738BD86
S21440289038B50D4630B941F2CD24C0F24004A047C9
S2144028A000BFFDE74AF22C54C2F20004216801F151
S2144028B0180141F2E112C0F240029047206800F150
S2144028C0040041F23D21C0F2400188474AF2485098
S2144028D0C2F200000368E81841F6E142C0F2400246
S2144028E0904738BD38B5C368DC6834B941F2CD246A
S2144028F0C0F24004A04700BFFDE704F11805284693
S21440290041F23D21C0F2400188474AF22850C2F2C7
S2144029100000026822BB04F10405284641F23D212E
S214402920C0F240018847E06A4AF2C042C2F2000262
S2144029301368984204D94AF2C041C2F200010860C6
S21440294000EB80034AF2C4400246C2F2000202EBA9
S2144029508300294641F2E113C0F24003984709E05C
S2144029604AF23050C2F20000294641F2E113C0F26A
S214402970400398474AF22C51C2F200010A68E06AC6
S214402980D36A984234BF0020012038BD08B50346BC
S21440299030B941F2CD23C0F24003984700BFFDE76F
S2144029A04AF24452C2F20002106818604AF2485195
S2144029B0C2F200010A685A6008BD00BF38B50D462D
S2144029C0044630B941F2CD22C0F24002904700BFE3
S2144029D0FDE731B941F2CD25C0F24005A84700BF1A
S2144029E0FDE741F2E123C0F2400398472868B0F182
S2144029F0FF3F29D04AF24452C2F2000211682368CF
S214402A008B4207D04AF24852C2F20002116863680D
S214402A108B421CD94AF24852C2F2000211686368DF
S214402A20CA1A904216D94AF24851C2F200010A68C0
S214402A309B1A18182860204642F68D14C0F24004AF
S214402A40A0474FF0000407E04FF0000404E04FF0CA
S214402A50010401E04FF0010441F20931C0F24001A7
S214402A608847204638BD00BF4AF26853C2F200038A
S214402A704FF001021A6070474AF22C53C2F200032C
S214402A80186870474AF29043C2F20003186848B18B
S214402A904AF22851C2F200010A68002A14BF0220F6
S214402AA0012070474FF00000704700BF38B504461D
S214402AB000284ED0C36A4AF22C52C2F20002106876
S214402AC0C16A8B4245D24AF22C52C2F200021068CA
S214402AD0C16AC1F10502A26103EB83034AF2C44016
S214402AE0C2F2000000EB830162698A422AD104F1F7
S214402AF00405284641F23D22C0F2400290474AF281
S214402B002C53C2F200031868C16AE1624AF2C0421E
S214402B10C2F200021368994204D94AF2C040C2F297
S214402B200000016001EB81014AF2C4421346C2F242
S214402B30000303EB8100294641F2E112C0F2400255
S214402B40904738BD4AF22C53C2F200031868C16A57
S214402B50E16238BD38B5044650B3C26A836C9A42C7
S214402B6026D000F10405284641F23D21C0F240013E
S214402B708847A06CE062C0F10502A2614AF2C043F9
S214402B80C2F200031968884204D94AF2C042C2F22F
S214402B900002106000EB80034AF2C440C2F200001C
S214402BA000EB8300294641F2E112C0F24002904712
S214402BB038BD00BF70B541F2E123C0F240039847EC
S214402BC04AF2A450C2F20000016849BB4AF2785566
S214402BD0C2F20005284641F2C116C0F24006B04790
S214402BE04AF28C54C2F200042046B0474AF274526D
S214402BF0C2F2000215604AF2A853C2F200031C60FB
S214402C004FF005004FF00C014FF0000241F289737F
S214402C10C0F2400398474AF2A451C2F2000108604D
S214402C2041F20930C0F24000804770BD10B50446FE
S214402C3041602061914212D8D01AA169884221D2BF
S214402C404AF2A853C2F20003186804F1040141F2A4
S214402C500122C0F2400290474FF0000010BD9A4259
S214402C6001D2994211D24AF27453C2F20003186854
S214402C7004F1040141F20122C0F2400290474FF0B5
S214402C80000010BD4FF0010010BD4FF0010010BD18
S214402C9010B584B042F6B533C0F2400398474AF2C6
S214402CA0A450C2F200000168B9B14FF0040200928D
S214402CB04FF0000301930293039342F63160C0F253
S214402CC0400044F26071C0F240014FF4827241F617
S214402CD06154C0F24004A04730B941F2CD24C0F25E
S214402CE04004A04700BFFDE704B010BD10B584B057
S214402CF04AF2A454C2F2000424682CB30191029212
S214402D000390B3B942F68523C0F2400398470128A2
S214402D104AF2A453C2F20003186801A907BF069AF4
S214402D2000230022134641F2F574C0F24004A04747
S214402D300CE0204601A91A464FF0000341F66914FC
S214402D40C0F24004A04701E04FF0000004B010BDC0
S214402D502DE9F04F85B0824642F2A523C0F24003EB
S214402D60984781464AF2A050C2F200000168894561
S214402D704FD22BE0DC682668DD68EC6804F1040579
S214402D802846C047616A20468847E06901282CD11A
S214402D90A369F218B24209D96260246138682946AC
S214402DA041F20123C0F2400398471EE0CDF800B040
S214402DB02046594632465B46039CA047A8B941F296
S214402DC0CD26C0F24006B04700BFFDE74AF2745732
S214402DD0C2F2000741F23D28C0F240084FF0000B17
S214402DE042F6ED43C0F2400303933B681868002860
S214402DF0C0D14AF2A852C2F2000211684AF2745098
S214402E00C2F20000016013604FF00103CAF80030C0
S214402E1003E04FF00002CAF800204AF2A052C2F285
S214402E200002C2F80090484605B0BDE8F08F00BFEB
S214402E302DE9F04F89B04AF2745BC2F2000B42F2C1
S214402E409123C0F24003039342F6515AC0F2400A1F
S214402E50DBF800000268002A00F0C480C7683D68BE
S214402E60039B984704A8D04706460498002850D1AC
S214402E70B54237D842F25947C0F24007B847DBF868
S214402E800030D868C46804F1040041F23D22C0F224
S214402E9040029047E16901291ED1A7692046E919F9
S214402EA032462B4642F62D46C0F24006B047012831
S214402EB012D14FF000030093204619462A4642F6A8
S214402EC0ED45C0F24005A84730B941F2CD27C0F2E3
S214402ED04007B84700BFFDE7636A204698471DE0B5
S214402EE04FF000054AF2A451C2F200010868A91B3F
S214402EF041F68D46C0F24006B04742F25944C0F211
S214402F004004A04750B941F2BD25C0F24005A8474D
S214402F1004E042F25942C0F24002904704A8D0472B
S214402F2007464AF2A456C2F2000641F61925C0F2F8
S214402F30400541F23D28C0F2400842F62D49C0F215
S214402F40400946E0079C24B1606910B104F10400D2
S214402F50C047059A022A26D0032A34D0002A38D100
S214402F60069BA169204659183A46C847012830D1E1
S214402F70636A20469847E06901282AD1A2694FF043
S214402F800003009320461946069C121942F6ED446B
S214402F90C0F24004A047E0B941F2CD25C0F240055A
S214402FA0A84700BFFDE7069BA36133B941F2CD2693
S214402FB0C0F24006B04700BFFDE72046F9183A4643
S214402FC03B46C84705E0204641F26951C0F2400101
S214402FD08847306805A94FF000021346A8470028E6
S214402FE0B0D135E70399884704A8D0470646049CE5
S214402FF0002C3FF475AF8CE710B54FF46060C0F21C
S214403000277043F6E533C0F2400398474FF0000080
S2144030104FF03E0143F29972C0F24002904743F6A9
S2144030200904C0F24004A0470028FCD043F619002B
S214403030C0F2400080474FF48061C4F20E0143F670
S2144030400173C2F213038B6243F62904C0F24004B4
S214403050A0470028FCD04FF0100043F2F962C0F2BF
S2144030604002904743F62D20C0F24000804710BDF6
S21440307010B584B04FF48050C4F20E004FF00C01EF
S2144030804FF0006243F20D53C0F2400398474FF0B2
S214403090090043F63901C0F2400188474FF46060AA
S2144030A0C0F2277000904FF4614201924FF40064E2
S2144030B002944FF0000303934FF40064C4F20E04EE
S2144030C02046694640F6F102C0F24002904720464C
S2144030D040F63511C0F240018847204640F63D1381
S2144030E0C0F24003984720464FF0010140F6451293
S2144030F0C0F2400290474FF46140CEF200004FF4D9
S2144031000071016004B010BD30B585B04FF01300BB
S21440311043F63903C0F2400398474FF00104C0F627
S21440312000044FF00300214643F29535C0F24005B7
S214403130A8474FF004002146A8474FF40044C4F285
S2144031400104204640F29161C0F2400188474FF4A6
S2144031506060C0F2277001904FF4D452C0F206026D
S21440316002924FF038038DF80C304FF000018DF886
S2144031700D10204601A940F6A902C0F24002904731
S21440318005B030BD08B54FF0170043F63903C0F21E
S214403190400398474FF46140CEF200004FF40002DF
S2144031A0C0F88020C0F88021026008BD10B541F20A
S2144031B05040C4F20E0043F6BD03C0F240039847A9
S2144031C04FF00B0043F63904C0F24004A0474FF0DE
S2144031D00C00A0474FF00D00A0474FF49050C4F2AB
S2144031E00E004FF4000202630261C0F8A0204FF4C4
S2144031F06061C4F20E014FF004034B66C1F8903094
S2144032004B654B62C1F88030086F20F004020A67B5
S2144032104B6F23F0040048674FF400120A66C1F86B
S21440322094204A654A62C1F880200B6F23F4001050
S21440323008674A6F22F400134B6743F27101C0F2ED
S2144032404001884743F28510C0F24000804743F271
S2144032500912C0F24002904710BD00BF0AB1416655
S21440326070470166704700BF10B44264B1F1C05F5A
S21440327030D008D8B1F1006F14D0B1F1805F1ED0C5
S21440328000293BD039E0B1F1205F37D003D8B1F107
S214403290005F32D129E0B1F1405F2FD0B1F1605FDD
S2144032A02BD12BE0016F046F6FEA020321401940D7
S2144032B00167416F446F21400B4043671DE0036F39
S2144032C042EA03010167436F416F0B4023EA020362
S2144032D0436712E0036F016F0B4023EA0203036764
S2144032E0436F42EA0301416707E0036F42EA030186
S2144032F00167436F42EA03014167426010BC704772
S21440330041647047F8B504460D4616461F4643F2DC
S2144033100133C0F24003984720462946069A43F2B6
S2144033205D23C0F2400398470FB1256500E0656510
S2144033300EB1256300E0656325612560F8BD00BFDA
S21440334070B504460D46164643F20133C0F24003BC
S21440335098472046294606F0010243F25D23C0F214
S2144033604003984716F00A0F14BF2562656216F0B0
S214403370020F02D0C4F8805004E016F0080F18BFC1
S214403380C4F884506561256070BD00BFC06C70474E
S214403390806C7047F0B583B00D464FEA501606F580
S2144033A0001101F207724FEA422605F0F044B4F1EC
S2144033B0005F64D00AD8B4F1805F2CD0B4F1C05F0F
S2144033C043D0B4F1006F40F09D800AE0B4F1405F16
S2144033D07ED0B4F1605F7BD0B4F1205F40F0928045
S2144033E067E000F01F034FF0010404FA03F730468D
S2144033F04FF000613A4643F26923C0F240039847D3
S2144034003046394605EA040243F25D23C0F24003E3
S2144034109847204678E000F01F074FF0010404FA72
S21440342007F730464FF080513A4643F26923C0F2E0
S214403430400398473046394605EA040243F25D2386
S214403440C0F24003984720465EE000F01F004FF071
S214403450010404FA00F730464FF0C0513A4643F2B2
S2144034606923C0F2400398473046394605EA0402CD
S21440347043F25D23C0F240039847204644E000F004
S2144034801F024FF0010404FA02F730464FF0005195
S2144034903A4643F26923C0F24003984730463946DD
S2144034A005EA040243F25D23C0F2400398472046F3
S2144034B02AE000F01F014FF00104304604FA01F103
S2144034C02A4643F24133C0F24003984720461BE069
S2144034D000F01F034FF0010405F0605205EA0400B7
S2144034E00090304604FA03F1B2F1605F14BF002248
S2144034F00122C5F3800343F20535C0F24005A847D4
S214403500204601E04FF0000003B0F0BDF0B583B0B8
S21440351007460E46154602F0F044B4F1005F50D020
S21440352009D8B4F1805F24D0B4F1C05F35D0B4F18F
S214403530006F78D109E0B4F1405F5ED0B4F1605FCF
S2144035405BD0B4F1205F6ED14FE04FF00061324661
S21440355043F26923C0F2400398473846314605F0A7
S214403560010243F25D23C0F2400398474FF001004A
S2144035705BE04FF08051324643F26923C0F240038D
S21440358098473846314605F0010243F25D23C0F2C3
S214403590400398474FF0010047E04FF0C051324695
S2144035A043F26923C0F2400398473846314605F057
S2144035B0010243F25D23C0F2400398474FF00100FA
S2144035C033E04FF00051324643F26923C0F24003E5
S2144035D098473846314605F0010243F25D23C0F273
S2144035E0400398474FF001001FE043F24133C0F2DA
S2144035F0400398474FF0010017E005F0605205F091
S2144036000100009038463146B2F1605F14BF002298
S2144036100122C5F3800343F20534C0F24004A047BC
S2144036204FF0010001E04FF0000003B0F0BD00BFD6
S2144036302DE9F04180460E4643F28D33C0F24003FA
S21440364098470546404643F29131C0F240018847CC
S214403650054014D0124C274654F80C0CB0420AD100
S21440366054F8081C294206D022683046904754F841
S214403670083C25EA030504F11004002DEBD14AF27C
S2144036804461C2F20001086838B14AF2AC52C2F254
S214403690000213680BB140469847BDE8F08100BF72
S2144036A0BCA5002008B54FF46060C4F20E004FF091
S2144036B00B0143F23163C0F24003984708BD00BF98
S2144036C008B54FF48050C4F20E004FF00C0143F2A0
S2144036D03163C0F24003984708BD00BF08B54FF4B9
S2144036E09050C4F20E004FF00D0143F23163C0F229
S2144036F04003984708BD00BF4FF48063C4F20E03F2
S2144037001A6B22F0700108431863986E10F0080F89
S21440371007D010E000F1FF33906E10F0080F38D05D
S21440372009E04FF400604FF48062C4F20E02916EDE
S21440373011F0080FEED04FF48061C4F20E010A6B10
S21440374022F0030343F002000863896E11F0080F6D
S21440375009D04FF00000704703F1FF33916E11F02F
S214403760080F13D009E04FF400634FF48062C4F2B0
S2144037700E02906E10F0080FEED04FF0000070472B
S2144037804FF0010070474FF001007047013BF0D109
S214403790F9E7581ECBD1F3E788B14FF48061C4F205
S2144037A00E01086A4FF6FC72CFF6C86202404FF030
S2144037B00203C0F2371342EA0300086270474FF430
S2144037C08063C4F20E031A6A22F45C1020F00302EF
S2144037D042F45C1040F001024FEA016142EA1140B7
S2144037E018624FF48062C4F20E02936E13F0010F1B
S2144037F0FBD04FF48061C4F20E01086A40F09B7221
S21440380042F480330B6270474FF48063C4F20E0379
S214403810986E00F4803070474FF48063C4F20E0315
S2144038204FF000529A6270474FF48063C4F20E0322
S214403830986E00F002007047222835D81F2817D807
S2144038404FF48061C4F20E018A694FF0010303FA17
S21440385000F31A4093422AD04FF0010101FA00F0DB
S2144038604FF48062C4F20E0210614FF000007047C1
S2144038704FF48063C4F20E03D3F80821A0F1200071
S2144038804FF0010101FA00F10A40914212D04FF088
S214403890010303FA00F04FF48062C4F20E02C2F84D
S2144038A000014FF0000070474FF0010070474FF0A6
S2144038B0000070474FF00000704700BF4FF40043D1
S2144038C043607047FEE700BF38B5504B504A9A42B7
S2144038D029D9504D4D4BAB4248D203F104004E4AD5
S2144038E0111A21F003044FF0000340F20002C2F226
S2144038F0000244F29471C0F2400104F10400C4F3A3
S21440390080045D589D5003F1040383426DD12DE041
S2144039105D589D5003F104035C589C5003F104032A
S2144039208342F5D122E03948394981421ED240F2DD
S2144039304045C2F2000540F20004C2F20004374B94
S2144039402A1B13D0A2F10400C0F380019C5845F80E
S214403950044D043A52D109E0995845F8041DA2F1A5
S21440396004029C5845F8044D043AF5D100BF2C4B50
S2144039702C4A9A421ED2A2F104052B49481B20F03D
S214403980030440F24043C2F20003E2184FF0000145
S214403990501BA0F10400C0F3800445F8041F954274
S2144039A01CD107E005F10403696005F1080559607C
S2144039B09542F7D14FF46D45CEF2000540F2000235
S2144039C0C0F24002AA6044F27161C0F240018847EA
S2144039D043F6CD40C0F240008047FEE7002CE1D0E1
S2144039E045F8041F9542DDD1E4E7002C90D05C58A2
S2144039F09C5003F1040383428AD1B7E70029ABD039
S214403A00985845F8040D043AA6D1AFE700000020C8
S214403A109447400040040020430400209047400064
S214403A2048A600204004002043A600204FF48063B0
S214403A30C4F20E03186B00F00303032B00F2A980B8
S214403A40DFE803F002144F4F41F21040C4F20E007C
S214403A50416911F0800F40F20C03C2F2000314BF1C
S214403A604FF400424FF4FA421A6092E04FF48063FB
S214403A70C4F20E03186A10F0807F09D04FF4D85372
S214403A80C0F2B70340F20C02C2F20002136080E0BC
S214403A904FF41061C0F23D0140F20C02C2F2000247
S214403AA011604FF48063C4F20E03186A00F0700190
S214403AB0102902D020296CD109E04FF49050C0F272
S214403AC07A0040F20C01C2F20001086061E04FF457
S214403AD0D853C0F2B70340F20C02C2F200021360A1
S214403AE057E04FF48062C4F20E02136A13F0807FF0
S214403AF009D04FF4D853C0F2B70340F20C02C2F2DA
S214403B000002136027E04FF41063C0F23D0340F21A
S214403B100C02C2F2000213604FF48063C4F20E033C
S214403B201A6A02F07003102B02D0202B13D109E042
S214403B304FF49053C0F27A0340F20C02C2F20002F5
S214403B40136008E04FF4D853C0F2B70340F20C02BB
S214403B50C2F2000213604FF48063C4F20E031A6B85
S214403B6002F00303022B4FF48062C4F20E0207BF3A
S214403B70906A916AD06AD16A40F20C03C2F200039E
S214403B80C0F30A401A6800FB0220C9B2B0FBF1F24B
S214403B901A604FF48062C4F20E02106B00F070019F
S214403BA070290ED140F20C03C2F2000318684AF6A0
S214403BB0AB22CAF6AA22A2FB00014FEA51001860C7
S214403BC070474FF48063C4F20E031A6B40F20C0049
S214403BD0C2F20000C2F30211036823FA01F3036045
S214403BE0704700BF42F6FF43C0F2311398420CD8EC
S214403BF04FF42061C4F20E014FF0806008604FF42D
S214403C004063C4F20E031860704745F6FF11C0F2D9
S214403C10622188420ED84FF42060C4F20E004FF462
S214403C208073C0F2004303604FF44062C4F20E0259
S214403C301360704748F2FF62C0F2933290420ED84B
S214403C404FF42062C4F20E024FF40073C0F20043F9
S214403C5013604FF44061C4F20E010B6070474BF2A4
S214403C60FF33C0F2C44398420ED84FF42062C4F2E9
S214403C700E024FF44071C0F2004111604FF44060B4
S214403C80C4F20E00016070474EF2FF01C0F2F551DB
S214403C9088420CD84FF42061C4F20E014FF0042045
S214403CA008604FF44063C4F20E03186070474FF448
S214403CB02060C4F20E004FF4A063C0F200430360DD
S214403CC04FF44062C4F20E021360704708B542F6E5
S214403CD0F973C0F2400398474FF46D40CEF20000AF
S214403CE0C1684FF6FF020A4042F0BF6343F400311A
S214403CF0C1604FF46140CEF200004FF0A00280F861
S214403D00092380F8132380F8172343F2AD13C0F23B
S214403D104003984740F63161C0F2400188474FF073
S214403D20000008BD08B541F2CD23C0F240039847D5
S214403D30FEE700BF81F0004102E000BF83F0004391
S214403D4030B54FEA41044FEA430594EA050F08BFF1
S214403D5090EA020F1FBF54EA000C55EA020C7FEAB5
S214403D60645C7FEA655C00F0E2804FEA5454D4EB32
S214403D705555B8BF6D420CDD2C4480EA020281EAFC
S214403D80030382EA000083EA010180EA020281EA34
S214403D900303362D88BF30BD11F0004F4FEA013186
S214403DA04FF4801C4CEA113102D0404261EB410195
S214403DB013F0004F4FEA03334CEA133302D052421B
S214403DC063EB430394EA050F00F0A780A4F10104D7
S214403DD0D5F1200E0DDB02FA0EFC22FA05F2801811
S214403DE041F1000103FA0EF2801843FA05F35941F7
S214403DF00EE0A5F120050EF1200E012A03FA0EFC76
S214403E0028BF4CF0020C43FA05F3C01851EBE3719F
S214403E1001F0004507D54FF0000EDCF1000C7EEBBC
S214403E2000006EEB0101B1F5801F1BD3B1F5001FFA
S214403E300CD349085FEA30004FEA3C0C04F1010419
S214403E404FEA445212F5800F80F09A80BCF1004F42
S214403E5008BF5FEA500C50F1000041EB045141EAC4
S214403E60050130BD5FEA4C0C404141EB010111F4C5
S214403E70801FA4F10104E9D191F0000F04BF014670
S214403E800020B1FA81F308BF2033A3F10B03B3F14E
S214403E9020020CDA0C3208DD02F1140CC2F10C02DE
S214403EA001FA0CF021FA02F10CE002F11402D8BF3C
S214403EB0C2F1200C01FA02F120FA0CFCDCBF41EA08
S214403EC00C019040E41AA2BF01EB0451294330BDD7
S214403ED06FEA04041F3C1CDA0C340EDC04F11404B4
S214403EE0C4F1200220FA04F001FA02F340EA03008B
S214403EF021FA04F345EA030130BDC4F10C04C4F1D1
S214403F00200220FA02F001FA04F340EA03002946B0
S214403F1030BD21FA04F0294630BD94F0000F83F4FA
S214403F20801306BF81F480110134013D4EE77FEADD
S214403F30645C18BF7FEA655C29D094EA050F08BF29
S214403F4090EA020F05D054EA000C04BF194610460A
S214403F5030BD91EA030F1EBF0021002030BD5FEA4E
S214403F60545C05D14000494128BF41F0004130BD76
S214403F7014F580043CBF01F5801130BD01F00045CA
S214403F8045F0FE4141F470014FF0000030BD7FEA3D
S214403F90645C1ABF194610467FEA655C1CBF0B4638
S214403FA0024650EA013406BF52EA033591EA030F4F
S214403FB041F4002130BD00BF90F0000F04BF002147
S214403FC0704730B54FF4806404F132044FF000057A
S214403FD04FF0000150E700BF90F0000F04BF0021F3
S214403FE0704730B54FF4806404F1320410F0004559
S214403FF048BF40424FF000013EE700BF42004FEA54
S214404000E2014FEA31014FEA02701FBF12F07F43D0
S21440401093F07F4F81F06051704792F0000F14BFCD
S21440402093F07F4F704730B54FF4607401F0004511
S21440403021F0004120E700BF50EA010208BF704768
S21440404030B54FF000050AE050EA010208BF70475D
S21440405030B511F0004502D5404261EB41014FF4C6
S214404060806404F132045FEA915C3FF4DCAE4FF0CA
S21440407003025FEADC0C18BF03325FEADC0C18BFB1
S214404080033202EBDC02C2F1200300FA03FC20FA02
S21440409002F001FA03FE40EA0E0021FA02F114444F
S2144040A0C1E600BF70B54FF0FF0C4CF4E06C1CEA64
S2144040B011541DBF1CEA135594EA0C0F95EA0C0FD9
S2144040C000F0DEF82C4481EA030621EA4C5123EA4C
S2144040D04C5350EA013518BF52EA033541F480117B
S2144040E043F4801338D0A0FB02CE4FF00005E1FB2E
S2144040F002E506F00042E0FB03E54FF00006E1FB78
S21440410003569CF0000F18BF4EF0010EA4F1FF04BA
S214404110B6F5007F64F5407404D25FEA4E0E6D41FA
S21440412046EB060642EAC62141EA55514FEAC5200B
S21440413040EA5E504FEACE2EB4F1FD0C88BFBCF587
S214404140E06F1ED8BEF1004F08BF5FEA500E50F138
S214404150000041EB045170BD06F0004646EA0101FE
S21440416040EA020081EA0301B4EB5C04C2BFD4EB30
S2144041700C0541EA045170BD41F480114FF0000E29
S214404180013C00F3AB8014F1360FDEBF002001F097
S214404190004170BDC4F10004203C35DA0C341BDC11
S2144041A004F11404C4F1200500FA05F320FA04F0E3
S2144041B001FA05F240EA020001F0004221F0004117
S2144041C010EBD37021FA04F642EB06015EEA430E8A
S2144041D008BF20EAD37070BDC4F10C04C4F12005BA
S2144041E000FA04F320FA05F001FA04F240EA02006D
S2144041F001F0004110EBD37041F100015EEA430E3E
S21440420008BF20EAD37070BDC4F1200500FA05F25D
S2144042104EEA020E20FA04F301FA05F243EA0203DC
S21440422021FA04F001F0004121FA04F220EA0200EB
S21440423000EBD3705EEA430E08BF20EAD37070BD31
S21440424094F0000F0FD101F00046400041EB010111
S21440425011F4801F08BF013CF7D041EA060195F0F3
S214404260000F18BF704703F00046520043EB0303AD
S21440427013F4801F08BF013DF7D043EA060370479A
S21440428094EA0C0F0CEA135518BF95EA0C0F0CD0A5
S21440429050EA410618BF52EA4306D1D181EA0301EB
S2144042A001F000414FF0000070BD50EA410606BFE5
S2144042B01046194652EA430619D094EA0C0F02D12A
S2144042C050EA013613D195EA0C0F05D152EA03366F
S2144042D01CBF104619460AD181EA030101F000418D
S2144042E041F0FE4141F470014FF0000070BD41F0D6
S2144042F0FE4141F4780170BD70B54FF0FF0C4CF4B0
S214404300E06C1CEA11541DBF1CEA135594EA0C0FCE
S21440431095EA0C0F00F0A7F8A4EB050481EA030E1B
S21440432052EA03354FEA013100F088804FEA033302
S2144043304FF0805545EA131343EA12634FEA0222D0
S21440434045EA111545EA10654FEA00260EF0004191
S2144043509D4208BF964244F1FD0404F5407402D2E3
S2144043605B084FEA3202B61A65EB03055B084FEA74
S21440437032024FF480104FF4002CB6EB020E75EB71
S214404380030E22BFB61A754640EA0C005B084FEA99
S2144043903202B6EB020E75EB030E22BFB61A754616
S2144043A040EA5C005B084FEA3202B6EB020E75EB61
S2144043B0030E22BFB61A754640EA9C005B084FEAD9
S2144043C03202B6EB020E75EB030E22BFB61A7546E6
S2144043D040EADC0055EA060E18D04FEA051545EAD5
S2144043E016754FEA06164FEAC30343EA52734FEA7E
S2144043F0C2025FEA1C1CC0D111F4801F0BD141EAF7
S21440440000014FF000004FF0004CB6E711F4801F5B
S21440441004BF01430020B4F1FD0C88BFBCF5E06F3B
S2144044203FF6AFAEB5EB030C04BFB6EB020C5FEA4B
S214404430500C50F1000041EB045170BD0EF0004EA0
S2144044404EEA113114EB5C04C2BFD4EB0C0541EAD2
S214404450045170BD41F480114FF0000E013C90E6CF
S21440446045EA060E8DE60CEA135594EA0C0F08BF93
S21440447095EA0C0F3FF43BAF94EA0C0F0AD150EA92
S21440448001347FF434AF95EA0C0F7FF425AF104625
S21440449019462CE795EA0C0F06D152EA03353FF44D
S2144044A0FDAE1046194622E750EA410618BF52EACA
S2144044B043067FF4C5AE50EA41047FF40DAF52EA9E
S2144044C043057FF4EBAE12E74FEA4102B2F1E04318
S2144044D024BFB3F5001CDCF1FE5C0DD901F0004CA6
S2144044E04FEAC0024CEA5070B2F1004F40EB8300F6
S2144044F008BF20F00100704711F0804F21D113F122
S2144045003872BCBF01F00040704741F480114FEA5A
S2144045105252C2F11802C2F1200C10FA0CF320FAE3
S21440452002F018BF40F001004FEAC1234FEAD32300
S21440453003FA0CFC40EA0C0023FA02F34FEA43036A
S214404540CCE77FEA625307D150EA01331EBF4FF0F3
S214404550FE4040F44000704701F0004040F0FE400E
S21440456040F40000704700BF42000ED2B2F1FE4F4A
S2144045700BD34FF09E03B3EB126209D44FEA0023ED
S21440458043F0004323FA02F070474FF000007047B4
S21440459012F1610F01D1420202D14FF0FF30704755
S2144045A04FF00000704700BF2DE9F8439846234B74
S2144045B01C680646D4F848010F46914618B904F5DB
S2144045C0A670C4F8480141681F2916DD1C4818B972
S2144045D04FF0FF30BDE8F8834FF4C870AFF300806B
S2144045E00028F5D0D4F84821002545600260C4F87C
S2144045F04801C0F88851C0F88C51B6B14468D0F82C
S2144046008811012200EB840302FA04F21143022EC1
S214404610C3F88890C0F888111C46C3F8088104D1B6
S214404620D0F88C311A43C0F88C2141688B1C4A1C48
S21440463040F8237042600020BDE8F8836847400099
S2144046400000000070B5084B084CE01A841003EBDD
S21440465084060025043D1CB172599047013CF9E799
S214404660BDE8704000F08EB8904740009447400048
S21440467038B50E4D0E4BE81A85100024AC4205D0D6
S2144046800B4951F8242090470134F7E700F070F8C2
S2144046900849094A541AA5100024AC4205D0054BD7
S2144046A053F8240080470134F7E738BD7C47400084
S2144046B07C4740007C4740008447400010B50023BC
S2144046C0934203D0CC5CC4540133F9E710BD821842
S2144046D00346934202D003F8011BFAE7704730B511
S2144046E0013903461C463AB111F8015F03F8015BF5
S2144046F0013A1C46002DF5D199188C4203D0002271
S21440470004F8012BF9E730BD024B13B1024800F024
S21440471005B87047000000004546400001460020AE
S21440472002460346FFF740BF434F4D547800000013
S214404730434F4D52780000004932435245414400B1
S2144047402573090925630925750925750925750DFC
S2144047500A00000049444C45000000000D0A0000D5
S214404760546D72205376630018000020430000000A
S214404770F8B500BFF8BC08BC9E46704709474000E5
S21440478045014000F8B500BFF8BC08BC9E467047DF
S2084047901D01400082
S214404794AAAAAAAA00A00000FFFFFFFF00093D0046
S2144047A41800002000000000000000000403002061
S2144047B46C030020D403002000000000000000002A
S2144047C400000000000000000000000000000000A0
S2144047D40000000000000000000000006C4740009D
S2144047E40000000000000000000000000000000080
S2144047F40000000000000000000000000000000070
S214404804000000000000000000000000000000005F
S214404814000000000000000000000000000000004F
S214404824000000000000000000000000000000003F
S214404834000000000000000000000000000000002F
S214404844000000000000000000000000000000001F
S21440485401000000000000000E33CDAB34126DE6BC
S214404864ECDE05000B000000000000000000000025
S21440487400000000000000000000000000000000EF
S21440488400000000000000000000000000000000DF
S21440489400000000000000000000000000000000CF
S2144048A400000000000000000000000000000000BF
S8044038C9BA
